{
  "_format": "hh-sol-artifact-1",
  "contractName": "MYNFT",
  "sourceName": "contracts/MyNFT.sol",
  "abi": [
    {
      "inputs": [],
      "stateMutability": "nonpayable",
      "type": "constructor"
    },
    {
      "anonymous": false,
      "inputs": [
        {
          "indexed": true,
          "internalType": "address",
          "name": "owner",
          "type": "address"
        },
        {
          "indexed": true,
          "internalType": "address",
          "name": "approved",
          "type": "address"
        },
        {
          "indexed": true,
          "internalType": "uint256",
          "name": "tokenId",
          "type": "uint256"
        }
      ],
      "name": "Approval",
      "type": "event"
    },
    {
      "anonymous": false,
      "inputs": [
        {
          "indexed": true,
          "internalType": "address",
          "name": "owner",
          "type": "address"
        },
        {
          "indexed": true,
          "internalType": "address",
          "name": "operator",
          "type": "address"
        },
        {
          "indexed": false,
          "internalType": "bool",
          "name": "approved",
          "type": "bool"
        }
      ],
      "name": "ApprovalForAll",
      "type": "event"
    },
    {
      "anonymous": false,
      "inputs": [
        {
          "indexed": true,
          "internalType": "address",
          "name": "previousOwner",
          "type": "address"
        },
        {
          "indexed": true,
          "internalType": "address",
          "name": "newOwner",
          "type": "address"
        }
      ],
      "name": "OwnershipTransferred",
      "type": "event"
    },
    {
      "anonymous": false,
      "inputs": [
        {
          "indexed": true,
          "internalType": "address",
          "name": "from",
          "type": "address"
        },
        {
          "indexed": true,
          "internalType": "address",
          "name": "to",
          "type": "address"
        },
        {
          "indexed": true,
          "internalType": "uint256",
          "name": "tokenId",
          "type": "uint256"
        }
      ],
      "name": "Transfer",
      "type": "event"
    },
    {
      "inputs": [
        {
          "internalType": "address",
          "name": "to",
          "type": "address"
        },
        {
          "internalType": "uint256",
          "name": "tokenId",
          "type": "uint256"
        }
      ],
      "name": "approve",
      "outputs": [],
      "stateMutability": "nonpayable",
      "type": "function"
    },
    {
      "inputs": [
        {
          "internalType": "address",
          "name": "owner",
          "type": "address"
        }
      ],
      "name": "balanceOf",
      "outputs": [
        {
          "internalType": "uint256",
          "name": "",
          "type": "uint256"
        }
      ],
      "stateMutability": "view",
      "type": "function"
    },
    {
      "inputs": [
        {
          "internalType": "uint256",
          "name": "tokenId",
          "type": "uint256"
        }
      ],
      "name": "getApproved",
      "outputs": [
        {
          "internalType": "address",
          "name": "",
          "type": "address"
        }
      ],
      "stateMutability": "view",
      "type": "function"
    },
    {
      "inputs": [],
      "name": "getCurrentID",
      "outputs": [
        {
          "internalType": "uint256",
          "name": "",
          "type": "uint256"
        }
      ],
      "stateMutability": "view",
      "type": "function"
    },
    {
      "inputs": [
        {
          "internalType": "address",
          "name": "owner",
          "type": "address"
        },
        {
          "internalType": "address",
          "name": "operator",
          "type": "address"
        }
      ],
      "name": "isApprovedForAll",
      "outputs": [
        {
          "internalType": "bool",
          "name": "",
          "type": "bool"
        }
      ],
      "stateMutability": "view",
      "type": "function"
    },
    {
      "inputs": [],
      "name": "name",
      "outputs": [
        {
          "internalType": "string",
          "name": "",
          "type": "string"
        }
      ],
      "stateMutability": "view",
      "type": "function"
    },
    {
      "inputs": [],
      "name": "owner",
      "outputs": [
        {
          "internalType": "address",
          "name": "",
          "type": "address"
        }
      ],
      "stateMutability": "view",
      "type": "function"
    },
    {
      "inputs": [
        {
          "internalType": "uint256",
          "name": "tokenId",
          "type": "uint256"
        }
      ],
      "name": "ownerOf",
      "outputs": [
        {
          "internalType": "address",
          "name": "",
          "type": "address"
        }
      ],
      "stateMutability": "view",
      "type": "function"
    },
    {
      "inputs": [],
      "name": "renounceOwnership",
      "outputs": [],
      "stateMutability": "nonpayable",
      "type": "function"
    },
    {
      "inputs": [
        {
          "internalType": "address",
          "name": "to",
          "type": "address"
        }
      ],
      "name": "safeMint",
      "outputs": [],
      "stateMutability": "nonpayable",
      "type": "function"
    },
    {
      "inputs": [
        {
          "internalType": "address",
          "name": "from",
          "type": "address"
        },
        {
          "internalType": "address",
          "name": "to",
          "type": "address"
        },
        {
          "internalType": "uint256",
          "name": "tokenId",
          "type": "uint256"
        }
      ],
      "name": "safeTransferFrom",
      "outputs": [],
      "stateMutability": "nonpayable",
      "type": "function"
    },
    {
      "inputs": [
        {
          "internalType": "address",
          "name": "from",
          "type": "address"
        },
        {
          "internalType": "address",
          "name": "to",
          "type": "address"
        },
        {
          "internalType": "uint256",
          "name": "tokenId",
          "type": "uint256"
        },
        {
          "internalType": "bytes",
          "name": "data",
          "type": "bytes"
        }
      ],
      "name": "safeTransferFrom",
      "outputs": [],
      "stateMutability": "nonpayable",
      "type": "function"
    },
    {
      "inputs": [
        {
          "internalType": "address",
          "name": "operator",
          "type": "address"
        },
        {
          "internalType": "bool",
          "name": "approved",
          "type": "bool"
        }
      ],
      "name": "setApprovalForAll",
      "outputs": [],
      "stateMutability": "nonpayable",
      "type": "function"
    },
    {
      "inputs": [
        {
          "internalType": "bytes4",
          "name": "interfaceId",
          "type": "bytes4"
        }
      ],
      "name": "supportsInterface",
      "outputs": [
        {
          "internalType": "bool",
          "name": "",
          "type": "bool"
        }
      ],
      "stateMutability": "view",
      "type": "function"
    },
    {
      "inputs": [],
      "name": "symbol",
      "outputs": [
        {
          "internalType": "string",
          "name": "",
          "type": "string"
        }
      ],
      "stateMutability": "view",
      "type": "function"
    },
    {
      "inputs": [
        {
          "internalType": "uint256",
          "name": "index",
          "type": "uint256"
        }
      ],
      "name": "tokenByIndex",
      "outputs": [
        {
          "internalType": "uint256",
          "name": "",
          "type": "uint256"
        }
      ],
      "stateMutability": "view",
      "type": "function"
    },
    {
      "inputs": [
        {
          "internalType": "address",
          "name": "owner",
          "type": "address"
        },
        {
          "internalType": "uint256",
          "name": "index",
          "type": "uint256"
        }
      ],
      "name": "tokenOfOwnerByIndex",
      "outputs": [
        {
          "internalType": "uint256",
          "name": "",
          "type": "uint256"
        }
      ],
      "stateMutability": "view",
      "type": "function"
    },
    {
      "inputs": [
        {
          "internalType": "uint256",
          "name": "tokenId",
          "type": "uint256"
        }
      ],
      "name": "tokenURI",
      "outputs": [
        {
          "internalType": "string",
          "name": "",
          "type": "string"
        }
      ],
      "stateMutability": "view",
      "type": "function"
    },
    {
      "inputs": [],
      "name": "totalSupply",
      "outputs": [
        {
          "internalType": "uint256",
          "name": "",
          "type": "uint256"
        }
      ],
      "stateMutability": "view",
      "type": "function"
    },
    {
      "inputs": [
        {
          "internalType": "address",
          "name": "from",
          "type": "address"
        },
        {
          "internalType": "address",
          "name": "to",
          "type": "address"
        },
        {
          "internalType": "uint256",
          "name": "tokenId",
          "type": "uint256"
        }
      ],
      "name": "transferFrom",
      "outputs": [],
      "stateMutability": "nonpayable",
      "type": "function"
    },
    {
      "inputs": [
        {
          "internalType": "address",
          "name": "newOwner",
          "type": "address"
        }
      ],
      "name": "transferOwnership",
      "outputs": [],
      "stateMutability": "nonpayable",
      "type": "function"
    }
  ],
  "bytecode": "0x60806040523480156200001157600080fd5b506040518060400160405280600581526020017f4d594e46540000000000000000000000000000000000000000000000000000008152506040518060400160405280600481526020017f4d4e46540000000000000000000000000000000000000000000000000000000081525081600090816200008f919062000412565b508060019081620000a1919062000412565b505050620000c4620000b8620000ca60201b60201c565b620000d260201b60201c565b620004f9565b600033905090565b6000600a60009054906101000a900473ffffffffffffffffffffffffffffffffffffffff16905081600a60006101000a81548173ffffffffffffffffffffffffffffffffffffffff021916908373ffffffffffffffffffffffffffffffffffffffff1602179055508173ffffffffffffffffffffffffffffffffffffffff168173ffffffffffffffffffffffffffffffffffffffff167f8be0079c531659141344cd1fd0a4f28419497f9722a3daafe3b4186f6b6457e060405160405180910390a35050565b600081519050919050565b7f4e487b7100000000000000000000000000000000000000000000000000000000600052604160045260246000fd5b7f4e487b7100000000000000000000000000000000000000000000000000000000600052602260045260246000fd5b600060028204905060018216806200021a57607f821691505b60208210810362000230576200022f620001d2565b5b50919050565b60008190508160005260206000209050919050565b60006020601f8301049050919050565b600082821b905092915050565b6000600883026200029a7fffffffffffffffffffffffffffffffffffffffffffffffffffffffffffffffff826200025b565b620002a686836200025b565b95508019841693508086168417925050509392505050565b6000819050919050565b6000819050919050565b6000620002f3620002ed620002e784620002be565b620002c8565b620002be565b9050919050565b6000819050919050565b6200030f83620002d2565b620003276200031e82620002fa565b84845462000268565b825550505050565b600090565b6200033e6200032f565b6200034b81848462000304565b505050565b5b8181101562000373576200036760008262000334565b60018101905062000351565b5050565b601f821115620003c2576200038c8162000236565b62000397846200024b565b81016020851015620003a7578190505b620003bf620003b6856200024b565b83018262000350565b50505b505050565b600082821c905092915050565b6000620003e760001984600802620003c7565b1980831691505092915050565b6000620004028383620003d4565b9150826002028217905092915050565b6200041d8262000198565b67ffffffffffffffff811115620004395762000438620001a3565b5b62000445825462000201565b6200045282828562000377565b600060209050601f8311600181146200048a576000841562000475578287015190505b620004818582620003f4565b865550620004f1565b601f1984166200049a8662000236565b60005b82811015620004c4578489015182556001820191506020850194506020810190506200049d565b86831015620004e45784890151620004e0601f891682620003d4565b8355505b6001600288020188555050505b505050505050565b61337280620005096000396000f3fe608060405234801561001057600080fd5b50600436106101375760003560e01c80636352211e116100b8578063a22cb4651161007c578063a22cb4651461034e578063b88d4fde1461036a578063c87b56dd14610386578063e985e9c5146103b6578063ef1e7df3146103e6578063f2fde38b1461040457610137565b80636352211e146102a857806370a08231146102d8578063715018a6146103085780638da5cb5b1461031257806395d89b411461033057610137565b806323b872dd116100ff57806323b872dd146101f45780632f745c591461021057806340d097c31461024057806342842e0e1461025c5780634f6ccce71461027857610137565b806301ffc9a71461013c57806306fdde031461016c578063081812fc1461018a578063095ea7b3146101ba57806318160ddd146101d6575b600080fd5b610156600480360381019061015191906122c5565b610420565b604051610163919061230d565b60405180910390f35b610174610432565b60405161018191906123b8565b60405180910390f35b6101a4600480360381019061019f9190612410565b6104c4565b6040516101b1919061247e565b60405180910390f35b6101d460048036038101906101cf91906124c5565b61050a565b005b6101de610621565b6040516101eb9190612514565b60405180910390f35b61020e6004803603810190610209919061252f565b61062e565b005b61022a600480360381019061022591906124c5565b61068e565b6040516102379190612514565b60405180910390f35b61025a60048036038101906102559190612582565b610733565b005b6102766004803603810190610271919061252f565b610759565b005b610292600480360381019061028d9190612410565b610779565b60405161029f9190612514565b60405180910390f35b6102c260048036038101906102bd9190612410565b6107ea565b6040516102cf919061247e565b60405180910390f35b6102f260048036038101906102ed9190612582565b610870565b6040516102ff9190612514565b60405180910390f35b610310610927565b005b61031a61093b565b604051610327919061247e565b60405180910390f35b610338610965565b60405161034591906123b8565b60405180910390f35b610368600480360381019061036391906125db565b6109f7565b005b610384600480360381019061037f9190612750565b610a0d565b005b6103a0600480360381019061039b9190612410565b610a6f565b6040516103ad91906123b8565b60405180910390f35b6103d060048036038101906103cb91906127d3565b610ad7565b6040516103dd919061230d565b60405180910390f35b6103ee610b6b565b6040516103fb9190612514565b60405180910390f35b61041e60048036038101906104199190612582565b610b88565b005b600061042b82610c0b565b9050919050565b60606000805461044190612842565b80601f016020809104026020016040519081016040528092919081815260200182805461046d90612842565b80156104ba5780601f1061048f576101008083540402835291602001916104ba565b820191906000526020600020905b81548152906001019060200180831161049d57829003601f168201915b5050505050905090565b60006104cf82610c85565b6004600083815260200190815260200160002060009054906101000a900473ffffffffffffffffffffffffffffffffffffffff169050919050565b6000610515826107ea565b90508073ffffffffffffffffffffffffffffffffffffffff168373ffffffffffffffffffffffffffffffffffffffff1603610585576040517f08c379a000000000000000000000000000000000000000000000000000000000815260040161057c906128e5565b60405180910390fd5b8073ffffffffffffffffffffffffffffffffffffffff166105a4610cd0565b73ffffffffffffffffffffffffffffffffffffffff1614806105d357506105d2816105cd610cd0565b610ad7565b5b610612576040517f08c379a000000000000000000000000000000000000000000000000000000000815260040161060990612977565b60405180910390fd5b61061c8383610cd8565b505050565b6000600880549050905090565b61063f610639610cd0565b82610d91565b61067e576040517f08c379a000000000000000000000000000000000000000000000000000000000815260040161067590612a09565b60405180910390fd5b610689838383610e26565b505050565b600061069983610870565b82106106da576040517f08c379a00000000000000000000000000000000000000000000000000000000081526004016106d190612a9b565b60405180910390fd5b600660008473ffffffffffffffffffffffffffffffffffffffff1673ffffffffffffffffffffffffffffffffffffffff168152602001908152602001600020600083815260200190815260200160002054905092915050565b600061073f600b61111f565b905061074b600b61112d565b6107558282611143565b5050565b61077483838360405180602001604052806000815250610a0d565b505050565b6000610783610621565b82106107c4576040517f08c379a00000000000000000000000000000000000000000000000000000000081526004016107bb90612b2d565b60405180910390fd5b600882815481106107d8576107d7612b4d565b5b90600052602060002001549050919050565b6000806107f683611161565b9050600073ffffffffffffffffffffffffffffffffffffffff168173ffffffffffffffffffffffffffffffffffffffff1603610867576040517f08c379a000000000000000000000000000000000000000000000000000000000815260040161085e90612bc8565b60405180910390fd5b80915050919050565b60008073ffffffffffffffffffffffffffffffffffffffff168273ffffffffffffffffffffffffffffffffffffffff16036108e0576040517f08c379a00000000000000000000000000000000000000000000000000000000081526004016108d790612c5a565b60405180910390fd5b600360008373ffffffffffffffffffffffffffffffffffffffff1673ffffffffffffffffffffffffffffffffffffffff168152602001908152602001600020549050919050565b61092f61119e565b610939600061121c565b565b6000600a60009054906101000a900473ffffffffffffffffffffffffffffffffffffffff16905090565b60606001805461097490612842565b80601f01602080910402602001604051908101604052809291908181526020018280546109a090612842565b80156109ed5780601f106109c2576101008083540402835291602001916109ed565b820191906000526020600020905b8154815290600101906020018083116109d057829003601f168201915b5050505050905090565b610a09610a02610cd0565b83836112e2565b5050565b610a1e610a18610cd0565b83610d91565b610a5d576040517f08c379a0000000000000000000000000000000000000000000000000000000008152600401610a5490612a09565b60405180910390fd5b610a698484848461144e565b50505050565b6060610a7a82610c85565b6000610a846114aa565b90506000815111610aa45760405180602001604052806000815250610acf565b80610aae846114e7565b604051602001610abf929190612cb6565b6040516020818303038152906040525b915050919050565b6000600560008473ffffffffffffffffffffffffffffffffffffffff1673ffffffffffffffffffffffffffffffffffffffff16815260200190815260200160002060008373ffffffffffffffffffffffffffffffffffffffff1673ffffffffffffffffffffffffffffffffffffffff16815260200190815260200160002060009054906101000a900460ff16905092915050565b60006001610b79600b61111f565b610b839190612d09565b905090565b610b9061119e565b600073ffffffffffffffffffffffffffffffffffffffff168173ffffffffffffffffffffffffffffffffffffffff1603610bff576040517f08c379a0000000000000000000000000000000000000000000000000000000008152600401610bf690612daf565b60405180910390fd5b610c088161121c565b50565b60007f780e9d63000000000000000000000000000000000000000000000000000000007bffffffffffffffffffffffffffffffffffffffffffffffffffffffff1916827bffffffffffffffffffffffffffffffffffffffffffffffffffffffff19161480610c7e5750610c7d826115b5565b5b9050919050565b610c8e81611697565b610ccd576040517f08c379a0000000000000000000000000000000000000000000000000000000008152600401610cc490612bc8565b60405180910390fd5b50565b600033905090565b816004600083815260200190815260200160002060006101000a81548173ffffffffffffffffffffffffffffffffffffffff021916908373ffffffffffffffffffffffffffffffffffffffff160217905550808273ffffffffffffffffffffffffffffffffffffffff16610d4b836107ea565b73ffffffffffffffffffffffffffffffffffffffff167f8c5be1e5ebec7d5bd14f71427d1e84f3dd0314c0f7b2291e5b200ac8c7c3b92560405160405180910390a45050565b600080610d9d836107ea565b90508073ffffffffffffffffffffffffffffffffffffffff168473ffffffffffffffffffffffffffffffffffffffff161480610ddf5750610dde8185610ad7565b5b80610e1d57508373ffffffffffffffffffffffffffffffffffffffff16610e05846104c4565b73ffffffffffffffffffffffffffffffffffffffff16145b91505092915050565b8273ffffffffffffffffffffffffffffffffffffffff16610e46826107ea565b73ffffffffffffffffffffffffffffffffffffffff1614610e9c576040517f08c379a0000000000000000000000000000000000000000000000000000000008152600401610e9390612e41565b60405180910390fd5b600073ffffffffffffffffffffffffffffffffffffffff168273ffffffffffffffffffffffffffffffffffffffff1603610f0b576040517f08c379a0000000000000000000000000000000000000000000000000000000008152600401610f0290612ed3565b60405180910390fd5b610f1883838360016116d8565b8273ffffffffffffffffffffffffffffffffffffffff16610f38826107ea565b73ffffffffffffffffffffffffffffffffffffffff1614610f8e576040517f08c379a0000000000000000000000000000000000000000000000000000000008152600401610f8590612e41565b60405180910390fd5b6004600082815260200190815260200160002060006101000a81549073ffffffffffffffffffffffffffffffffffffffff02191690556001600360008573ffffffffffffffffffffffffffffffffffffffff1673ffffffffffffffffffffffffffffffffffffffff168152602001908152602001600020600082825403925050819055506001600360008473ffffffffffffffffffffffffffffffffffffffff1673ffffffffffffffffffffffffffffffffffffffff16815260200190815260200160002060008282540192505081905550816002600083815260200190815260200160002060006101000a81548173ffffffffffffffffffffffffffffffffffffffff021916908373ffffffffffffffffffffffffffffffffffffffff160217905550808273ffffffffffffffffffffffffffffffffffffffff168473ffffffffffffffffffffffffffffffffffffffff167fddf252ad1be2c89b69c2b068fc378daa952ba7f163c4a11628f55a4df523b3ef60405160405180910390a461111a83838360016116ea565b505050565b600081600001549050919050565b6001816000016000828254019250508190555050565b61115d8282604051806020016040528060008152506116f0565b5050565b60006002600083815260200190815260200160002060009054906101000a900473ffffffffffffffffffffffffffffffffffffffff169050919050565b6111a6610cd0565b73ffffffffffffffffffffffffffffffffffffffff166111c461093b565b73ffffffffffffffffffffffffffffffffffffffff161461121a576040517f08c379a000000000000000000000000000000000000000000000000000000000815260040161121190612f3f565b60405180910390fd5b565b6000600a60009054906101000a900473ffffffffffffffffffffffffffffffffffffffff16905081600a60006101000a81548173ffffffffffffffffffffffffffffffffffffffff021916908373ffffffffffffffffffffffffffffffffffffffff1602179055508173ffffffffffffffffffffffffffffffffffffffff168173ffffffffffffffffffffffffffffffffffffffff167f8be0079c531659141344cd1fd0a4f28419497f9722a3daafe3b4186f6b6457e060405160405180910390a35050565b8173ffffffffffffffffffffffffffffffffffffffff168373ffffffffffffffffffffffffffffffffffffffff1603611350576040517f08c379a000000000000000000000000000000000000000000000000000000000815260040161134790612fab565b60405180910390fd5b80600560008573ffffffffffffffffffffffffffffffffffffffff1673ffffffffffffffffffffffffffffffffffffffff16815260200190815260200160002060008473ffffffffffffffffffffffffffffffffffffffff1673ffffffffffffffffffffffffffffffffffffffff16815260200190815260200160002060006101000a81548160ff0219169083151502179055508173ffffffffffffffffffffffffffffffffffffffff168373ffffffffffffffffffffffffffffffffffffffff167f17307eab39ab6107e8899845ad3d59bd9653f200f220920489ca2b5937696c3183604051611441919061230d565b60405180910390a3505050565b611459848484610e26565b6114658484848461174b565b6114a4576040517f08c379a000000000000000000000000000000000000000000000000000000000815260040161149b9061303d565b60405180910390fd5b50505050565b60606040518060400160405280601981526020017f68747470733a2f2f70696373756d2e70686f746f732f69642f00000000000000815250905090565b6060600060016114f6846118d2565b01905060008167ffffffffffffffff81111561151557611514612625565b5b6040519080825280601f01601f1916602001820160405280156115475781602001600182028036833780820191505090505b509050600082602001820190505b6001156115aa578080600190039150507f3031323334353637383961626364656600000000000000000000000000000000600a86061a8153600a858161159e5761159d61305d565b5b04945060008503611555575b819350505050919050565b60007f80ac58cd000000000000000000000000000000000000000000000000000000007bffffffffffffffffffffffffffffffffffffffffffffffffffffffff1916827bffffffffffffffffffffffffffffffffffffffffffffffffffffffff1916148061168057507f5b5e139f000000000000000000000000000000000000000000000000000000007bffffffffffffffffffffffffffffffffffffffffffffffffffffffff1916827bffffffffffffffffffffffffffffffffffffffffffffffffffffffff1916145b80611690575061168f82611a25565b5b9050919050565b60008073ffffffffffffffffffffffffffffffffffffffff166116b983611161565b73ffffffffffffffffffffffffffffffffffffffff1614159050919050565b6116e484848484611a8f565b50505050565b50505050565b6116fa8383611bed565b611707600084848461174b565b611746576040517f08c379a000000000000000000000000000000000000000000000000000000000815260040161173d9061303d565b60405180910390fd5b505050565b600061176c8473ffffffffffffffffffffffffffffffffffffffff16611e0a565b156118c5578373ffffffffffffffffffffffffffffffffffffffff1663150b7a02611795610cd0565b8786866040518563ffffffff1660e01b81526004016117b794939291906130e1565b6020604051808303816000875af19250505080156117f357506040513d601f19601f820116820180604052508101906117f09190613142565b60015b611875573d8060008114611823576040519150601f19603f3d011682016040523d82523d6000602084013e611828565b606091505b50600081510361186d576040517f08c379a00000000000000000000000000000000000000000000000000000000081526004016118649061303d565b60405180910390fd5b805181602001fd5b63150b7a0260e01b7bffffffffffffffffffffffffffffffffffffffffffffffffffffffff1916817bffffffffffffffffffffffffffffffffffffffffffffffffffffffff1916149150506118ca565b600190505b949350505050565b600080600090507a184f03e93ff9f4daa797ed6e38ed64bf6a1f0100000000000000008310611930577a184f03e93ff9f4daa797ed6e38ed64bf6a1f01000000000000000083816119265761192561305d565b5b0492506040810190505b6d04ee2d6d415b85acef8100000000831061196d576d04ee2d6d415b85acef810000000083816119635761196261305d565b5b0492506020810190505b662386f26fc10000831061199c57662386f26fc1000083816119925761199161305d565b5b0492506010810190505b6305f5e10083106119c5576305f5e10083816119bb576119ba61305d565b5b0492506008810190505b61271083106119ea5761271083816119e0576119df61305d565b5b0492506004810190505b60648310611a0d5760648381611a0357611a0261305d565b5b0492506002810190505b600a8310611a1c576001810190505b80915050919050565b60007f01ffc9a7000000000000000000000000000000000000000000000000000000007bffffffffffffffffffffffffffffffffffffffffffffffffffffffff1916827bffffffffffffffffffffffffffffffffffffffffffffffffffffffff1916149050919050565b611a9b84848484611e2d565b6001811115611adf576040517f08c379a0000000000000000000000000000000000000000000000000000000008152600401611ad6906131e1565b60405180910390fd5b6000829050600073ffffffffffffffffffffffffffffffffffffffff168573ffffffffffffffffffffffffffffffffffffffff1603611b2657611b2181611f53565b611b65565b8373ffffffffffffffffffffffffffffffffffffffff168573ffffffffffffffffffffffffffffffffffffffff1614611b6457611b638582611f9c565b5b5b600073ffffffffffffffffffffffffffffffffffffffff168473ffffffffffffffffffffffffffffffffffffffff1603611ba757611ba281612109565b611be6565b8473ffffffffffffffffffffffffffffffffffffffff168473ffffffffffffffffffffffffffffffffffffffff1614611be557611be484826121da565b5b5b5050505050565b600073ffffffffffffffffffffffffffffffffffffffff168273ffffffffffffffffffffffffffffffffffffffff1603611c5c576040517f08c379a0000000000000000000000000000000000000000000000000000000008152600401611c539061324d565b60405180910390fd5b611c6581611697565b15611ca5576040517f08c379a0000000000000000000000000000000000000000000000000000000008152600401611c9c906132b9565b60405180910390fd5b611cb36000838360016116d8565b611cbc81611697565b15611cfc576040517f08c379a0000000000000000000000000000000000000000000000000000000008152600401611cf3906132b9565b60405180910390fd5b6001600360008473ffffffffffffffffffffffffffffffffffffffff1673ffffffffffffffffffffffffffffffffffffffff16815260200190815260200160002060008282540192505081905550816002600083815260200190815260200160002060006101000a81548173ffffffffffffffffffffffffffffffffffffffff021916908373ffffffffffffffffffffffffffffffffffffffff160217905550808273ffffffffffffffffffffffffffffffffffffffff16600073ffffffffffffffffffffffffffffffffffffffff167fddf252ad1be2c89b69c2b068fc378daa952ba7f163c4a11628f55a4df523b3ef60405160405180910390a4611e066000838360016116ea565b5050565b6000808273ffffffffffffffffffffffffffffffffffffffff163b119050919050565b6001811115611f4d57600073ffffffffffffffffffffffffffffffffffffffff168473ffffffffffffffffffffffffffffffffffffffff1614611ec15780600360008673ffffffffffffffffffffffffffffffffffffffff1673ffffffffffffffffffffffffffffffffffffffff1681526020019081526020016000206000828254611eb99190612d09565b925050819055505b600073ffffffffffffffffffffffffffffffffffffffff168373ffffffffffffffffffffffffffffffffffffffff1614611f4c5780600360008573ffffffffffffffffffffffffffffffffffffffff1673ffffffffffffffffffffffffffffffffffffffff1681526020019081526020016000206000828254611f4491906132d9565b925050819055505b5b50505050565b6008805490506009600083815260200190815260200160002081905550600881908060018154018082558091505060019003906000526020600020016000909190919091505550565b60006001611fa984610870565b611fb39190612d09565b9050600060076000848152602001908152602001600020549050818114612098576000600660008673ffffffffffffffffffffffffffffffffffffffff1673ffffffffffffffffffffffffffffffffffffffff168152602001908152602001600020600084815260200190815260200160002054905080600660008773ffffffffffffffffffffffffffffffffffffffff1673ffffffffffffffffffffffffffffffffffffffff168152602001908152602001600020600084815260200190815260200160002081905550816007600083815260200190815260200160002081905550505b6007600084815260200190815260200160002060009055600660008573ffffffffffffffffffffffffffffffffffffffff1673ffffffffffffffffffffffffffffffffffffffff16815260200190815260200160002060008381526020019081526020016000206000905550505050565b6000600160088054905061211d9190612d09565b905060006009600084815260200190815260200160002054905060006008838154811061214d5761214c612b4d565b5b90600052602060002001549050806008838154811061216f5761216e612b4d565b5b9060005260206000200181905550816009600083815260200190815260200160002081905550600960008581526020019081526020016000206000905560088054806121be576121bd61330d565b5b6001900381819060005260206000200160009055905550505050565b60006121e583610870565b905081600660008573ffffffffffffffffffffffffffffffffffffffff1673ffffffffffffffffffffffffffffffffffffffff168152602001908152602001600020600083815260200190815260200160002081905550806007600084815260200190815260200160002081905550505050565b6000604051905090565b600080fd5b600080fd5b60007fffffffff0000000000000000000000000000000000000000000000000000000082169050919050565b6122a28161226d565b81146122ad57600080fd5b50565b6000813590506122bf81612299565b92915050565b6000602082840312156122db576122da612263565b5b60006122e9848285016122b0565b91505092915050565b60008115159050919050565b612307816122f2565b82525050565b600060208201905061232260008301846122fe565b92915050565b600081519050919050565b600082825260208201905092915050565b60005b83811015612362578082015181840152602081019050612347565b60008484015250505050565b6000601f19601f8301169050919050565b600061238a82612328565b6123948185612333565b93506123a4818560208601612344565b6123ad8161236e565b840191505092915050565b600060208201905081810360008301526123d2818461237f565b905092915050565b6000819050919050565b6123ed816123da565b81146123f857600080fd5b50565b60008135905061240a816123e4565b92915050565b60006020828403121561242657612425612263565b5b6000612434848285016123fb565b91505092915050565b600073ffffffffffffffffffffffffffffffffffffffff82169050919050565b60006124688261243d565b9050919050565b6124788161245d565b82525050565b6000602082019050612493600083018461246f565b92915050565b6124a28161245d565b81146124ad57600080fd5b50565b6000813590506124bf81612499565b92915050565b600080604083850312156124dc576124db612263565b5b60006124ea858286016124b0565b92505060206124fb858286016123fb565b9150509250929050565b61250e816123da565b82525050565b60006020820190506125296000830184612505565b92915050565b60008060006060848603121561254857612547612263565b5b6000612556868287016124b0565b9350506020612567868287016124b0565b9250506040612578868287016123fb565b9150509250925092565b60006020828403121561259857612597612263565b5b60006125a6848285016124b0565b91505092915050565b6125b8816122f2565b81146125c357600080fd5b50565b6000813590506125d5816125af565b92915050565b600080604083850312156125f2576125f1612263565b5b6000612600858286016124b0565b9250506020612611858286016125c6565b9150509250929050565b600080fd5b600080fd5b7f4e487b7100000000000000000000000000000000000000000000000000000000600052604160045260246000fd5b61265d8261236e565b810181811067ffffffffffffffff8211171561267c5761267b612625565b5b80604052505050565b600061268f612259565b905061269b8282612654565b919050565b600067ffffffffffffffff8211156126bb576126ba612625565b5b6126c48261236e565b9050602081019050919050565b82818337600083830152505050565b60006126f36126ee846126a0565b612685565b90508281526020810184848401111561270f5761270e612620565b5b61271a8482856126d1565b509392505050565b600082601f8301126127375761273661261b565b5b81356127478482602086016126e0565b91505092915050565b6000806000806080858703121561276a57612769612263565b5b6000612778878288016124b0565b9450506020612789878288016124b0565b935050604061279a878288016123fb565b925050606085013567ffffffffffffffff8111156127bb576127ba612268565b5b6127c787828801612722565b91505092959194509250565b600080604083850312156127ea576127e9612263565b5b60006127f8858286016124b0565b9250506020612809858286016124b0565b9150509250929050565b7f4e487b7100000000000000000000000000000000000000000000000000000000600052602260045260246000fd5b6000600282049050600182168061285a57607f821691505b60208210810361286d5761286c612813565b5b50919050565b7f4552433732313a20617070726f76616c20746f2063757272656e74206f776e6560008201527f7200000000000000000000000000000000000000000000000000000000000000602082015250565b60006128cf602183612333565b91506128da82612873565b604082019050919050565b600060208201905081810360008301526128fe816128c2565b9050919050565b7f4552433732313a20617070726f76652063616c6c6572206973206e6f7420746f60008201527f6b656e206f776e6572206f7220617070726f76656420666f7220616c6c000000602082015250565b6000612961603d83612333565b915061296c82612905565b604082019050919050565b6000602082019050818103600083015261299081612954565b9050919050565b7f4552433732313a2063616c6c6572206973206e6f7420746f6b656e206f776e6560008201527f72206f7220617070726f76656400000000000000000000000000000000000000602082015250565b60006129f3602d83612333565b91506129fe82612997565b604082019050919050565b60006020820190508181036000830152612a22816129e6565b9050919050565b7f455243373231456e756d657261626c653a206f776e657220696e646578206f7560008201527f74206f6620626f756e6473000000000000000000000000000000000000000000602082015250565b6000612a85602b83612333565b9150612a9082612a29565b604082019050919050565b60006020820190508181036000830152612ab481612a78565b9050919050565b7f455243373231456e756d657261626c653a20676c6f62616c20696e646578206f60008201527f7574206f6620626f756e64730000000000000000000000000000000000000000602082015250565b6000612b17602c83612333565b9150612b2282612abb565b604082019050919050565b60006020820190508181036000830152612b4681612b0a565b9050919050565b7f4e487b7100000000000000000000000000000000000000000000000000000000600052603260045260246000fd5b7f4552433732313a20696e76616c696420746f6b656e2049440000000000000000600082015250565b6000612bb2601883612333565b9150612bbd82612b7c565b602082019050919050565b60006020820190508181036000830152612be181612ba5565b9050919050565b7f4552433732313a2061646472657373207a65726f206973206e6f74206120766160008201527f6c6964206f776e65720000000000000000000000000000000000000000000000602082015250565b6000612c44602983612333565b9150612c4f82612be8565b604082019050919050565b60006020820190508181036000830152612c7381612c37565b9050919050565b600081905092915050565b6000612c9082612328565b612c9a8185612c7a565b9350612caa818560208601612344565b80840191505092915050565b6000612cc28285612c85565b9150612cce8284612c85565b91508190509392505050565b7f4e487b7100000000000000000000000000000000000000000000000000000000600052601160045260246000fd5b6000612d14826123da565b9150612d1f836123da565b9250828203905081811115612d3757612d36612cda565b5b92915050565b7f4f776e61626c653a206e6577206f776e657220697320746865207a65726f206160008201527f6464726573730000000000000000000000000000000000000000000000000000602082015250565b6000612d99602683612333565b9150612da482612d3d565b604082019050919050565b60006020820190508181036000830152612dc881612d8c565b9050919050565b7f4552433732313a207472616e736665722066726f6d20696e636f72726563742060008201527f6f776e6572000000000000000000000000000000000000000000000000000000602082015250565b6000612e2b602583612333565b9150612e3682612dcf565b604082019050919050565b60006020820190508181036000830152612e5a81612e1e565b9050919050565b7f4552433732313a207472616e7366657220746f20746865207a65726f2061646460008201527f7265737300000000000000000000000000000000000000000000000000000000602082015250565b6000612ebd602483612333565b9150612ec882612e61565b604082019050919050565b60006020820190508181036000830152612eec81612eb0565b9050919050565b7f4f776e61626c653a2063616c6c6572206973206e6f7420746865206f776e6572600082015250565b6000612f29602083612333565b9150612f3482612ef3565b602082019050919050565b60006020820190508181036000830152612f5881612f1c565b9050919050565b7f4552433732313a20617070726f766520746f2063616c6c657200000000000000600082015250565b6000612f95601983612333565b9150612fa082612f5f565b602082019050919050565b60006020820190508181036000830152612fc481612f88565b9050919050565b7f4552433732313a207472616e7366657220746f206e6f6e20455243373231526560008201527f63656976657220696d706c656d656e7465720000000000000000000000000000602082015250565b6000613027603283612333565b915061303282612fcb565b604082019050919050565b600060208201905081810360008301526130568161301a565b9050919050565b7f4e487b7100000000000000000000000000000000000000000000000000000000600052601260045260246000fd5b600081519050919050565b600082825260208201905092915050565b60006130b38261308c565b6130bd8185613097565b93506130cd818560208601612344565b6130d68161236e565b840191505092915050565b60006080820190506130f6600083018761246f565b613103602083018661246f565b6131106040830185612505565b818103606083015261312281846130a8565b905095945050505050565b60008151905061313c81612299565b92915050565b60006020828403121561315857613157612263565b5b60006131668482850161312d565b91505092915050565b7f455243373231456e756d657261626c653a20636f6e736563757469766520747260008201527f616e7366657273206e6f7420737570706f727465640000000000000000000000602082015250565b60006131cb603583612333565b91506131d68261316f565b604082019050919050565b600060208201905081810360008301526131fa816131be565b9050919050565b7f4552433732313a206d696e7420746f20746865207a65726f2061646472657373600082015250565b6000613237602083612333565b915061324282613201565b602082019050919050565b600060208201905081810360008301526132668161322a565b9050919050565b7f4552433732313a20746f6b656e20616c7265616479206d696e74656400000000600082015250565b60006132a3601c83612333565b91506132ae8261326d565b602082019050919050565b600060208201905081810360008301526132d281613296565b9050919050565b60006132e4826123da565b91506132ef836123da565b925082820190508082111561330757613306612cda565b5b92915050565b7f4e487b7100000000000000000000000000000000000000000000000000000000600052603160045260246000fdfea264697066735822122068947f8708277f2b0a95d0d1235a12ed738b4868fec8fcd0387d8766e283c3ca64736f6c63430008110033",
  "linkReferences": {},
  "deployedLinkReferences": {}
}