{
  "_format": "hh-sol-artifact-1",
  "contractName": "Staking",
  "sourceName": "contracts/Staking.sol",
  "abi": [
    {
      "inputs": [],
      "stateMutability": "nonpayable",
      "type": "constructor"
    },
    {
      "anonymous": false,
      "inputs": [
        {
          "indexed": true,
          "internalType": "address",
          "name": "owner",
          "type": "address"
        },
        {
          "indexed": true,
          "internalType": "address",
          "name": "approved",
          "type": "address"
        },
        {
          "indexed": true,
          "internalType": "uint256",
          "name": "tokenId",
          "type": "uint256"
        }
      ],
      "name": "Approval",
      "type": "event"
    },
    {
      "anonymous": false,
      "inputs": [
        {
          "indexed": true,
          "internalType": "address",
          "name": "owner",
          "type": "address"
        },
        {
          "indexed": true,
          "internalType": "address",
          "name": "operator",
          "type": "address"
        },
        {
          "indexed": false,
          "internalType": "bool",
          "name": "approved",
          "type": "bool"
        }
      ],
      "name": "ApprovalForAll",
      "type": "event"
    },
    {
      "anonymous": false,
      "inputs": [
        {
          "indexed": true,
          "internalType": "address",
          "name": "from",
          "type": "address"
        },
        {
          "indexed": true,
          "internalType": "address",
          "name": "to",
          "type": "address"
        },
        {
          "indexed": true,
          "internalType": "uint256",
          "name": "tokenId",
          "type": "uint256"
        }
      ],
      "name": "Transfer",
      "type": "event"
    },
    {
      "inputs": [],
      "name": "admin",
      "outputs": [
        {
          "internalType": "address",
          "name": "",
          "type": "address"
        }
      ],
      "stateMutability": "view",
      "type": "function"
    },
    {
      "inputs": [
        {
          "internalType": "address",
          "name": "to",
          "type": "address"
        },
        {
          "internalType": "uint256",
          "name": "tokenId",
          "type": "uint256"
        }
      ],
      "name": "approve",
      "outputs": [],
      "stateMutability": "nonpayable",
      "type": "function"
    },
    {
      "inputs": [
        {
          "internalType": "address",
          "name": "owner",
          "type": "address"
        }
      ],
      "name": "balanceOf",
      "outputs": [
        {
          "internalType": "uint256",
          "name": "",
          "type": "uint256"
        }
      ],
      "stateMutability": "view",
      "type": "function"
    },
    {
      "inputs": [
        {
          "internalType": "uint256",
          "name": "tokenId",
          "type": "uint256"
        }
      ],
      "name": "getApproved",
      "outputs": [
        {
          "internalType": "address",
          "name": "",
          "type": "address"
        }
      ],
      "stateMutability": "view",
      "type": "function"
    },
    {
      "inputs": [],
      "name": "getContractBalance",
      "outputs": [
        {
          "internalType": "uint256",
          "name": "",
          "type": "uint256"
        }
      ],
      "stateMutability": "view",
      "type": "function"
    },
    {
      "inputs": [],
      "name": "getCurrentID",
      "outputs": [
        {
          "internalType": "uint256",
          "name": "",
          "type": "uint256"
        }
      ],
      "stateMutability": "view",
      "type": "function"
    },
    {
      "inputs": [],
      "name": "getGasCompensation",
      "outputs": [],
      "stateMutability": "nonpayable",
      "type": "function"
    },
    {
      "inputs": [],
      "name": "getOwner",
      "outputs": [
        {
          "internalType": "address",
          "name": "",
          "type": "address"
        }
      ],
      "stateMutability": "view",
      "type": "function"
    },
    {
      "inputs": [
        {
          "internalType": "address",
          "name": "_userAddr",
          "type": "address"
        },
        {
          "internalType": "uint256",
          "name": "_exerciseID",
          "type": "uint256"
        }
      ],
      "name": "getStakingDetails",
      "outputs": [
        {
          "internalType": "uint256",
          "name": "",
          "type": "uint256"
        },
        {
          "internalType": "uint256",
          "name": "",
          "type": "uint256"
        },
        {
          "internalType": "uint256",
          "name": "",
          "type": "uint256"
        },
        {
          "internalType": "bool",
          "name": "",
          "type": "bool"
        },
        {
          "internalType": "uint256",
          "name": "",
          "type": "uint256"
        }
      ],
      "stateMutability": "view",
      "type": "function"
    },
    {
      "inputs": [
        {
          "internalType": "address",
          "name": "_userAddr",
          "type": "address"
        },
        {
          "internalType": "uint256",
          "name": "_exerciseID",
          "type": "uint256"
        }
      ],
      "name": "getTargetDone",
      "outputs": [
        {
          "internalType": "uint256",
          "name": "",
          "type": "uint256"
        }
      ],
      "stateMutability": "view",
      "type": "function"
    },
    {
      "inputs": [
        {
          "internalType": "uint256",
          "name": "_tokenID",
          "type": "uint256"
        }
      ],
      "name": "getTokenURI",
      "outputs": [
        {
          "internalType": "string",
          "name": "",
          "type": "string"
        }
      ],
      "stateMutability": "view",
      "type": "function"
    },
    {
      "inputs": [
        {
          "internalType": "address",
          "name": "owner",
          "type": "address"
        },
        {
          "internalType": "address",
          "name": "operator",
          "type": "address"
        }
      ],
      "name": "isApprovedForAll",
      "outputs": [
        {
          "internalType": "bool",
          "name": "",
          "type": "bool"
        }
      ],
      "stateMutability": "view",
      "type": "function"
    },
    {
      "inputs": [],
      "name": "name",
      "outputs": [
        {
          "internalType": "string",
          "name": "",
          "type": "string"
        }
      ],
      "stateMutability": "view",
      "type": "function"
    },
    {
      "inputs": [
        {
          "internalType": "uint256",
          "name": "tokenId",
          "type": "uint256"
        }
      ],
      "name": "ownerOf",
      "outputs": [
        {
          "internalType": "address",
          "name": "",
          "type": "address"
        }
      ],
      "stateMutability": "view",
      "type": "function"
    },
    {
      "inputs": [
        {
          "internalType": "uint256",
          "name": "exerciseID",
          "type": "uint256"
        },
        {
          "internalType": "address",
          "name": "userAddr",
          "type": "address"
        },
        {
          "internalType": "address",
          "name": "_charityAddr",
          "type": "address"
        }
      ],
      "name": "rewardMaticForExercise",
      "outputs": [],
      "stateMutability": "nonpayable",
      "type": "function"
    },
    {
      "inputs": [],
      "name": "rewardPool",
      "outputs": [
        {
          "internalType": "uint256",
          "name": "",
          "type": "uint256"
        }
      ],
      "stateMutability": "view",
      "type": "function"
    },
    {
      "inputs": [
        {
          "internalType": "address",
          "name": "to",
          "type": "address"
        }
      ],
      "name": "safeMint",
      "outputs": [],
      "stateMutability": "nonpayable",
      "type": "function"
    },
    {
      "inputs": [
        {
          "internalType": "address",
          "name": "from",
          "type": "address"
        },
        {
          "internalType": "address",
          "name": "to",
          "type": "address"
        },
        {
          "internalType": "uint256",
          "name": "tokenId",
          "type": "uint256"
        }
      ],
      "name": "safeTransferFrom",
      "outputs": [],
      "stateMutability": "nonpayable",
      "type": "function"
    },
    {
      "inputs": [
        {
          "internalType": "address",
          "name": "from",
          "type": "address"
        },
        {
          "internalType": "address",
          "name": "to",
          "type": "address"
        },
        {
          "internalType": "uint256",
          "name": "tokenId",
          "type": "uint256"
        },
        {
          "internalType": "bytes",
          "name": "data",
          "type": "bytes"
        }
      ],
      "name": "safeTransferFrom",
      "outputs": [],
      "stateMutability": "nonpayable",
      "type": "function"
    },
    {
      "inputs": [
        {
          "internalType": "address",
          "name": "operator",
          "type": "address"
        },
        {
          "internalType": "bool",
          "name": "approved",
          "type": "bool"
        }
      ],
      "name": "setApprovalForAll",
      "outputs": [],
      "stateMutability": "nonpayable",
      "type": "function"
    },
    {
      "inputs": [
        {
          "internalType": "uint256",
          "name": "_exerciseID",
          "type": "uint256"
        },
        {
          "internalType": "uint256",
          "name": "_target",
          "type": "uint256"
        }
      ],
      "name": "stakeMaticForExercise",
      "outputs": [],
      "stateMutability": "payable",
      "type": "function"
    },
    {
      "inputs": [
        {
          "internalType": "address",
          "name": "",
          "type": "address"
        },
        {
          "internalType": "uint256",
          "name": "",
          "type": "uint256"
        },
        {
          "internalType": "uint256",
          "name": "",
          "type": "uint256"
        }
      ],
      "name": "stakingDetails",
      "outputs": [
        {
          "internalType": "uint256",
          "name": "amount",
          "type": "uint256"
        },
        {
          "internalType": "uint256",
          "name": "target",
          "type": "uint256"
        },
        {
          "internalType": "uint256",
          "name": "targetDone",
          "type": "uint256"
        },
        {
          "internalType": "bool",
          "name": "isCompleted",
          "type": "bool"
        },
        {
          "internalType": "uint256",
          "name": "stakeDay",
          "type": "uint256"
        }
      ],
      "stateMutability": "view",
      "type": "function"
    },
    {
      "inputs": [
        {
          "internalType": "bytes4",
          "name": "interfaceId",
          "type": "bytes4"
        }
      ],
      "name": "supportsInterface",
      "outputs": [
        {
          "internalType": "bool",
          "name": "",
          "type": "bool"
        }
      ],
      "stateMutability": "view",
      "type": "function"
    },
    {
      "inputs": [],
      "name": "symbol",
      "outputs": [
        {
          "internalType": "string",
          "name": "",
          "type": "string"
        }
      ],
      "stateMutability": "view",
      "type": "function"
    },
    {
      "inputs": [
        {
          "internalType": "uint256",
          "name": "index",
          "type": "uint256"
        }
      ],
      "name": "tokenByIndex",
      "outputs": [
        {
          "internalType": "uint256",
          "name": "",
          "type": "uint256"
        }
      ],
      "stateMutability": "view",
      "type": "function"
    },
    {
      "inputs": [
        {
          "internalType": "address",
          "name": "owner",
          "type": "address"
        },
        {
          "internalType": "uint256",
          "name": "index",
          "type": "uint256"
        }
      ],
      "name": "tokenOfOwnerByIndex",
      "outputs": [
        {
          "internalType": "uint256",
          "name": "",
          "type": "uint256"
        }
      ],
      "stateMutability": "view",
      "type": "function"
    },
    {
      "inputs": [
        {
          "internalType": "uint256",
          "name": "tokenId",
          "type": "uint256"
        }
      ],
      "name": "tokenURI",
      "outputs": [
        {
          "internalType": "string",
          "name": "",
          "type": "string"
        }
      ],
      "stateMutability": "view",
      "type": "function"
    },
    {
      "inputs": [],
      "name": "totalSupply",
      "outputs": [
        {
          "internalType": "uint256",
          "name": "",
          "type": "uint256"
        }
      ],
      "stateMutability": "view",
      "type": "function"
    },
    {
      "inputs": [
        {
          "internalType": "address",
          "name": "from",
          "type": "address"
        },
        {
          "internalType": "address",
          "name": "to",
          "type": "address"
        },
        {
          "internalType": "uint256",
          "name": "tokenId",
          "type": "uint256"
        }
      ],
      "name": "transferFrom",
      "outputs": [],
      "stateMutability": "nonpayable",
      "type": "function"
    },
    {
      "inputs": [
        {
          "internalType": "uint256",
          "name": "_exerciseID",
          "type": "uint256"
        },
        {
          "internalType": "uint256",
          "name": "_targetDone",
          "type": "uint256"
        },
        {
          "internalType": "address",
          "name": "_userAddr",
          "type": "address"
        }
      ],
      "name": "updateTargetDone",
      "outputs": [],
      "stateMutability": "nonpayable",
      "type": "function"
    }
  ],
  "bytecode": "0x60806040523480156200001157600080fd5b506040518060400160405280600581526020017f4d594e46540000000000000000000000000000000000000000000000000000008152506040518060400160405280600481526020017f4d4e465400000000000000000000000000000000000000000000000000000000815250816000908051906020019062000096929190620000f9565b508060019080519060200190620000af929190620000f9565b50505033600b60006101000a81548173ffffffffffffffffffffffffffffffffffffffff021916908373ffffffffffffffffffffffffffffffffffffffff1602179055506200020e565b8280546200010790620001d8565b90600052602060002090601f0160209004810192826200012b576000855562000177565b82601f106200014657805160ff191683800117855562000177565b8280016001018555821562000177579182015b828111156200017657825182559160200191906001019062000159565b5b5090506200018691906200018a565b5090565b5b80821115620001a55760008160009055506001016200018b565b5090565b7f4e487b7100000000000000000000000000000000000000000000000000000000600052602260045260246000fd5b60006002820490506001821680620001f157607f821691505b60208210811415620002085762000207620001a9565b5b50919050565b6151dc806200021e6000396000f3fe6080604052600436106101cd5760003560e01c806366666aa9116100f7578063a22cb46511610095578063c87b56dd11610064578063c87b56dd146106b9578063e985e9c5146106f6578063ef1e7df314610733578063f851a4401461075e576101cd565b8063a22cb465146105e5578063a854b12b1461060e578063b88d4fde1461064f578063bc48565014610678576101cd565b806370a08231116100d157806370a08231146105295780637b147b6414610566578063893d20e81461058f57806395d89b41146105ba576101cd565b806366666aa9146104bc578063695b2e34146104e75780636f9fb98a146104fe576101cd565b80632f745c591161016f57806342842e0e1161013e57806342842e0e146103f05780634f6ccce714610419578063586ee487146104565780636352211e1461047f576101cd565b80632f745c591461031057806338fbde6d1461034d5780633bb3a24d1461038a57806340d097c3146103c7576101cd565b8063095ea7b3116101ab578063095ea7b31461027757806318160ddd146102a057806323b872dd146102cb5780632d7ea600146102f4576101cd565b806301ffc9a7146101d257806306fdde031461020f578063081812fc1461023a575b600080fd5b3480156101de57600080fd5b506101f960048036038101906101f49190613b8c565b610789565b6040516102069190613bd4565b60405180910390f35b34801561021b57600080fd5b5061022461079b565b6040516102319190613c88565b60405180910390f35b34801561024657600080fd5b50610261600480360381019061025c9190613ce0565b61082d565b60405161026e9190613d4e565b60405180910390f35b34801561028357600080fd5b5061029e60048036038101906102999190613d95565b610873565b005b3480156102ac57600080fd5b506102b561098b565b6040516102c29190613de4565b60405180910390f35b3480156102d757600080fd5b506102f260048036038101906102ed9190613dff565b610998565b005b61030e60048036038101906103099190613e52565b6109f8565b005b34801561031c57600080fd5b5061033760048036038101906103329190613d95565b610cf3565b6040516103449190613de4565b60405180910390f35b34801561035957600080fd5b50610374600480360381019061036f9190613d95565b610d98565b6040516103819190613de4565b60405180910390f35b34801561039657600080fd5b506103b160048036038101906103ac9190613ce0565b610f5e565b6040516103be9190613c88565b60405180910390f35b3480156103d357600080fd5b506103ee60048036038101906103e99190613e92565b610f70565b005b3480156103fc57600080fd5b5061041760048036038101906104129190613dff565b610f96565b005b34801561042557600080fd5b50610440600480360381019061043b9190613ce0565b610fb6565b60405161044d9190613de4565b60405180910390f35b34801561046257600080fd5b5061047d60048036038101906104789190613ebf565b611027565b005b34801561048b57600080fd5b506104a660048036038101906104a19190613ce0565b6117b3565b6040516104b39190613d4e565b60405180910390f35b3480156104c857600080fd5b506104d161183a565b6040516104de9190613de4565b60405180910390f35b3480156104f357600080fd5b506104fc611840565b005b34801561050a57600080fd5b5061051361198a565b6040516105209190613de4565b60405180910390f35b34801561053557600080fd5b50610550600480360381019061054b9190613e92565b611a22565b60405161055d9190613de4565b60405180910390f35b34801561057257600080fd5b5061058d60048036038101906105889190613f12565b611ada565b005b34801561059b57600080fd5b506105a461212b565b6040516105b19190613d4e565b60405180910390f35b3480156105c657600080fd5b506105cf612155565b6040516105dc9190613c88565b60405180910390f35b3480156105f157600080fd5b5061060c60048036038101906106079190613f91565b6121e7565b005b34801561061a57600080fd5b5061063560048036038101906106309190613fd1565b6121fd565b604051610646959493929190614024565b60405180910390f35b34801561065b57600080fd5b50610676600480360381019061067191906141ac565b61226a565b005b34801561068457600080fd5b5061069f600480360381019061069a9190613d95565b6122cc565b6040516106b0959493929190614024565b60405180910390f35b3480156106c557600080fd5b506106e060048036038101906106db9190613ce0565b6124b8565b6040516106ed9190613c88565b60405180910390f35b34801561070257600080fd5b5061071d6004803603810190610718919061422f565b612520565b60405161072a9190613bd4565b60405180910390f35b34801561073f57600080fd5b506107486125b4565b6040516107559190613de4565b60405180910390f35b34801561076a57600080fd5b506107736125d1565b6040516107809190613d4e565b60405180910390f35b6000610794826125f7565b9050919050565b6060600080546107aa9061429e565b80601f01602080910402602001604051908101604052809291908181526020018280546107d69061429e565b80156108235780601f106107f857610100808354040283529160200191610823565b820191906000526020600020905b81548152906001019060200180831161080657829003601f168201915b5050505050905090565b600061083882612671565b6004600083815260200190815260200160002060009054906101000a900473ffffffffffffffffffffffffffffffffffffffff169050919050565b600061087e826117b3565b90508073ffffffffffffffffffffffffffffffffffffffff168373ffffffffffffffffffffffffffffffffffffffff1614156108ef576040517f08c379a00000000000000000000000000000000000000000000000000000000081526004016108e690614342565b60405180910390fd5b8073ffffffffffffffffffffffffffffffffffffffff1661090e6126bc565b73ffffffffffffffffffffffffffffffffffffffff16148061093d575061093c816109376126bc565b612520565b5b61097c576040517f08c379a0000000000000000000000000000000000000000000000000000000008152600401610973906143d4565b60405180910390fd5b61098683836126c4565b505050565b6000600880549050905090565b6109a96109a36126bc565b8261277d565b6109e8576040517f08c379a00000000000000000000000000000000000000000000000000000000081526004016109df90614466565b60405180910390fd5b6109f3838383612812565b505050565b60003411610a3b576040517f08c379a0000000000000000000000000000000000000000000000000000000008152600401610a32906144d2565b60405180910390fd5b60058111610a7e576040517f08c379a0000000000000000000000000000000000000000000000000000000008152600401610a759061453e565b60405180910390fd5b6000600d60003373ffffffffffffffffffffffffffffffffffffffff1673ffffffffffffffffffffffffffffffffffffffff1681526020019081526020016000206000848152602001908152602001600020805490501115610c015760011515600d60003373ffffffffffffffffffffffffffffffffffffffff1673ffffffffffffffffffffffffffffffffffffffff16815260200190815260200160002060008481526020019081526020016000206001600d60003373ffffffffffffffffffffffffffffffffffffffff1673ffffffffffffffffffffffffffffffffffffffff168152602001908152602001600020600086815260200190815260200160002080549050610b8e919061458d565b81548110610b9f57610b9e6145c1565b5b906000526020600020906005020160030160009054906101000a900460ff16151514610c00576040517f08c379a0000000000000000000000000000000000000000000000000000000008152600401610bf790614662565b60405180910390fd5b5b600d60003373ffffffffffffffffffffffffffffffffffffffff1673ffffffffffffffffffffffffffffffffffffffff16815260200190815260200160002060008381526020019081526020016000206040518060a001604052803481526020018381526020016000815260200160001515815260200142815250908060018154018082558091505060019003906000526020600020906005020160009091909190915060008201518160000155602082015181600101556040820151816002015560608201518160030160006101000a81548160ff0219169083151502179055506080820151816004015550505050565b6000610cfe83611a22565b8210610d3f576040517f08c379a0000000000000000000000000000000000000000000000000000000008152600401610d36906146f4565b60405180910390fd5b600660008473ffffffffffffffffffffffffffffffffffffffff1673ffffffffffffffffffffffffffffffffffffffff168152602001908152602001600020600083815260200190815260200160002054905092915050565b600080600d60008573ffffffffffffffffffffffffffffffffffffffff1673ffffffffffffffffffffffffffffffffffffffff16815260200190815260200160002060008481526020019081526020016000208054905011610e2f576040517f08c379a0000000000000000000000000000000000000000000000000000000008152600401610e2690614760565b60405180910390fd5b6000600d60008573ffffffffffffffffffffffffffffffffffffffff1673ffffffffffffffffffffffffffffffffffffffff16815260200190815260200160002060008481526020019081526020016000206001600d60008773ffffffffffffffffffffffffffffffffffffffff1673ffffffffffffffffffffffffffffffffffffffff168152602001908152602001600020600086815260200190815260200160002080549050610ee1919061458d565b81548110610ef257610ef16145c1565b5b90600052602060002090600502016040518060a00160405290816000820154815260200160018201548152602001600282015481526020016003820160009054906101000a900460ff161515151581526020016004820154815250509050806040015191505092915050565b6060610f69826124b8565b9050919050565b6000610f7c600a612b0c565b9050610f88600a612b1a565b610f928282612b30565b5050565b610fb18383836040518060200160405280600081525061226a565b505050565b6000610fc061098b565b8210611001576040517f08c379a0000000000000000000000000000000000000000000000000000000008152600401610ff8906147f2565b60405180910390fd5b60088281548110611015576110146145c1565b5b90600052602060002001549050919050565b6000600d60008473ffffffffffffffffffffffffffffffffffffffff1673ffffffffffffffffffffffffffffffffffffffff168152602001908152602001600020600085815260200190815260200160002080549050116110bd576040517f08c379a00000000000000000000000000000000000000000000000000000000081526004016110b49061485e565b60405180910390fd5b60001515600d60008473ffffffffffffffffffffffffffffffffffffffff1673ffffffffffffffffffffffffffffffffffffffff16815260200190815260200160002060008581526020019081526020016000206001600d60008673ffffffffffffffffffffffffffffffffffffffff1673ffffffffffffffffffffffffffffffffffffffff168152602001908152602001600020600087815260200190815260200160002080549050611171919061458d565b81548110611182576111816145c1565b5b906000526020600020906005020160030160009054906101000a900460ff161515146111e3576040517f08c379a00000000000000000000000000000000000000000000000000000000081526004016111da906148ca565b60405180910390fd5b6000600d60008473ffffffffffffffffffffffffffffffffffffffff1673ffffffffffffffffffffffffffffffffffffffff16815260200190815260200160002060008581526020019081526020016000206001600d60008673ffffffffffffffffffffffffffffffffffffffff1673ffffffffffffffffffffffffffffffffffffffff168152602001908152602001600020600087815260200190815260200160002080549050611295919061458d565b815481106112a6576112a56145c1565b5b90600052602060002090600502016040518060a00160405290816000820154815260200160018201548152602001600282015481526020016003820160009054906101000a900460ff161515151581526020016004820154815250509050600081600001519050600d60008573ffffffffffffffffffffffffffffffffffffffff1673ffffffffffffffffffffffffffffffffffffffff16815260200190815260200160002060008681526020019081526020016000206040518060a00160405280600d60008873ffffffffffffffffffffffffffffffffffffffff1673ffffffffffffffffffffffffffffffffffffffff16815260200190815260200160002060008981526020019081526020016000206001600d60008a73ffffffffffffffffffffffffffffffffffffffff1673ffffffffffffffffffffffffffffffffffffffff16815260200190815260200160002060008b815260200190815260200160002080549050611418919061458d565b81548110611429576114286145c1565b5b9060005260206000209060050201600001548152602001600d60008873ffffffffffffffffffffffffffffffffffffffff1673ffffffffffffffffffffffffffffffffffffffff16815260200190815260200160002060008981526020019081526020016000206001600d60008a73ffffffffffffffffffffffffffffffffffffffff1673ffffffffffffffffffffffffffffffffffffffff16815260200190815260200160002060008b8152602001908152602001600020805490506114f0919061458d565b81548110611501576115006145c1565b5b9060005260206000209060050201600101548152602001600d60008873ffffffffffffffffffffffffffffffffffffffff1673ffffffffffffffffffffffffffffffffffffffff16815260200190815260200160002060008981526020019081526020016000206001600d60008a73ffffffffffffffffffffffffffffffffffffffff1673ffffffffffffffffffffffffffffffffffffffff16815260200190815260200160002060008b8152602001908152602001600020805490506115c8919061458d565b815481106115d9576115d86145c1565b5b906000526020600020906005020160020154815260200160011515815260200142815250908060018154018082558091505060019003906000526020600020906005020160009091909190915060008201518160000155602082015181600101556040820151816002015560608201518160030160006101000a81548160ff02191690831515021790555060808201518160040155505081602001518260400151106116d45761168884610f70565b8373ffffffffffffffffffffffffffffffffffffffff166108fc829081150290604051600060405180830381858888f193505050501580156116ce573d6000803e3d6000fd5b506117ac565b60006004826116e39190614919565b905080600c546116f3919061494a565b600c819055508473ffffffffffffffffffffffffffffffffffffffff166108fc828461171f919061458d565b9081150290604051600060405180830381858888f1935050505015801561174a573d6000803e3d6000fd5b508373ffffffffffffffffffffffffffffffffffffffff166108fc600a60098461177491906149a0565b61177e9190614919565b9081150290604051600060405180830381858888f193505050501580156117a9573d6000803e3d6000fd5b50505b5050505050565b6000806117bf83612b4e565b9050600073ffffffffffffffffffffffffffffffffffffffff168173ffffffffffffffffffffffffffffffffffffffff161415611831576040517f08c379a000000000000000000000000000000000000000000000000000000000815260040161182890614a46565b60405180910390fd5b80915050919050565b600c5481565b3373ffffffffffffffffffffffffffffffffffffffff16600b60009054906101000a900473ffffffffffffffffffffffffffffffffffffffff1673ffffffffffffffffffffffffffffffffffffffff16146118d0576040517f08c379a00000000000000000000000000000000000000000000000000000000081526004016118c790614ab2565b60405180910390fd5b6000600c5411611915576040517f08c379a000000000000000000000000000000000000000000000000000000000815260040161190c90614b1e565b60405180910390fd5b600b60009054906101000a900473ffffffffffffffffffffffffffffffffffffffff1673ffffffffffffffffffffffffffffffffffffffff166108fc600c549081150290604051600060405180830381858888f1935050505015801561197f573d6000803e3d6000fd5b506000600c81905550565b60003373ffffffffffffffffffffffffffffffffffffffff16600b60009054906101000a900473ffffffffffffffffffffffffffffffffffffffff1673ffffffffffffffffffffffffffffffffffffffff1614611a1c576040517f08c379a0000000000000000000000000000000000000000000000000000000008152600401611a1390614ab2565b60405180910390fd5b47905090565b60008073ffffffffffffffffffffffffffffffffffffffff168273ffffffffffffffffffffffffffffffffffffffff161415611a93576040517f08c379a0000000000000000000000000000000000000000000000000000000008152600401611a8a90614bb0565b60405180910390fd5b600360008373ffffffffffffffffffffffffffffffffffffffff1673ffffffffffffffffffffffffffffffffffffffff168152602001908152602001600020549050919050565b6000600d60008373ffffffffffffffffffffffffffffffffffffffff1673ffffffffffffffffffffffffffffffffffffffff16815260200190815260200160002060008581526020019081526020016000208054905011611b70576040517f08c379a0000000000000000000000000000000000000000000000000000000008152600401611b679061485e565b60405180910390fd5b60001515600d60008373ffffffffffffffffffffffffffffffffffffffff1673ffffffffffffffffffffffffffffffffffffffff16815260200190815260200160002060008581526020019081526020016000206001600d60008573ffffffffffffffffffffffffffffffffffffffff1673ffffffffffffffffffffffffffffffffffffffff168152602001908152602001600020600087815260200190815260200160002080549050611c24919061458d565b81548110611c3557611c346145c1565b5b906000526020600020906005020160030160009054906101000a900460ff16151514611c96576040517f08c379a0000000000000000000000000000000000000000000000000000000008152600401611c8d90614c1c565b60405180910390fd5b62015180600d60008373ffffffffffffffffffffffffffffffffffffffff1673ffffffffffffffffffffffffffffffffffffffff16815260200190815260200160002060008581526020019081526020016000206001600d60008573ffffffffffffffffffffffffffffffffffffffff1673ffffffffffffffffffffffffffffffffffffffff168152602001908152602001600020600087815260200190815260200160002080549050611d4a919061458d565b81548110611d5b57611d5a6145c1565b5b90600052602060002090600502016004015442611d78919061458d565b10611db8576040517f08c379a0000000000000000000000000000000000000000000000000000000008152600401611daf90614c88565b60405180910390fd5b600d60008273ffffffffffffffffffffffffffffffffffffffff1673ffffffffffffffffffffffffffffffffffffffff16815260200190815260200160002060008481526020019081526020016000206040518060a00160405280600d60008573ffffffffffffffffffffffffffffffffffffffff1673ffffffffffffffffffffffffffffffffffffffff16815260200190815260200160002060008781526020019081526020016000206001600d60008773ffffffffffffffffffffffffffffffffffffffff1673ffffffffffffffffffffffffffffffffffffffff168152602001908152602001600020600089815260200190815260200160002080549050611ec3919061458d565b81548110611ed457611ed36145c1565b5b9060005260206000209060050201600001548152602001600d60008573ffffffffffffffffffffffffffffffffffffffff1673ffffffffffffffffffffffffffffffffffffffff16815260200190815260200160002060008781526020019081526020016000206001600d60008773ffffffffffffffffffffffffffffffffffffffff1673ffffffffffffffffffffffffffffffffffffffff168152602001908152602001600020600089815260200190815260200160002080549050611f9b919061458d565b81548110611fac57611fab6145c1565b5b906000526020600020906005020160010154815260200184600d60008673ffffffffffffffffffffffffffffffffffffffff1673ffffffffffffffffffffffffffffffffffffffff16815260200190815260200160002060008881526020019081526020016000206001600d60008873ffffffffffffffffffffffffffffffffffffffff1673ffffffffffffffffffffffffffffffffffffffff16815260200190815260200160002060008a815260200190815260200160002080549050612074919061458d565b81548110612085576120846145c1565b5b9060005260206000209060050201600201546120a1919061494a565b815260200160001515815260200142815250908060018154018082558091505060019003906000526020600020906005020160009091909190915060008201518160000155602082015181600101556040820151816002015560608201518160030160006101000a81548160ff021916908315150217905550608082015181600401555050505050565b6000600b60009054906101000a900473ffffffffffffffffffffffffffffffffffffffff16905090565b6060600180546121649061429e565b80601f01602080910402602001604051908101604052809291908181526020018280546121909061429e565b80156121dd5780601f106121b2576101008083540402835291602001916121dd565b820191906000526020600020905b8154815290600101906020018083116121c057829003601f168201915b5050505050905090565b6121f96121f26126bc565b8383612b8b565b5050565b600d602052826000526040600020602052816000526040600020818154811061222557600080fd5b906000526020600020906005020160009250925050508060000154908060010154908060020154908060030160009054906101000a900460ff16908060040154905085565b61227b6122756126bc565b8361277d565b6122ba576040517f08c379a00000000000000000000000000000000000000000000000000000000081526004016122b190614466565b60405180910390fd5b6122c684848484612cf8565b50505050565b600080600080600080600d60008973ffffffffffffffffffffffffffffffffffffffff1673ffffffffffffffffffffffffffffffffffffffff16815260200190815260200160002060008881526020019081526020016000208054905011612369576040517f08c379a000000000000000000000000000000000000000000000000000000000815260040161236090614760565b60405180910390fd5b6000600d60008973ffffffffffffffffffffffffffffffffffffffff1673ffffffffffffffffffffffffffffffffffffffff16815260200190815260200160002060008881526020019081526020016000206001600d60008b73ffffffffffffffffffffffffffffffffffffffff1673ffffffffffffffffffffffffffffffffffffffff16815260200190815260200160002060008a81526020019081526020016000208054905061241b919061458d565b8154811061242c5761242b6145c1565b5b90600052602060002090600502016040518060a00160405290816000820154815260200160018201548152602001600282015481526020016003820160009054906101000a900460ff1615151515815260200160048201548152505090508060000151816020015182604001518360600151846080015195509550955095509550509295509295909350565b60606124c382612671565b60006124cd612d54565b905060008151116124ed5760405180602001604052806000815250612518565b806124f784612d91565b604051602001612508929190614ce4565b6040516020818303038152906040525b915050919050565b6000600560008473ffffffffffffffffffffffffffffffffffffffff1673ffffffffffffffffffffffffffffffffffffffff16815260200190815260200160002060008373ffffffffffffffffffffffffffffffffffffffff1673ffffffffffffffffffffffffffffffffffffffff16815260200190815260200160002060009054906101000a900460ff16905092915050565b600060016125c2600a612b0c565b6125cc919061458d565b905090565b600b60009054906101000a900473ffffffffffffffffffffffffffffffffffffffff1681565b60007f780e9d63000000000000000000000000000000000000000000000000000000007bffffffffffffffffffffffffffffffffffffffffffffffffffffffff1916827bffffffffffffffffffffffffffffffffffffffffffffffffffffffff1916148061266a575061266982612e69565b5b9050919050565b61267a81612f4b565b6126b9576040517f08c379a00000000000000000000000000000000000000000000000000000000081526004016126b090614a46565b60405180910390fd5b50565b600033905090565b816004600083815260200190815260200160002060006101000a81548173ffffffffffffffffffffffffffffffffffffffff021916908373ffffffffffffffffffffffffffffffffffffffff160217905550808273ffffffffffffffffffffffffffffffffffffffff16612737836117b3565b73ffffffffffffffffffffffffffffffffffffffff167f8c5be1e5ebec7d5bd14f71427d1e84f3dd0314c0f7b2291e5b200ac8c7c3b92560405160405180910390a45050565b600080612789836117b3565b90508073ffffffffffffffffffffffffffffffffffffffff168473ffffffffffffffffffffffffffffffffffffffff1614806127cb57506127ca8185612520565b5b8061280957508373ffffffffffffffffffffffffffffffffffffffff166127f18461082d565b73ffffffffffffffffffffffffffffffffffffffff16145b91505092915050565b8273ffffffffffffffffffffffffffffffffffffffff16612832826117b3565b73ffffffffffffffffffffffffffffffffffffffff1614612888576040517f08c379a000000000000000000000000000000000000000000000000000000000815260040161287f90614d7a565b60405180910390fd5b600073ffffffffffffffffffffffffffffffffffffffff168273ffffffffffffffffffffffffffffffffffffffff1614156128f8576040517f08c379a00000000000000000000000000000000000000000000000000000000081526004016128ef90614e0c565b60405180910390fd5b6129058383836001612f8c565b8273ffffffffffffffffffffffffffffffffffffffff16612925826117b3565b73ffffffffffffffffffffffffffffffffffffffff161461297b576040517f08c379a000000000000000000000000000000000000000000000000000000000815260040161297290614d7a565b60405180910390fd5b6004600082815260200190815260200160002060006101000a81549073ffffffffffffffffffffffffffffffffffffffff02191690556001600360008573ffffffffffffffffffffffffffffffffffffffff1673ffffffffffffffffffffffffffffffffffffffff168152602001908152602001600020600082825403925050819055506001600360008473ffffffffffffffffffffffffffffffffffffffff1673ffffffffffffffffffffffffffffffffffffffff16815260200190815260200160002060008282540192505081905550816002600083815260200190815260200160002060006101000a81548173ffffffffffffffffffffffffffffffffffffffff021916908373ffffffffffffffffffffffffffffffffffffffff160217905550808273ffffffffffffffffffffffffffffffffffffffff168473ffffffffffffffffffffffffffffffffffffffff167fddf252ad1be2c89b69c2b068fc378daa952ba7f163c4a11628f55a4df523b3ef60405160405180910390a4612b078383836001612f9e565b505050565b600081600001549050919050565b6001816000016000828254019250508190555050565b612b4a828260405180602001604052806000815250612fa4565b5050565b60006002600083815260200190815260200160002060009054906101000a900473ffffffffffffffffffffffffffffffffffffffff169050919050565b8173ffffffffffffffffffffffffffffffffffffffff168373ffffffffffffffffffffffffffffffffffffffff161415612bfa576040517f08c379a0000000000000000000000000000000000000000000000000000000008152600401612bf190614e78565b60405180910390fd5b80600560008573ffffffffffffffffffffffffffffffffffffffff1673ffffffffffffffffffffffffffffffffffffffff16815260200190815260200160002060008473ffffffffffffffffffffffffffffffffffffffff1673ffffffffffffffffffffffffffffffffffffffff16815260200190815260200160002060006101000a81548160ff0219169083151502179055508173ffffffffffffffffffffffffffffffffffffffff168373ffffffffffffffffffffffffffffffffffffffff167f17307eab39ab6107e8899845ad3d59bd9653f200f220920489ca2b5937696c3183604051612ceb9190613bd4565b60405180910390a3505050565b612d03848484612812565b612d0f84848484612fff565b612d4e576040517f08c379a0000000000000000000000000000000000000000000000000000000008152600401612d4590614f0a565b60405180910390fd5b50505050565b60606040518060400160405280601981526020017f68747470733a2f2f70696373756d2e70686f746f732f69642f00000000000000815250905090565b606060006001612da084613196565b01905060008167ffffffffffffffff811115612dbf57612dbe614081565b5b6040519080825280601f01601f191660200182016040528015612df15781602001600182028036833780820191505090505b509050600082602001820190505b600115612e5e578080600190039150507f3031323334353637383961626364656600000000000000000000000000000000600a86061a8153600a8581612e4857612e476148ea565b5b0494506000851415612e5957612e5e565b612dff565b819350505050919050565b60007f80ac58cd000000000000000000000000000000000000000000000000000000007bffffffffffffffffffffffffffffffffffffffffffffffffffffffff1916827bffffffffffffffffffffffffffffffffffffffffffffffffffffffff19161480612f3457507f5b5e139f000000000000000000000000000000000000000000000000000000007bffffffffffffffffffffffffffffffffffffffffffffffffffffffff1916827bffffffffffffffffffffffffffffffffffffffffffffffffffffffff1916145b80612f445750612f43826132e9565b5b9050919050565b60008073ffffffffffffffffffffffffffffffffffffffff16612f6d83612b4e565b73ffffffffffffffffffffffffffffffffffffffff1614159050919050565b612f9884848484613353565b50505050565b50505050565b612fae83836134b3565b612fbb6000848484612fff565b612ffa576040517f08c379a0000000000000000000000000000000000000000000000000000000008152600401612ff190614f0a565b60405180910390fd5b505050565b60006130208473ffffffffffffffffffffffffffffffffffffffff166136d1565b15613189578373ffffffffffffffffffffffffffffffffffffffff1663150b7a026130496126bc565b8786866040518563ffffffff1660e01b815260040161306b9493929190614f7f565b602060405180830381600087803b15801561308557600080fd5b505af19250505080156130b657506040513d601f19601f820116820180604052508101906130b39190614fe0565b60015b613139573d80600081146130e6576040519150601f19603f3d011682016040523d82523d6000602084013e6130eb565b606091505b50600081511415613131576040517f08c379a000000000000000000000000000000000000000000000000000000000815260040161312890614f0a565b60405180910390fd5b805181602001fd5b63150b7a0260e01b7bffffffffffffffffffffffffffffffffffffffffffffffffffffffff1916817bffffffffffffffffffffffffffffffffffffffffffffffffffffffff19161491505061318e565b600190505b949350505050565b600080600090507a184f03e93ff9f4daa797ed6e38ed64bf6a1f01000000000000000083106131f4577a184f03e93ff9f4daa797ed6e38ed64bf6a1f01000000000000000083816131ea576131e96148ea565b5b0492506040810190505b6d04ee2d6d415b85acef81000000008310613231576d04ee2d6d415b85acef81000000008381613227576132266148ea565b5b0492506020810190505b662386f26fc10000831061326057662386f26fc100008381613256576132556148ea565b5b0492506010810190505b6305f5e1008310613289576305f5e100838161327f5761327e6148ea565b5b0492506008810190505b61271083106132ae5761271083816132a4576132a36148ea565b5b0492506004810190505b606483106132d157606483816132c7576132c66148ea565b5b0492506002810190505b600a83106132e0576001810190505b80915050919050565b60007f01ffc9a7000000000000000000000000000000000000000000000000000000007bffffffffffffffffffffffffffffffffffffffffffffffffffffffff1916827bffffffffffffffffffffffffffffffffffffffffffffffffffffffff1916149050919050565b61335f848484846136f4565b60018111156133a3576040517f08c379a000000000000000000000000000000000000000000000000000000000815260040161339a9061507f565b60405180910390fd5b6000829050600073ffffffffffffffffffffffffffffffffffffffff168573ffffffffffffffffffffffffffffffffffffffff1614156133eb576133e68161381a565b61342a565b8373ffffffffffffffffffffffffffffffffffffffff168573ffffffffffffffffffffffffffffffffffffffff1614613429576134288582613863565b5b5b600073ffffffffffffffffffffffffffffffffffffffff168473ffffffffffffffffffffffffffffffffffffffff16141561346d57613468816139d0565b6134ac565b8473ffffffffffffffffffffffffffffffffffffffff168473ffffffffffffffffffffffffffffffffffffffff16146134ab576134aa8482613aa1565b5b5b5050505050565b600073ffffffffffffffffffffffffffffffffffffffff168273ffffffffffffffffffffffffffffffffffffffff161415613523576040517f08c379a000000000000000000000000000000000000000000000000000000000815260040161351a906150eb565b60405180910390fd5b61352c81612f4b565b1561356c576040517f08c379a000000000000000000000000000000000000000000000000000000000815260040161356390615157565b60405180910390fd5b61357a600083836001612f8c565b61358381612f4b565b156135c3576040517f08c379a00000000000000000000000000000000000000000000000000000000081526004016135ba90615157565b60405180910390fd5b6001600360008473ffffffffffffffffffffffffffffffffffffffff1673ffffffffffffffffffffffffffffffffffffffff16815260200190815260200160002060008282540192505081905550816002600083815260200190815260200160002060006101000a81548173ffffffffffffffffffffffffffffffffffffffff021916908373ffffffffffffffffffffffffffffffffffffffff160217905550808273ffffffffffffffffffffffffffffffffffffffff16600073ffffffffffffffffffffffffffffffffffffffff167fddf252ad1be2c89b69c2b068fc378daa952ba7f163c4a11628f55a4df523b3ef60405160405180910390a46136cd600083836001612f9e565b5050565b6000808273ffffffffffffffffffffffffffffffffffffffff163b119050919050565b600181111561381457600073ffffffffffffffffffffffffffffffffffffffff168473ffffffffffffffffffffffffffffffffffffffff16146137885780600360008673ffffffffffffffffffffffffffffffffffffffff1673ffffffffffffffffffffffffffffffffffffffff1681526020019081526020016000206000828254613780919061458d565b925050819055505b600073ffffffffffffffffffffffffffffffffffffffff168373ffffffffffffffffffffffffffffffffffffffff16146138135780600360008573ffffffffffffffffffffffffffffffffffffffff1673ffffffffffffffffffffffffffffffffffffffff168152602001908152602001600020600082825461380b919061494a565b925050819055505b5b50505050565b6008805490506009600083815260200190815260200160002081905550600881908060018154018082558091505060019003906000526020600020016000909190919091505550565b6000600161387084611a22565b61387a919061458d565b905060006007600084815260200190815260200160002054905081811461395f576000600660008673ffffffffffffffffffffffffffffffffffffffff1673ffffffffffffffffffffffffffffffffffffffff168152602001908152602001600020600084815260200190815260200160002054905080600660008773ffffffffffffffffffffffffffffffffffffffff1673ffffffffffffffffffffffffffffffffffffffff168152602001908152602001600020600084815260200190815260200160002081905550816007600083815260200190815260200160002081905550505b6007600084815260200190815260200160002060009055600660008573ffffffffffffffffffffffffffffffffffffffff1673ffffffffffffffffffffffffffffffffffffffff16815260200190815260200160002060008381526020019081526020016000206000905550505050565b600060016008805490506139e4919061458d565b9050600060096000848152602001908152602001600020549050600060088381548110613a1457613a136145c1565b5b906000526020600020015490508060088381548110613a3657613a356145c1565b5b906000526020600020018190555081600960008381526020019081526020016000208190555060096000858152602001908152602001600020600090556008805480613a8557613a84615177565b5b6001900381819060005260206000200160009055905550505050565b6000613aac83611a22565b905081600660008573ffffffffffffffffffffffffffffffffffffffff1673ffffffffffffffffffffffffffffffffffffffff168152602001908152602001600020600083815260200190815260200160002081905550806007600084815260200190815260200160002081905550505050565b6000604051905090565b600080fd5b600080fd5b60007fffffffff0000000000000000000000000000000000000000000000000000000082169050919050565b613b6981613b34565b8114613b7457600080fd5b50565b600081359050613b8681613b60565b92915050565b600060208284031215613ba257613ba1613b2a565b5b6000613bb084828501613b77565b91505092915050565b60008115159050919050565b613bce81613bb9565b82525050565b6000602082019050613be96000830184613bc5565b92915050565b600081519050919050565b600082825260208201905092915050565b60005b83811015613c29578082015181840152602081019050613c0e565b83811115613c38576000848401525b50505050565b6000601f19601f8301169050919050565b6000613c5a82613bef565b613c648185613bfa565b9350613c74818560208601613c0b565b613c7d81613c3e565b840191505092915050565b60006020820190508181036000830152613ca28184613c4f565b905092915050565b6000819050919050565b613cbd81613caa565b8114613cc857600080fd5b50565b600081359050613cda81613cb4565b92915050565b600060208284031215613cf657613cf5613b2a565b5b6000613d0484828501613ccb565b91505092915050565b600073ffffffffffffffffffffffffffffffffffffffff82169050919050565b6000613d3882613d0d565b9050919050565b613d4881613d2d565b82525050565b6000602082019050613d636000830184613d3f565b92915050565b613d7281613d2d565b8114613d7d57600080fd5b50565b600081359050613d8f81613d69565b92915050565b60008060408385031215613dac57613dab613b2a565b5b6000613dba85828601613d80565b9250506020613dcb85828601613ccb565b9150509250929050565b613dde81613caa565b82525050565b6000602082019050613df96000830184613dd5565b92915050565b600080600060608486031215613e1857613e17613b2a565b5b6000613e2686828701613d80565b9350506020613e3786828701613d80565b9250506040613e4886828701613ccb565b9150509250925092565b60008060408385031215613e6957613e68613b2a565b5b6000613e7785828601613ccb565b9250506020613e8885828601613ccb565b9150509250929050565b600060208284031215613ea857613ea7613b2a565b5b6000613eb684828501613d80565b91505092915050565b600080600060608486031215613ed857613ed7613b2a565b5b6000613ee686828701613ccb565b9350506020613ef786828701613d80565b9250506040613f0886828701613d80565b9150509250925092565b600080600060608486031215613f2b57613f2a613b2a565b5b6000613f3986828701613ccb565b9350506020613f4a86828701613ccb565b9250506040613f5b86828701613d80565b9150509250925092565b613f6e81613bb9565b8114613f7957600080fd5b50565b600081359050613f8b81613f65565b92915050565b60008060408385031215613fa857613fa7613b2a565b5b6000613fb685828601613d80565b9250506020613fc785828601613f7c565b9150509250929050565b600080600060608486031215613fea57613fe9613b2a565b5b6000613ff886828701613d80565b935050602061400986828701613ccb565b925050604061401a86828701613ccb565b9150509250925092565b600060a0820190506140396000830188613dd5565b6140466020830187613dd5565b6140536040830186613dd5565b6140606060830185613bc5565b61406d6080830184613dd5565b9695505050505050565b600080fd5b600080fd5b7f4e487b7100000000000000000000000000000000000000000000000000000000600052604160045260246000fd5b6140b982613c3e565b810181811067ffffffffffffffff821117156140d8576140d7614081565b5b80604052505050565b60006140eb613b20565b90506140f782826140b0565b919050565b600067ffffffffffffffff82111561411757614116614081565b5b61412082613c3e565b9050602081019050919050565b82818337600083830152505050565b600061414f61414a846140fc565b6140e1565b90508281526020810184848401111561416b5761416a61407c565b5b61417684828561412d565b509392505050565b600082601f83011261419357614192614077565b5b81356141a384826020860161413c565b91505092915050565b600080600080608085870312156141c6576141c5613b2a565b5b60006141d487828801613d80565b94505060206141e587828801613d80565b93505060406141f687828801613ccb565b925050606085013567ffffffffffffffff81111561421757614216613b2f565b5b6142238782880161417e565b91505092959194509250565b6000806040838503121561424657614245613b2a565b5b600061425485828601613d80565b925050602061426585828601613d80565b9150509250929050565b7f4e487b7100000000000000000000000000000000000000000000000000000000600052602260045260246000fd5b600060028204905060018216806142b657607f821691505b602082108114156142ca576142c961426f565b5b50919050565b7f4552433732313a20617070726f76616c20746f2063757272656e74206f776e6560008201527f7200000000000000000000000000000000000000000000000000000000000000602082015250565b600061432c602183613bfa565b9150614337826142d0565b604082019050919050565b6000602082019050818103600083015261435b8161431f565b9050919050565b7f4552433732313a20617070726f76652063616c6c6572206973206e6f7420746f60008201527f6b656e206f776e6572206f7220617070726f76656420666f7220616c6c000000602082015250565b60006143be603d83613bfa565b91506143c982614362565b604082019050919050565b600060208201905081810360008301526143ed816143b1565b9050919050565b7f4552433732313a2063616c6c6572206973206e6f7420746f6b656e206f776e6560008201527f72206f7220617070726f76656400000000000000000000000000000000000000602082015250565b6000614450602d83613bfa565b915061445b826143f4565b604082019050919050565b6000602082019050818103600083015261447f81614443565b9050919050565b7f416d6f756e742073686f756c642062652067726561746572207468616e203000600082015250565b60006144bc601f83613bfa565b91506144c782614486565b602082019050919050565b600060208201905081810360008301526144eb816144af565b9050919050565b7f5461726765742073686f756c642062652067726561746572207468616e203500600082015250565b6000614528601f83613bfa565b9150614533826144f2565b602082019050919050565b600060208201905081810360008301526145578161451b565b9050919050565b7f4e487b7100000000000000000000000000000000000000000000000000000000600052601160045260246000fd5b600061459882613caa565b91506145a383613caa565b9250828210156145b6576145b561455e565b5b828203905092915050565b7f4e487b7100000000000000000000000000000000000000000000000000000000600052603260045260246000fd5b7f50726576696f7573207374616b696e67206973206e6f7420636f6d706c65746560008201527f6400000000000000000000000000000000000000000000000000000000000000602082015250565b600061464c602183613bfa565b9150614657826145f0565b604082019050919050565b6000602082019050818103600083015261467b8161463f565b9050919050565b7f455243373231456e756d657261626c653a206f776e657220696e646578206f7560008201527f74206f6620626f756e6473000000000000000000000000000000000000000000602082015250565b60006146de602b83613bfa565b91506146e982614682565b604082019050919050565b6000602082019050818103600083015261470d816146d1565b9050919050565b7f4e6f207374616b696e672064657461696c7320666f756e640000000000000000600082015250565b600061474a601883613bfa565b915061475582614714565b602082019050919050565b600060208201905081810360008301526147798161473d565b9050919050565b7f455243373231456e756d657261626c653a20676c6f62616c20696e646578206f60008201527f7574206f6620626f756e64730000000000000000000000000000000000000000602082015250565b60006147dc602c83613bfa565b91506147e782614780565b604082019050919050565b6000602082019050818103600083015261480b816147cf565b9050919050565b7f4e6f207374616b696e6720666f756e6400000000000000000000000000000000600082015250565b6000614848601083613bfa565b915061485382614812565b602082019050919050565b600060208201905081810360008301526148778161483b565b9050919050565b7f416c726561647920726577617264656400000000000000000000000000000000600082015250565b60006148b4601083613bfa565b91506148bf8261487e565b602082019050919050565b600060208201905081810360008301526148e3816148a7565b9050919050565b7f4e487b7100000000000000000000000000000000000000000000000000000000600052601260045260246000fd5b600061492482613caa565b915061492f83613caa565b92508261493f5761493e6148ea565b5b828204905092915050565b600061495582613caa565b915061496083613caa565b9250827fffffffffffffffffffffffffffffffffffffffffffffffffffffffffffffffff038211156149955761499461455e565b5b828201905092915050565b60006149ab82613caa565b91506149b683613caa565b9250817fffffffffffffffffffffffffffffffffffffffffffffffffffffffffffffffff04831182151516156149ef576149ee61455e565b5b828202905092915050565b7f4552433732313a20696e76616c696420746f6b656e2049440000000000000000600082015250565b6000614a30601883613bfa565b9150614a3b826149fa565b602082019050919050565b60006020820190508181036000830152614a5f81614a23565b9050919050565b7f4f6e6c79206f776e65722063616e206368616e67652069740000000000000000600082015250565b6000614a9c601883613bfa565b9150614aa782614a66565b602082019050919050565b60006020820190508181036000830152614acb81614a8f565b9050919050565b7f4e6f2072657761726420706f6f6c20666f756e64000000000000000000000000600082015250565b6000614b08601483613bfa565b9150614b1382614ad2565b602082019050919050565b60006020820190508181036000830152614b3781614afb565b9050919050565b7f4552433732313a2061646472657373207a65726f206973206e6f74206120766160008201527f6c6964206f776e65720000000000000000000000000000000000000000000000602082015250565b6000614b9a602983613bfa565b9150614ba582614b3e565b604082019050919050565b60006020820190508181036000830152614bc981614b8d565b9050919050565b7f5374616b696e6720697320616c726561647920636f6d706c6574656400000000600082015250565b6000614c06601c83613bfa565b9150614c1182614bd0565b602082019050919050565b60006020820190508181036000830152614c3581614bf9565b9050919050565b7f596f752063616e74207570646174652061667465722031206461790000000000600082015250565b6000614c72601b83613bfa565b9150614c7d82614c3c565b602082019050919050565b60006020820190508181036000830152614ca181614c65565b9050919050565b600081905092915050565b6000614cbe82613bef565b614cc88185614ca8565b9350614cd8818560208601613c0b565b80840191505092915050565b6000614cf08285614cb3565b9150614cfc8284614cb3565b91508190509392505050565b7f4552433732313a207472616e736665722066726f6d20696e636f72726563742060008201527f6f776e6572000000000000000000000000000000000000000000000000000000602082015250565b6000614d64602583613bfa565b9150614d6f82614d08565b604082019050919050565b60006020820190508181036000830152614d9381614d57565b9050919050565b7f4552433732313a207472616e7366657220746f20746865207a65726f2061646460008201527f7265737300000000000000000000000000000000000000000000000000000000602082015250565b6000614df6602483613bfa565b9150614e0182614d9a565b604082019050919050565b60006020820190508181036000830152614e2581614de9565b9050919050565b7f4552433732313a20617070726f766520746f2063616c6c657200000000000000600082015250565b6000614e62601983613bfa565b9150614e6d82614e2c565b602082019050919050565b60006020820190508181036000830152614e9181614e55565b9050919050565b7f4552433732313a207472616e7366657220746f206e6f6e20455243373231526560008201527f63656976657220696d706c656d656e7465720000000000000000000000000000602082015250565b6000614ef4603283613bfa565b9150614eff82614e98565b604082019050919050565b60006020820190508181036000830152614f2381614ee7565b9050919050565b600081519050919050565b600082825260208201905092915050565b6000614f5182614f2a565b614f5b8185614f35565b9350614f6b818560208601613c0b565b614f7481613c3e565b840191505092915050565b6000608082019050614f946000830187613d3f565b614fa16020830186613d3f565b614fae6040830185613dd5565b8181036060830152614fc08184614f46565b905095945050505050565b600081519050614fda81613b60565b92915050565b600060208284031215614ff657614ff5613b2a565b5b600061500484828501614fcb565b91505092915050565b7f455243373231456e756d657261626c653a20636f6e736563757469766520747260008201527f616e7366657273206e6f7420737570706f727465640000000000000000000000602082015250565b6000615069603583613bfa565b91506150748261500d565b604082019050919050565b600060208201905081810360008301526150988161505c565b9050919050565b7f4552433732313a206d696e7420746f20746865207a65726f2061646472657373600082015250565b60006150d5602083613bfa565b91506150e08261509f565b602082019050919050565b60006020820190508181036000830152615104816150c8565b9050919050565b7f4552433732313a20746f6b656e20616c7265616479206d696e74656400000000600082015250565b6000615141601c83613bfa565b915061514c8261510b565b602082019050919050565b6000602082019050818103600083015261517081615134565b9050919050565b7f4e487b7100000000000000000000000000000000000000000000000000000000600052603160045260246000fdfea264697066735822122099401c0e50ac5bd4e61afcfa9969881cc65c5e59776d72c1be44d9d330a4505664736f6c63430008090033",
  "linkReferences": {},
  "deployedLinkReferences": {}
}