{
  "_format": "hh-sol-artifact-1",
  "contractName": "Staking",
  "sourceName": "contracts/Staking.sol",
  "abi": [
    {
      "inputs": [],
      "stateMutability": "nonpayable",
      "type": "constructor"
    },
    {
      "anonymous": false,
      "inputs": [
        {
          "indexed": true,
          "internalType": "address",
          "name": "owner",
          "type": "address"
        },
        {
          "indexed": true,
          "internalType": "address",
          "name": "approved",
          "type": "address"
        },
        {
          "indexed": true,
          "internalType": "uint256",
          "name": "tokenId",
          "type": "uint256"
        }
      ],
      "name": "Approval",
      "type": "event"
    },
    {
      "anonymous": false,
      "inputs": [
        {
          "indexed": true,
          "internalType": "address",
          "name": "owner",
          "type": "address"
        },
        {
          "indexed": true,
          "internalType": "address",
          "name": "operator",
          "type": "address"
        },
        {
          "indexed": false,
          "internalType": "bool",
          "name": "approved",
          "type": "bool"
        }
      ],
      "name": "ApprovalForAll",
      "type": "event"
    },
    {
      "anonymous": false,
      "inputs": [
        {
          "indexed": true,
          "internalType": "address",
          "name": "from",
          "type": "address"
        },
        {
          "indexed": true,
          "internalType": "address",
          "name": "to",
          "type": "address"
        },
        {
          "indexed": true,
          "internalType": "uint256",
          "name": "tokenId",
          "type": "uint256"
        }
      ],
      "name": "Transfer",
      "type": "event"
    },
    {
      "inputs": [],
      "name": "admin",
      "outputs": [
        {
          "internalType": "address",
          "name": "",
          "type": "address"
        }
      ],
      "stateMutability": "view",
      "type": "function"
    },
    {
      "inputs": [
        {
          "internalType": "address",
          "name": "to",
          "type": "address"
        },
        {
          "internalType": "uint256",
          "name": "tokenId",
          "type": "uint256"
        }
      ],
      "name": "approve",
      "outputs": [],
      "stateMutability": "nonpayable",
      "type": "function"
    },
    {
      "inputs": [
        {
          "internalType": "address",
          "name": "owner",
          "type": "address"
        }
      ],
      "name": "balanceOf",
      "outputs": [
        {
          "internalType": "uint256",
          "name": "",
          "type": "uint256"
        }
      ],
      "stateMutability": "view",
      "type": "function"
    },
    {
      "inputs": [
        {
          "internalType": "uint256",
          "name": "tokenId",
          "type": "uint256"
        }
      ],
      "name": "getApproved",
      "outputs": [
        {
          "internalType": "address",
          "name": "",
          "type": "address"
        }
      ],
      "stateMutability": "view",
      "type": "function"
    },
    {
      "inputs": [],
      "name": "getContractBalance",
      "outputs": [
        {
          "internalType": "uint256",
          "name": "",
          "type": "uint256"
        }
      ],
      "stateMutability": "view",
      "type": "function"
    },
    {
      "inputs": [],
      "name": "getCurrentID",
      "outputs": [
        {
          "internalType": "uint256",
          "name": "",
          "type": "uint256"
        }
      ],
      "stateMutability": "view",
      "type": "function"
    },
    {
      "inputs": [],
      "name": "getGasCompensation",
      "outputs": [],
      "stateMutability": "nonpayable",
      "type": "function"
    },
    {
      "inputs": [],
      "name": "getOwner",
      "outputs": [
        {
          "internalType": "address",
          "name": "",
          "type": "address"
        }
      ],
      "stateMutability": "view",
      "type": "function"
    },
    {
      "inputs": [
        {
          "internalType": "address",
          "name": "_userAddr",
          "type": "address"
        },
        {
          "internalType": "uint256",
          "name": "_exerciseID",
          "type": "uint256"
        }
      ],
      "name": "getStakingDetails",
      "outputs": [
        {
          "internalType": "uint256",
          "name": "",
          "type": "uint256"
        },
        {
          "internalType": "uint256",
          "name": "",
          "type": "uint256"
        },
        {
          "internalType": "uint256",
          "name": "",
          "type": "uint256"
        },
        {
          "internalType": "bool",
          "name": "",
          "type": "bool"
        },
        {
          "internalType": "uint256",
          "name": "",
          "type": "uint256"
        }
      ],
      "stateMutability": "view",
      "type": "function"
    },
    {
      "inputs": [
        {
          "internalType": "address",
          "name": "_userAddr",
          "type": "address"
        },
        {
          "internalType": "uint256",
          "name": "_exerciseID",
          "type": "uint256"
        }
      ],
      "name": "getTargetDone",
      "outputs": [
        {
          "internalType": "uint256",
          "name": "",
          "type": "uint256"
        }
      ],
      "stateMutability": "view",
      "type": "function"
    },
    {
      "inputs": [
        {
          "internalType": "uint256",
          "name": "_tokenID",
          "type": "uint256"
        }
      ],
      "name": "getTokenURI",
      "outputs": [
        {
          "internalType": "string",
          "name": "",
          "type": "string"
        }
      ],
      "stateMutability": "view",
      "type": "function"
    },
    {
      "inputs": [
        {
          "internalType": "address",
          "name": "owner",
          "type": "address"
        },
        {
          "internalType": "address",
          "name": "operator",
          "type": "address"
        }
      ],
      "name": "isApprovedForAll",
      "outputs": [
        {
          "internalType": "bool",
          "name": "",
          "type": "bool"
        }
      ],
      "stateMutability": "view",
      "type": "function"
    },
    {
      "inputs": [
        {
          "internalType": "address",
          "name": "to",
          "type": "address"
        }
      ],
      "name": "mint",
      "outputs": [],
      "stateMutability": "nonpayable",
      "type": "function"
    },
    {
      "inputs": [],
      "name": "name",
      "outputs": [
        {
          "internalType": "string",
          "name": "",
          "type": "string"
        }
      ],
      "stateMutability": "view",
      "type": "function"
    },
    {
      "inputs": [
        {
          "internalType": "uint256",
          "name": "tokenId",
          "type": "uint256"
        }
      ],
      "name": "ownerOf",
      "outputs": [
        {
          "internalType": "address",
          "name": "",
          "type": "address"
        }
      ],
      "stateMutability": "view",
      "type": "function"
    },
    {
      "inputs": [
        {
          "internalType": "uint256",
          "name": "exerciseID",
          "type": "uint256"
        },
        {
          "internalType": "address",
          "name": "userAddr",
          "type": "address"
        },
        {
          "internalType": "address",
          "name": "_charityAddr",
          "type": "address"
        }
      ],
      "name": "rewardMaticForExercise",
      "outputs": [],
      "stateMutability": "nonpayable",
      "type": "function"
    },
    {
      "inputs": [],
      "name": "rewardPool",
      "outputs": [
        {
          "internalType": "uint256",
          "name": "",
          "type": "uint256"
        }
      ],
      "stateMutability": "view",
      "type": "function"
    },
    {
      "inputs": [
        {
          "internalType": "address",
          "name": "from",
          "type": "address"
        },
        {
          "internalType": "address",
          "name": "to",
          "type": "address"
        },
        {
          "internalType": "uint256",
          "name": "tokenId",
          "type": "uint256"
        }
      ],
      "name": "safeTransferFrom",
      "outputs": [],
      "stateMutability": "nonpayable",
      "type": "function"
    },
    {
      "inputs": [
        {
          "internalType": "address",
          "name": "from",
          "type": "address"
        },
        {
          "internalType": "address",
          "name": "to",
          "type": "address"
        },
        {
          "internalType": "uint256",
          "name": "tokenId",
          "type": "uint256"
        },
        {
          "internalType": "bytes",
          "name": "data",
          "type": "bytes"
        }
      ],
      "name": "safeTransferFrom",
      "outputs": [],
      "stateMutability": "nonpayable",
      "type": "function"
    },
    {
      "inputs": [
        {
          "internalType": "address",
          "name": "operator",
          "type": "address"
        },
        {
          "internalType": "bool",
          "name": "approved",
          "type": "bool"
        }
      ],
      "name": "setApprovalForAll",
      "outputs": [],
      "stateMutability": "nonpayable",
      "type": "function"
    },
    {
      "inputs": [
        {
          "internalType": "uint256",
          "name": "_exerciseID",
          "type": "uint256"
        },
        {
          "internalType": "uint256",
          "name": "_target",
          "type": "uint256"
        }
      ],
      "name": "stakeMaticForExercise",
      "outputs": [],
      "stateMutability": "payable",
      "type": "function"
    },
    {
      "inputs": [
        {
          "internalType": "address",
          "name": "",
          "type": "address"
        },
        {
          "internalType": "uint256",
          "name": "",
          "type": "uint256"
        },
        {
          "internalType": "uint256",
          "name": "",
          "type": "uint256"
        }
      ],
      "name": "stakingDetails",
      "outputs": [
        {
          "internalType": "uint256",
          "name": "amount",
          "type": "uint256"
        },
        {
          "internalType": "uint256",
          "name": "target",
          "type": "uint256"
        },
        {
          "internalType": "uint256",
          "name": "targetDone",
          "type": "uint256"
        },
        {
          "internalType": "bool",
          "name": "isCompleted",
          "type": "bool"
        },
        {
          "internalType": "uint256",
          "name": "stakeDay",
          "type": "uint256"
        }
      ],
      "stateMutability": "view",
      "type": "function"
    },
    {
      "inputs": [
        {
          "internalType": "bytes4",
          "name": "interfaceId",
          "type": "bytes4"
        }
      ],
      "name": "supportsInterface",
      "outputs": [
        {
          "internalType": "bool",
          "name": "",
          "type": "bool"
        }
      ],
      "stateMutability": "view",
      "type": "function"
    },
    {
      "inputs": [],
      "name": "symbol",
      "outputs": [
        {
          "internalType": "string",
          "name": "",
          "type": "string"
        }
      ],
      "stateMutability": "view",
      "type": "function"
    },
    {
      "inputs": [
        {
          "internalType": "uint256",
          "name": "index",
          "type": "uint256"
        }
      ],
      "name": "tokenByIndex",
      "outputs": [
        {
          "internalType": "uint256",
          "name": "",
          "type": "uint256"
        }
      ],
      "stateMutability": "view",
      "type": "function"
    },
    {
      "inputs": [
        {
          "internalType": "address",
          "name": "owner",
          "type": "address"
        },
        {
          "internalType": "uint256",
          "name": "index",
          "type": "uint256"
        }
      ],
      "name": "tokenOfOwnerByIndex",
      "outputs": [
        {
          "internalType": "uint256",
          "name": "",
          "type": "uint256"
        }
      ],
      "stateMutability": "view",
      "type": "function"
    },
    {
      "inputs": [
        {
          "internalType": "uint256",
          "name": "tokenId",
          "type": "uint256"
        }
      ],
      "name": "tokenURI",
      "outputs": [
        {
          "internalType": "string",
          "name": "",
          "type": "string"
        }
      ],
      "stateMutability": "view",
      "type": "function"
    },
    {
      "inputs": [],
      "name": "totalSupply",
      "outputs": [
        {
          "internalType": "uint256",
          "name": "",
          "type": "uint256"
        }
      ],
      "stateMutability": "view",
      "type": "function"
    },
    {
      "inputs": [
        {
          "internalType": "address",
          "name": "from",
          "type": "address"
        },
        {
          "internalType": "address",
          "name": "to",
          "type": "address"
        },
        {
          "internalType": "uint256",
          "name": "tokenId",
          "type": "uint256"
        }
      ],
      "name": "transferFrom",
      "outputs": [],
      "stateMutability": "nonpayable",
      "type": "function"
    },
    {
      "inputs": [
        {
          "internalType": "uint256",
          "name": "_exerciseID",
          "type": "uint256"
        },
        {
          "internalType": "uint256",
          "name": "_targetDone",
          "type": "uint256"
        },
        {
          "internalType": "address",
          "name": "_userAddr",
          "type": "address"
        }
      ],
      "name": "updateTargetDone",
      "outputs": [],
      "stateMutability": "nonpayable",
      "type": "function"
    }
  ],
  "bytecode": "0x60806040526040518060400160405280602081526020017f68747470733a2f2f6b6974616968617a7572652e7265766973652e6c696e6b2f815250600b90805190602001906200005192919062000147565b503480156200005f57600080fd5b506040518060400160405280600b81526020017f44796e616d6963204e46540000000000000000000000000000000000000000008152506040518060400160405280600481526020017f644e4654000000000000000000000000000000000000000000000000000000008152508160009080519060200190620000e492919062000147565b508060019080519060200190620000fd92919062000147565b50505033600c60006101000a81548173ffffffffffffffffffffffffffffffffffffffff021916908373ffffffffffffffffffffffffffffffffffffffff1602179055506200025c565b828054620001559062000226565b90600052602060002090601f016020900481019282620001795760008555620001c5565b82601f106200019457805160ff1916838001178555620001c5565b82800160010185558215620001c5579182015b82811115620001c4578251825591602001919060010190620001a7565b5b509050620001d49190620001d8565b5090565b5b80821115620001f3576000816000905550600101620001d9565b5090565b7f4e487b7100000000000000000000000000000000000000000000000000000000600052602260045260246000fd5b600060028204905060018216806200023f57607f821691505b60208210811415620002565762000255620001f7565b5b50919050565b615231806200026c6000396000f3fe6080604052600436106101cd5760003560e01c8063695b2e34116100f7578063a22cb46511610095578063c87b56dd11610064578063c87b56dd146106b9578063e985e9c5146106f6578063ef1e7df314610733578063f851a4401461075e576101cd565b8063a22cb465146105e5578063a854b12b1461060e578063b88d4fde1461064f578063bc48565014610678576101cd565b806370a08231116100d157806370a08231146105295780637b147b6414610566578063893d20e81461058f57806395d89b41146105ba576101cd565b8063695b2e34146104be5780636a627842146104d55780636f9fb98a146104fe576101cd565b80632f745c591161016f5780634f6ccce71161013e5780634f6ccce7146103f0578063586ee4871461042d5780636352211e1461045657806366666aa914610493576101cd565b80632f745c591461031057806338fbde6d1461034d5780633bb3a24d1461038a57806342842e0e146103c7576101cd565b8063095ea7b3116101ab578063095ea7b31461027757806318160ddd146102a057806323b872dd146102cb5780632d7ea600146102f4576101cd565b806301ffc9a7146101d257806306fdde031461020f578063081812fc1461023a575b600080fd5b3480156101de57600080fd5b506101f960048036038101906101f49190613be1565b610789565b6040516102069190613c29565b60405180910390f35b34801561021b57600080fd5b5061022461079b565b6040516102319190613cdd565b60405180910390f35b34801561024657600080fd5b50610261600480360381019061025c9190613d35565b61082d565b60405161026e9190613da3565b60405180910390f35b34801561028357600080fd5b5061029e60048036038101906102999190613dea565b610873565b005b3480156102ac57600080fd5b506102b561098b565b6040516102c29190613e39565b60405180910390f35b3480156102d757600080fd5b506102f260048036038101906102ed9190613e54565b610998565b005b61030e60048036038101906103099190613ea7565b6109f8565b005b34801561031c57600080fd5b5061033760048036038101906103329190613dea565b610cf3565b6040516103449190613e39565b60405180910390f35b34801561035957600080fd5b50610374600480360381019061036f9190613dea565b610d98565b6040516103819190613e39565b60405180910390f35b34801561039657600080fd5b506103b160048036038101906103ac9190613d35565b610f5e565b6040516103be9190613cdd565b60405180910390f35b3480156103d357600080fd5b506103ee60048036038101906103e99190613e54565b610f70565b005b3480156103fc57600080fd5b5061041760048036038101906104129190613d35565b610f90565b6040516104249190613e39565b60405180910390f35b34801561043957600080fd5b50610454600480360381019061044f9190613ee7565b611001565b005b34801561046257600080fd5b5061047d60048036038101906104789190613d35565b61178d565b60405161048a9190613da3565b60405180910390f35b34801561049f57600080fd5b506104a8611814565b6040516104b59190613e39565b60405180910390f35b3480156104ca57600080fd5b506104d361181a565b005b3480156104e157600080fd5b506104fc60048036038101906104f79190613f3a565b611964565b005b34801561050a57600080fd5b5061051361198a565b6040516105209190613e39565b60405180910390f35b34801561053557600080fd5b50610550600480360381019061054b9190613f3a565b611a22565b60405161055d9190613e39565b60405180910390f35b34801561057257600080fd5b5061058d60048036038101906105889190613f67565b611ada565b005b34801561059b57600080fd5b506105a461212b565b6040516105b19190613da3565b60405180910390f35b3480156105c657600080fd5b506105cf612155565b6040516105dc9190613cdd565b60405180910390f35b3480156105f157600080fd5b5061060c60048036038101906106079190613fe6565b6121e7565b005b34801561061a57600080fd5b5061063560048036038101906106309190614026565b6121fd565b604051610646959493929190614079565b60405180910390f35b34801561065b57600080fd5b5061067660048036038101906106719190614201565b61226a565b005b34801561068457600080fd5b5061069f600480360381019061069a9190613dea565b6122cc565b6040516106b0959493929190614079565b60405180910390f35b3480156106c557600080fd5b506106e060048036038101906106db9190613d35565b6124b8565b6040516106ed9190613cdd565b60405180910390f35b34801561070257600080fd5b5061071d60048036038101906107189190614284565b612520565b60405161072a9190613c29565b60405180910390f35b34801561073f57600080fd5b506107486125b4565b6040516107559190613e39565b60405180910390f35b34801561076a57600080fd5b506107736125d1565b6040516107809190613da3565b60405180910390f35b6000610794826125f7565b9050919050565b6060600080546107aa906142f3565b80601f01602080910402602001604051908101604052809291908181526020018280546107d6906142f3565b80156108235780601f106107f857610100808354040283529160200191610823565b820191906000526020600020905b81548152906001019060200180831161080657829003601f168201915b5050505050905090565b600061083882612671565b6004600083815260200190815260200160002060009054906101000a900473ffffffffffffffffffffffffffffffffffffffff169050919050565b600061087e8261178d565b90508073ffffffffffffffffffffffffffffffffffffffff168373ffffffffffffffffffffffffffffffffffffffff1614156108ef576040517f08c379a00000000000000000000000000000000000000000000000000000000081526004016108e690614397565b60405180910390fd5b8073ffffffffffffffffffffffffffffffffffffffff1661090e6126bc565b73ffffffffffffffffffffffffffffffffffffffff16148061093d575061093c816109376126bc565b612520565b5b61097c576040517f08c379a000000000000000000000000000000000000000000000000000000000815260040161097390614429565b60405180910390fd5b61098683836126c4565b505050565b6000600880549050905090565b6109a96109a36126bc565b8261277d565b6109e8576040517f08c379a00000000000000000000000000000000000000000000000000000000081526004016109df906144bb565b60405180910390fd5b6109f3838383612812565b505050565b60003411610a3b576040517f08c379a0000000000000000000000000000000000000000000000000000000008152600401610a3290614527565b60405180910390fd5b60058111610a7e576040517f08c379a0000000000000000000000000000000000000000000000000000000008152600401610a7590614593565b60405180910390fd5b6000600e60003373ffffffffffffffffffffffffffffffffffffffff1673ffffffffffffffffffffffffffffffffffffffff1681526020019081526020016000206000848152602001908152602001600020805490501115610c015760011515600e60003373ffffffffffffffffffffffffffffffffffffffff1673ffffffffffffffffffffffffffffffffffffffff16815260200190815260200160002060008481526020019081526020016000206001600e60003373ffffffffffffffffffffffffffffffffffffffff1673ffffffffffffffffffffffffffffffffffffffff168152602001908152602001600020600086815260200190815260200160002080549050610b8e91906145e2565b81548110610b9f57610b9e614616565b5b906000526020600020906005020160030160009054906101000a900460ff16151514610c00576040517f08c379a0000000000000000000000000000000000000000000000000000000008152600401610bf7906146b7565b60405180910390fd5b5b600e60003373ffffffffffffffffffffffffffffffffffffffff1673ffffffffffffffffffffffffffffffffffffffff16815260200190815260200160002060008381526020019081526020016000206040518060a001604052803481526020018381526020016000815260200160001515815260200142815250908060018154018082558091505060019003906000526020600020906005020160009091909190915060008201518160000155602082015181600101556040820151816002015560608201518160030160006101000a81548160ff0219169083151502179055506080820151816004015550505050565b6000610cfe83611a22565b8210610d3f576040517f08c379a0000000000000000000000000000000000000000000000000000000008152600401610d3690614749565b60405180910390fd5b600660008473ffffffffffffffffffffffffffffffffffffffff1673ffffffffffffffffffffffffffffffffffffffff168152602001908152602001600020600083815260200190815260200160002054905092915050565b600080600e60008573ffffffffffffffffffffffffffffffffffffffff1673ffffffffffffffffffffffffffffffffffffffff16815260200190815260200160002060008481526020019081526020016000208054905011610e2f576040517f08c379a0000000000000000000000000000000000000000000000000000000008152600401610e26906147b5565b60405180910390fd5b6000600e60008573ffffffffffffffffffffffffffffffffffffffff1673ffffffffffffffffffffffffffffffffffffffff16815260200190815260200160002060008481526020019081526020016000206001600e60008773ffffffffffffffffffffffffffffffffffffffff1673ffffffffffffffffffffffffffffffffffffffff168152602001908152602001600020600086815260200190815260200160002080549050610ee191906145e2565b81548110610ef257610ef1614616565b5b90600052602060002090600502016040518060a00160405290816000820154815260200160018201548152602001600282015481526020016003820160009054906101000a900460ff161515151581526020016004820154815250509050806040015191505092915050565b6060610f69826124b8565b9050919050565b610f8b8383836040518060200160405280600081525061226a565b505050565b6000610f9a61098b565b8210610fdb576040517f08c379a0000000000000000000000000000000000000000000000000000000008152600401610fd290614847565b60405180910390fd5b60088281548110610fef57610fee614616565b5b90600052602060002001549050919050565b6000600e60008473ffffffffffffffffffffffffffffffffffffffff1673ffffffffffffffffffffffffffffffffffffffff16815260200190815260200160002060008581526020019081526020016000208054905011611097576040517f08c379a000000000000000000000000000000000000000000000000000000000815260040161108e906148b3565b60405180910390fd5b60001515600e60008473ffffffffffffffffffffffffffffffffffffffff1673ffffffffffffffffffffffffffffffffffffffff16815260200190815260200160002060008581526020019081526020016000206001600e60008673ffffffffffffffffffffffffffffffffffffffff1673ffffffffffffffffffffffffffffffffffffffff16815260200190815260200160002060008781526020019081526020016000208054905061114b91906145e2565b8154811061115c5761115b614616565b5b906000526020600020906005020160030160009054906101000a900460ff161515146111bd576040517f08c379a00000000000000000000000000000000000000000000000000000000081526004016111b49061491f565b60405180910390fd5b6000600e60008473ffffffffffffffffffffffffffffffffffffffff1673ffffffffffffffffffffffffffffffffffffffff16815260200190815260200160002060008581526020019081526020016000206001600e60008673ffffffffffffffffffffffffffffffffffffffff1673ffffffffffffffffffffffffffffffffffffffff16815260200190815260200160002060008781526020019081526020016000208054905061126f91906145e2565b815481106112805761127f614616565b5b90600052602060002090600502016040518060a00160405290816000820154815260200160018201548152602001600282015481526020016003820160009054906101000a900460ff161515151581526020016004820154815250509050600081600001519050600e60008573ffffffffffffffffffffffffffffffffffffffff1673ffffffffffffffffffffffffffffffffffffffff16815260200190815260200160002060008681526020019081526020016000206040518060a00160405280600e60008873ffffffffffffffffffffffffffffffffffffffff1673ffffffffffffffffffffffffffffffffffffffff16815260200190815260200160002060008981526020019081526020016000206001600e60008a73ffffffffffffffffffffffffffffffffffffffff1673ffffffffffffffffffffffffffffffffffffffff16815260200190815260200160002060008b8152602001908152602001600020805490506113f291906145e2565b8154811061140357611402614616565b5b9060005260206000209060050201600001548152602001600e60008873ffffffffffffffffffffffffffffffffffffffff1673ffffffffffffffffffffffffffffffffffffffff16815260200190815260200160002060008981526020019081526020016000206001600e60008a73ffffffffffffffffffffffffffffffffffffffff1673ffffffffffffffffffffffffffffffffffffffff16815260200190815260200160002060008b8152602001908152602001600020805490506114ca91906145e2565b815481106114db576114da614616565b5b9060005260206000209060050201600101548152602001600e60008873ffffffffffffffffffffffffffffffffffffffff1673ffffffffffffffffffffffffffffffffffffffff16815260200190815260200160002060008981526020019081526020016000206001600e60008a73ffffffffffffffffffffffffffffffffffffffff1673ffffffffffffffffffffffffffffffffffffffff16815260200190815260200160002060008b8152602001908152602001600020805490506115a291906145e2565b815481106115b3576115b2614616565b5b906000526020600020906005020160020154815260200160011515815260200142815250908060018154018082558091505060019003906000526020600020906005020160009091909190915060008201518160000155602082015181600101556040820151816002015560608201518160030160006101000a81548160ff02191690831515021790555060808201518160040155505081602001518260400151106116ae5761166284611964565b8373ffffffffffffffffffffffffffffffffffffffff166108fc829081150290604051600060405180830381858888f193505050501580156116a8573d6000803e3d6000fd5b50611786565b60006004826116bd919061496e565b905080600d546116cd919061499f565b600d819055508473ffffffffffffffffffffffffffffffffffffffff166108fc82846116f991906145e2565b9081150290604051600060405180830381858888f19350505050158015611724573d6000803e3d6000fd5b508373ffffffffffffffffffffffffffffffffffffffff166108fc600a60098461174e91906149f5565b611758919061496e565b9081150290604051600060405180830381858888f19350505050158015611783573d6000803e3d6000fd5b50505b5050505050565b60008061179983612b0c565b9050600073ffffffffffffffffffffffffffffffffffffffff168173ffffffffffffffffffffffffffffffffffffffff16141561180b576040517f08c379a000000000000000000000000000000000000000000000000000000000815260040161180290614a9b565b60405180910390fd5b80915050919050565b600d5481565b3373ffffffffffffffffffffffffffffffffffffffff16600c60009054906101000a900473ffffffffffffffffffffffffffffffffffffffff1673ffffffffffffffffffffffffffffffffffffffff16146118aa576040517f08c379a00000000000000000000000000000000000000000000000000000000081526004016118a190614b07565b60405180910390fd5b6000600d54116118ef576040517f08c379a00000000000000000000000000000000000000000000000000000000081526004016118e690614b73565b60405180910390fd5b600c60009054906101000a900473ffffffffffffffffffffffffffffffffffffffff1673ffffffffffffffffffffffffffffffffffffffff166108fc600d549081150290604051600060405180830381858888f19350505050158015611959573d6000803e3d6000fd5b506000600d81905550565b6000611970600a612b49565b905061197c600a612b57565b6119868282612b6d565b5050565b60003373ffffffffffffffffffffffffffffffffffffffff16600c60009054906101000a900473ffffffffffffffffffffffffffffffffffffffff1673ffffffffffffffffffffffffffffffffffffffff1614611a1c576040517f08c379a0000000000000000000000000000000000000000000000000000000008152600401611a1390614b07565b60405180910390fd5b47905090565b60008073ffffffffffffffffffffffffffffffffffffffff168273ffffffffffffffffffffffffffffffffffffffff161415611a93576040517f08c379a0000000000000000000000000000000000000000000000000000000008152600401611a8a90614c05565b60405180910390fd5b600360008373ffffffffffffffffffffffffffffffffffffffff1673ffffffffffffffffffffffffffffffffffffffff168152602001908152602001600020549050919050565b6000600e60008373ffffffffffffffffffffffffffffffffffffffff1673ffffffffffffffffffffffffffffffffffffffff16815260200190815260200160002060008581526020019081526020016000208054905011611b70576040517f08c379a0000000000000000000000000000000000000000000000000000000008152600401611b67906148b3565b60405180910390fd5b60001515600e60008373ffffffffffffffffffffffffffffffffffffffff1673ffffffffffffffffffffffffffffffffffffffff16815260200190815260200160002060008581526020019081526020016000206001600e60008573ffffffffffffffffffffffffffffffffffffffff1673ffffffffffffffffffffffffffffffffffffffff168152602001908152602001600020600087815260200190815260200160002080549050611c2491906145e2565b81548110611c3557611c34614616565b5b906000526020600020906005020160030160009054906101000a900460ff16151514611c96576040517f08c379a0000000000000000000000000000000000000000000000000000000008152600401611c8d90614c71565b60405180910390fd5b62015180600e60008373ffffffffffffffffffffffffffffffffffffffff1673ffffffffffffffffffffffffffffffffffffffff16815260200190815260200160002060008581526020019081526020016000206001600e60008573ffffffffffffffffffffffffffffffffffffffff1673ffffffffffffffffffffffffffffffffffffffff168152602001908152602001600020600087815260200190815260200160002080549050611d4a91906145e2565b81548110611d5b57611d5a614616565b5b90600052602060002090600502016004015442611d7891906145e2565b10611db8576040517f08c379a0000000000000000000000000000000000000000000000000000000008152600401611daf90614cdd565b60405180910390fd5b600e60008273ffffffffffffffffffffffffffffffffffffffff1673ffffffffffffffffffffffffffffffffffffffff16815260200190815260200160002060008481526020019081526020016000206040518060a00160405280600e60008573ffffffffffffffffffffffffffffffffffffffff1673ffffffffffffffffffffffffffffffffffffffff16815260200190815260200160002060008781526020019081526020016000206001600e60008773ffffffffffffffffffffffffffffffffffffffff1673ffffffffffffffffffffffffffffffffffffffff168152602001908152602001600020600089815260200190815260200160002080549050611ec391906145e2565b81548110611ed457611ed3614616565b5b9060005260206000209060050201600001548152602001600e60008573ffffffffffffffffffffffffffffffffffffffff1673ffffffffffffffffffffffffffffffffffffffff16815260200190815260200160002060008781526020019081526020016000206001600e60008773ffffffffffffffffffffffffffffffffffffffff1673ffffffffffffffffffffffffffffffffffffffff168152602001908152602001600020600089815260200190815260200160002080549050611f9b91906145e2565b81548110611fac57611fab614616565b5b906000526020600020906005020160010154815260200184600e60008673ffffffffffffffffffffffffffffffffffffffff1673ffffffffffffffffffffffffffffffffffffffff16815260200190815260200160002060008881526020019081526020016000206001600e60008873ffffffffffffffffffffffffffffffffffffffff1673ffffffffffffffffffffffffffffffffffffffff16815260200190815260200160002060008a81526020019081526020016000208054905061207491906145e2565b8154811061208557612084614616565b5b9060005260206000209060050201600201546120a1919061499f565b815260200160001515815260200142815250908060018154018082558091505060019003906000526020600020906005020160009091909190915060008201518160000155602082015181600101556040820151816002015560608201518160030160006101000a81548160ff021916908315150217905550608082015181600401555050505050565b6000600c60009054906101000a900473ffffffffffffffffffffffffffffffffffffffff16905090565b606060018054612164906142f3565b80601f0160208091040260200160405190810160405280929190818152602001828054612190906142f3565b80156121dd5780601f106121b2576101008083540402835291602001916121dd565b820191906000526020600020905b8154815290600101906020018083116121c057829003601f168201915b5050505050905090565b6121f96121f26126bc565b8383612b8b565b5050565b600e602052826000526040600020602052816000526040600020818154811061222557600080fd5b906000526020600020906005020160009250925050508060000154908060010154908060020154908060030160009054906101000a900460ff16908060040154905085565b61227b6122756126bc565b8361277d565b6122ba576040517f08c379a00000000000000000000000000000000000000000000000000000000081526004016122b1906144bb565b60405180910390fd5b6122c684848484612cf8565b50505050565b600080600080600080600e60008973ffffffffffffffffffffffffffffffffffffffff1673ffffffffffffffffffffffffffffffffffffffff16815260200190815260200160002060008881526020019081526020016000208054905011612369576040517f08c379a0000000000000000000000000000000000000000000000000000000008152600401612360906147b5565b60405180910390fd5b6000600e60008973ffffffffffffffffffffffffffffffffffffffff1673ffffffffffffffffffffffffffffffffffffffff16815260200190815260200160002060008881526020019081526020016000206001600e60008b73ffffffffffffffffffffffffffffffffffffffff1673ffffffffffffffffffffffffffffffffffffffff16815260200190815260200160002060008a81526020019081526020016000208054905061241b91906145e2565b8154811061242c5761242b614616565b5b90600052602060002090600502016040518060a00160405290816000820154815260200160018201548152602001600282015481526020016003820160009054906101000a900460ff1615151515815260200160048201548152505090508060000151816020015182604001518360600151846080015195509550955095509550509295509295909350565b60606124c382612671565b60006124cd612d54565b905060008151116124ed5760405180602001604052806000815250612518565b806124f784612de6565b604051602001612508929190614d39565b6040516020818303038152906040525b915050919050565b6000600560008473ffffffffffffffffffffffffffffffffffffffff1673ffffffffffffffffffffffffffffffffffffffff16815260200190815260200160002060008373ffffffffffffffffffffffffffffffffffffffff1673ffffffffffffffffffffffffffffffffffffffff16815260200190815260200160002060009054906101000a900460ff16905092915050565b600060016125c2600a612b49565b6125cc91906145e2565b905090565b600c60009054906101000a900473ffffffffffffffffffffffffffffffffffffffff1681565b60007f780e9d63000000000000000000000000000000000000000000000000000000007bffffffffffffffffffffffffffffffffffffffffffffffffffffffff1916827bffffffffffffffffffffffffffffffffffffffffffffffffffffffff1916148061266a575061266982612ebe565b5b9050919050565b61267a81612fa0565b6126b9576040517f08c379a00000000000000000000000000000000000000000000000000000000081526004016126b090614a9b565b60405180910390fd5b50565b600033905090565b816004600083815260200190815260200160002060006101000a81548173ffffffffffffffffffffffffffffffffffffffff021916908373ffffffffffffffffffffffffffffffffffffffff160217905550808273ffffffffffffffffffffffffffffffffffffffff166127378361178d565b73ffffffffffffffffffffffffffffffffffffffff167f8c5be1e5ebec7d5bd14f71427d1e84f3dd0314c0f7b2291e5b200ac8c7c3b92560405160405180910390a45050565b6000806127898361178d565b90508073ffffffffffffffffffffffffffffffffffffffff168473ffffffffffffffffffffffffffffffffffffffff1614806127cb57506127ca8185612520565b5b8061280957508373ffffffffffffffffffffffffffffffffffffffff166127f18461082d565b73ffffffffffffffffffffffffffffffffffffffff16145b91505092915050565b8273ffffffffffffffffffffffffffffffffffffffff166128328261178d565b73ffffffffffffffffffffffffffffffffffffffff1614612888576040517f08c379a000000000000000000000000000000000000000000000000000000000815260040161287f90614dcf565b60405180910390fd5b600073ffffffffffffffffffffffffffffffffffffffff168273ffffffffffffffffffffffffffffffffffffffff1614156128f8576040517f08c379a00000000000000000000000000000000000000000000000000000000081526004016128ef90614e61565b60405180910390fd5b6129058383836001612fe1565b8273ffffffffffffffffffffffffffffffffffffffff166129258261178d565b73ffffffffffffffffffffffffffffffffffffffff161461297b576040517f08c379a000000000000000000000000000000000000000000000000000000000815260040161297290614dcf565b60405180910390fd5b6004600082815260200190815260200160002060006101000a81549073ffffffffffffffffffffffffffffffffffffffff02191690556001600360008573ffffffffffffffffffffffffffffffffffffffff1673ffffffffffffffffffffffffffffffffffffffff168152602001908152602001600020600082825403925050819055506001600360008473ffffffffffffffffffffffffffffffffffffffff1673ffffffffffffffffffffffffffffffffffffffff16815260200190815260200160002060008282540192505081905550816002600083815260200190815260200160002060006101000a81548173ffffffffffffffffffffffffffffffffffffffff021916908373ffffffffffffffffffffffffffffffffffffffff160217905550808273ffffffffffffffffffffffffffffffffffffffff168473ffffffffffffffffffffffffffffffffffffffff167fddf252ad1be2c89b69c2b068fc378daa952ba7f163c4a11628f55a4df523b3ef60405160405180910390a4612b078383836001612ff3565b505050565b60006002600083815260200190815260200160002060009054906101000a900473ffffffffffffffffffffffffffffffffffffffff169050919050565b600081600001549050919050565b6001816000016000828254019250508190555050565b612b87828260405180602001604052806000815250612ff9565b5050565b8173ffffffffffffffffffffffffffffffffffffffff168373ffffffffffffffffffffffffffffffffffffffff161415612bfa576040517f08c379a0000000000000000000000000000000000000000000000000000000008152600401612bf190614ecd565b60405180910390fd5b80600560008573ffffffffffffffffffffffffffffffffffffffff1673ffffffffffffffffffffffffffffffffffffffff16815260200190815260200160002060008473ffffffffffffffffffffffffffffffffffffffff1673ffffffffffffffffffffffffffffffffffffffff16815260200190815260200160002060006101000a81548160ff0219169083151502179055508173ffffffffffffffffffffffffffffffffffffffff168373ffffffffffffffffffffffffffffffffffffffff167f17307eab39ab6107e8899845ad3d59bd9653f200f220920489ca2b5937696c3183604051612ceb9190613c29565b60405180910390a3505050565b612d03848484612812565b612d0f84848484613054565b612d4e576040517f08c379a0000000000000000000000000000000000000000000000000000000008152600401612d4590614f5f565b60405180910390fd5b50505050565b6060600b8054612d63906142f3565b80601f0160208091040260200160405190810160405280929190818152602001828054612d8f906142f3565b8015612ddc5780601f10612db157610100808354040283529160200191612ddc565b820191906000526020600020905b815481529060010190602001808311612dbf57829003601f168201915b5050505050905090565b606060006001612df5846131eb565b01905060008167ffffffffffffffff811115612e1457612e136140d6565b5b6040519080825280601f01601f191660200182016040528015612e465781602001600182028036833780820191505090505b509050600082602001820190505b600115612eb3578080600190039150507f3031323334353637383961626364656600000000000000000000000000000000600a86061a8153600a8581612e9d57612e9c61493f565b5b0494506000851415612eae57612eb3565b612e54565b819350505050919050565b60007f80ac58cd000000000000000000000000000000000000000000000000000000007bffffffffffffffffffffffffffffffffffffffffffffffffffffffff1916827bffffffffffffffffffffffffffffffffffffffffffffffffffffffff19161480612f8957507f5b5e139f000000000000000000000000000000000000000000000000000000007bffffffffffffffffffffffffffffffffffffffffffffffffffffffff1916827bffffffffffffffffffffffffffffffffffffffffffffffffffffffff1916145b80612f995750612f988261333e565b5b9050919050565b60008073ffffffffffffffffffffffffffffffffffffffff16612fc283612b0c565b73ffffffffffffffffffffffffffffffffffffffff1614159050919050565b612fed848484846133a8565b50505050565b50505050565b6130038383613508565b6130106000848484613054565b61304f576040517f08c379a000000000000000000000000000000000000000000000000000000000815260040161304690614f5f565b60405180910390fd5b505050565b60006130758473ffffffffffffffffffffffffffffffffffffffff16613726565b156131de578373ffffffffffffffffffffffffffffffffffffffff1663150b7a0261309e6126bc565b8786866040518563ffffffff1660e01b81526004016130c09493929190614fd4565b602060405180830381600087803b1580156130da57600080fd5b505af192505050801561310b57506040513d601f19601f820116820180604052508101906131089190615035565b60015b61318e573d806000811461313b576040519150601f19603f3d011682016040523d82523d6000602084013e613140565b606091505b50600081511415613186576040517f08c379a000000000000000000000000000000000000000000000000000000000815260040161317d90614f5f565b60405180910390fd5b805181602001fd5b63150b7a0260e01b7bffffffffffffffffffffffffffffffffffffffffffffffffffffffff1916817bffffffffffffffffffffffffffffffffffffffffffffffffffffffff1916149150506131e3565b600190505b949350505050565b600080600090507a184f03e93ff9f4daa797ed6e38ed64bf6a1f0100000000000000008310613249577a184f03e93ff9f4daa797ed6e38ed64bf6a1f010000000000000000838161323f5761323e61493f565b5b0492506040810190505b6d04ee2d6d415b85acef81000000008310613286576d04ee2d6d415b85acef8100000000838161327c5761327b61493f565b5b0492506020810190505b662386f26fc1000083106132b557662386f26fc1000083816132ab576132aa61493f565b5b0492506010810190505b6305f5e10083106132de576305f5e10083816132d4576132d361493f565b5b0492506008810190505b61271083106133035761271083816132f9576132f861493f565b5b0492506004810190505b60648310613326576064838161331c5761331b61493f565b5b0492506002810190505b600a8310613335576001810190505b80915050919050565b60007f01ffc9a7000000000000000000000000000000000000000000000000000000007bffffffffffffffffffffffffffffffffffffffffffffffffffffffff1916827bffffffffffffffffffffffffffffffffffffffffffffffffffffffff1916149050919050565b6133b484848484613749565b60018111156133f8576040517f08c379a00000000000000000000000000000000000000000000000000000000081526004016133ef906150d4565b60405180910390fd5b6000829050600073ffffffffffffffffffffffffffffffffffffffff168573ffffffffffffffffffffffffffffffffffffffff1614156134405761343b8161386f565b61347f565b8373ffffffffffffffffffffffffffffffffffffffff168573ffffffffffffffffffffffffffffffffffffffff161461347e5761347d85826138b8565b5b5b600073ffffffffffffffffffffffffffffffffffffffff168473ffffffffffffffffffffffffffffffffffffffff1614156134c2576134bd81613a25565b613501565b8473ffffffffffffffffffffffffffffffffffffffff168473ffffffffffffffffffffffffffffffffffffffff1614613500576134ff8482613af6565b5b5b5050505050565b600073ffffffffffffffffffffffffffffffffffffffff168273ffffffffffffffffffffffffffffffffffffffff161415613578576040517f08c379a000000000000000000000000000000000000000000000000000000000815260040161356f90615140565b60405180910390fd5b61358181612fa0565b156135c1576040517f08c379a00000000000000000000000000000000000000000000000000000000081526004016135b8906151ac565b60405180910390fd5b6135cf600083836001612fe1565b6135d881612fa0565b15613618576040517f08c379a000000000000000000000000000000000000000000000000000000000815260040161360f906151ac565b60405180910390fd5b6001600360008473ffffffffffffffffffffffffffffffffffffffff1673ffffffffffffffffffffffffffffffffffffffff16815260200190815260200160002060008282540192505081905550816002600083815260200190815260200160002060006101000a81548173ffffffffffffffffffffffffffffffffffffffff021916908373ffffffffffffffffffffffffffffffffffffffff160217905550808273ffffffffffffffffffffffffffffffffffffffff16600073ffffffffffffffffffffffffffffffffffffffff167fddf252ad1be2c89b69c2b068fc378daa952ba7f163c4a11628f55a4df523b3ef60405160405180910390a4613722600083836001612ff3565b5050565b6000808273ffffffffffffffffffffffffffffffffffffffff163b119050919050565b600181111561386957600073ffffffffffffffffffffffffffffffffffffffff168473ffffffffffffffffffffffffffffffffffffffff16146137dd5780600360008673ffffffffffffffffffffffffffffffffffffffff1673ffffffffffffffffffffffffffffffffffffffff16815260200190815260200160002060008282546137d591906145e2565b925050819055505b600073ffffffffffffffffffffffffffffffffffffffff168373ffffffffffffffffffffffffffffffffffffffff16146138685780600360008573ffffffffffffffffffffffffffffffffffffffff1673ffffffffffffffffffffffffffffffffffffffff1681526020019081526020016000206000828254613860919061499f565b925050819055505b5b50505050565b6008805490506009600083815260200190815260200160002081905550600881908060018154018082558091505060019003906000526020600020016000909190919091505550565b600060016138c584611a22565b6138cf91906145e2565b90506000600760008481526020019081526020016000205490508181146139b4576000600660008673ffffffffffffffffffffffffffffffffffffffff1673ffffffffffffffffffffffffffffffffffffffff168152602001908152602001600020600084815260200190815260200160002054905080600660008773ffffffffffffffffffffffffffffffffffffffff1673ffffffffffffffffffffffffffffffffffffffff168152602001908152602001600020600084815260200190815260200160002081905550816007600083815260200190815260200160002081905550505b6007600084815260200190815260200160002060009055600660008573ffffffffffffffffffffffffffffffffffffffff1673ffffffffffffffffffffffffffffffffffffffff16815260200190815260200160002060008381526020019081526020016000206000905550505050565b60006001600880549050613a3991906145e2565b9050600060096000848152602001908152602001600020549050600060088381548110613a6957613a68614616565b5b906000526020600020015490508060088381548110613a8b57613a8a614616565b5b906000526020600020018190555081600960008381526020019081526020016000208190555060096000858152602001908152602001600020600090556008805480613ada57613ad96151cc565b5b6001900381819060005260206000200160009055905550505050565b6000613b0183611a22565b905081600660008573ffffffffffffffffffffffffffffffffffffffff1673ffffffffffffffffffffffffffffffffffffffff168152602001908152602001600020600083815260200190815260200160002081905550806007600084815260200190815260200160002081905550505050565b6000604051905090565b600080fd5b600080fd5b60007fffffffff0000000000000000000000000000000000000000000000000000000082169050919050565b613bbe81613b89565b8114613bc957600080fd5b50565b600081359050613bdb81613bb5565b92915050565b600060208284031215613bf757613bf6613b7f565b5b6000613c0584828501613bcc565b91505092915050565b60008115159050919050565b613c2381613c0e565b82525050565b6000602082019050613c3e6000830184613c1a565b92915050565b600081519050919050565b600082825260208201905092915050565b60005b83811015613c7e578082015181840152602081019050613c63565b83811115613c8d576000848401525b50505050565b6000601f19601f8301169050919050565b6000613caf82613c44565b613cb98185613c4f565b9350613cc9818560208601613c60565b613cd281613c93565b840191505092915050565b60006020820190508181036000830152613cf78184613ca4565b905092915050565b6000819050919050565b613d1281613cff565b8114613d1d57600080fd5b50565b600081359050613d2f81613d09565b92915050565b600060208284031215613d4b57613d4a613b7f565b5b6000613d5984828501613d20565b91505092915050565b600073ffffffffffffffffffffffffffffffffffffffff82169050919050565b6000613d8d82613d62565b9050919050565b613d9d81613d82565b82525050565b6000602082019050613db86000830184613d94565b92915050565b613dc781613d82565b8114613dd257600080fd5b50565b600081359050613de481613dbe565b92915050565b60008060408385031215613e0157613e00613b7f565b5b6000613e0f85828601613dd5565b9250506020613e2085828601613d20565b9150509250929050565b613e3381613cff565b82525050565b6000602082019050613e4e6000830184613e2a565b92915050565b600080600060608486031215613e6d57613e6c613b7f565b5b6000613e7b86828701613dd5565b9350506020613e8c86828701613dd5565b9250506040613e9d86828701613d20565b9150509250925092565b60008060408385031215613ebe57613ebd613b7f565b5b6000613ecc85828601613d20565b9250506020613edd85828601613d20565b9150509250929050565b600080600060608486031215613f0057613eff613b7f565b5b6000613f0e86828701613d20565b9350506020613f1f86828701613dd5565b9250506040613f3086828701613dd5565b9150509250925092565b600060208284031215613f5057613f4f613b7f565b5b6000613f5e84828501613dd5565b91505092915050565b600080600060608486031215613f8057613f7f613b7f565b5b6000613f8e86828701613d20565b9350506020613f9f86828701613d20565b9250506040613fb086828701613dd5565b9150509250925092565b613fc381613c0e565b8114613fce57600080fd5b50565b600081359050613fe081613fba565b92915050565b60008060408385031215613ffd57613ffc613b7f565b5b600061400b85828601613dd5565b925050602061401c85828601613fd1565b9150509250929050565b60008060006060848603121561403f5761403e613b7f565b5b600061404d86828701613dd5565b935050602061405e86828701613d20565b925050604061406f86828701613d20565b9150509250925092565b600060a08201905061408e6000830188613e2a565b61409b6020830187613e2a565b6140a86040830186613e2a565b6140b56060830185613c1a565b6140c26080830184613e2a565b9695505050505050565b600080fd5b600080fd5b7f4e487b7100000000000000000000000000000000000000000000000000000000600052604160045260246000fd5b61410e82613c93565b810181811067ffffffffffffffff8211171561412d5761412c6140d6565b5b80604052505050565b6000614140613b75565b905061414c8282614105565b919050565b600067ffffffffffffffff82111561416c5761416b6140d6565b5b61417582613c93565b9050602081019050919050565b82818337600083830152505050565b60006141a461419f84614151565b614136565b9050828152602081018484840111156141c0576141bf6140d1565b5b6141cb848285614182565b509392505050565b600082601f8301126141e8576141e76140cc565b5b81356141f8848260208601614191565b91505092915050565b6000806000806080858703121561421b5761421a613b7f565b5b600061422987828801613dd5565b945050602061423a87828801613dd5565b935050604061424b87828801613d20565b925050606085013567ffffffffffffffff81111561426c5761426b613b84565b5b614278878288016141d3565b91505092959194509250565b6000806040838503121561429b5761429a613b7f565b5b60006142a985828601613dd5565b92505060206142ba85828601613dd5565b9150509250929050565b7f4e487b7100000000000000000000000000000000000000000000000000000000600052602260045260246000fd5b6000600282049050600182168061430b57607f821691505b6020821081141561431f5761431e6142c4565b5b50919050565b7f4552433732313a20617070726f76616c20746f2063757272656e74206f776e6560008201527f7200000000000000000000000000000000000000000000000000000000000000602082015250565b6000614381602183613c4f565b915061438c82614325565b604082019050919050565b600060208201905081810360008301526143b081614374565b9050919050565b7f4552433732313a20617070726f76652063616c6c6572206973206e6f7420746f60008201527f6b656e206f776e6572206f7220617070726f76656420666f7220616c6c000000602082015250565b6000614413603d83613c4f565b915061441e826143b7565b604082019050919050565b6000602082019050818103600083015261444281614406565b9050919050565b7f4552433732313a2063616c6c6572206973206e6f7420746f6b656e206f776e6560008201527f72206f7220617070726f76656400000000000000000000000000000000000000602082015250565b60006144a5602d83613c4f565b91506144b082614449565b604082019050919050565b600060208201905081810360008301526144d481614498565b9050919050565b7f416d6f756e742073686f756c642062652067726561746572207468616e203000600082015250565b6000614511601f83613c4f565b915061451c826144db565b602082019050919050565b6000602082019050818103600083015261454081614504565b9050919050565b7f5461726765742073686f756c642062652067726561746572207468616e203500600082015250565b600061457d601f83613c4f565b915061458882614547565b602082019050919050565b600060208201905081810360008301526145ac81614570565b9050919050565b7f4e487b7100000000000000000000000000000000000000000000000000000000600052601160045260246000fd5b60006145ed82613cff565b91506145f883613cff565b92508282101561460b5761460a6145b3565b5b828203905092915050565b7f4e487b7100000000000000000000000000000000000000000000000000000000600052603260045260246000fd5b7f50726576696f7573207374616b696e67206973206e6f7420636f6d706c65746560008201527f6400000000000000000000000000000000000000000000000000000000000000602082015250565b60006146a1602183613c4f565b91506146ac82614645565b604082019050919050565b600060208201905081810360008301526146d081614694565b9050919050565b7f455243373231456e756d657261626c653a206f776e657220696e646578206f7560008201527f74206f6620626f756e6473000000000000000000000000000000000000000000602082015250565b6000614733602b83613c4f565b915061473e826146d7565b604082019050919050565b6000602082019050818103600083015261476281614726565b9050919050565b7f4e6f207374616b696e672064657461696c7320666f756e640000000000000000600082015250565b600061479f601883613c4f565b91506147aa82614769565b602082019050919050565b600060208201905081810360008301526147ce81614792565b9050919050565b7f455243373231456e756d657261626c653a20676c6f62616c20696e646578206f60008201527f7574206f6620626f756e64730000000000000000000000000000000000000000602082015250565b6000614831602c83613c4f565b915061483c826147d5565b604082019050919050565b6000602082019050818103600083015261486081614824565b9050919050565b7f4e6f207374616b696e6720666f756e6400000000000000000000000000000000600082015250565b600061489d601083613c4f565b91506148a882614867565b602082019050919050565b600060208201905081810360008301526148cc81614890565b9050919050565b7f416c726561647920726577617264656400000000000000000000000000000000600082015250565b6000614909601083613c4f565b9150614914826148d3565b602082019050919050565b60006020820190508181036000830152614938816148fc565b9050919050565b7f4e487b7100000000000000000000000000000000000000000000000000000000600052601260045260246000fd5b600061497982613cff565b915061498483613cff565b9250826149945761499361493f565b5b828204905092915050565b60006149aa82613cff565b91506149b583613cff565b9250827fffffffffffffffffffffffffffffffffffffffffffffffffffffffffffffffff038211156149ea576149e96145b3565b5b828201905092915050565b6000614a0082613cff565b9150614a0b83613cff565b9250817fffffffffffffffffffffffffffffffffffffffffffffffffffffffffffffffff0483118215151615614a4457614a436145b3565b5b828202905092915050565b7f4552433732313a20696e76616c696420746f6b656e2049440000000000000000600082015250565b6000614a85601883613c4f565b9150614a9082614a4f565b602082019050919050565b60006020820190508181036000830152614ab481614a78565b9050919050565b7f4f6e6c79206f776e65722063616e206368616e67652069740000000000000000600082015250565b6000614af1601883613c4f565b9150614afc82614abb565b602082019050919050565b60006020820190508181036000830152614b2081614ae4565b9050919050565b7f4e6f2072657761726420706f6f6c20666f756e64000000000000000000000000600082015250565b6000614b5d601483613c4f565b9150614b6882614b27565b602082019050919050565b60006020820190508181036000830152614b8c81614b50565b9050919050565b7f4552433732313a2061646472657373207a65726f206973206e6f74206120766160008201527f6c6964206f776e65720000000000000000000000000000000000000000000000602082015250565b6000614bef602983613c4f565b9150614bfa82614b93565b604082019050919050565b60006020820190508181036000830152614c1e81614be2565b9050919050565b7f5374616b696e6720697320616c726561647920636f6d706c6574656400000000600082015250565b6000614c5b601c83613c4f565b9150614c6682614c25565b602082019050919050565b60006020820190508181036000830152614c8a81614c4e565b9050919050565b7f596f752063616e74207570646174652061667465722031206461790000000000600082015250565b6000614cc7601b83613c4f565b9150614cd282614c91565b602082019050919050565b60006020820190508181036000830152614cf681614cba565b9050919050565b600081905092915050565b6000614d1382613c44565b614d1d8185614cfd565b9350614d2d818560208601613c60565b80840191505092915050565b6000614d458285614d08565b9150614d518284614d08565b91508190509392505050565b7f4552433732313a207472616e736665722066726f6d20696e636f72726563742060008201527f6f776e6572000000000000000000000000000000000000000000000000000000602082015250565b6000614db9602583613c4f565b9150614dc482614d5d565b604082019050919050565b60006020820190508181036000830152614de881614dac565b9050919050565b7f4552433732313a207472616e7366657220746f20746865207a65726f2061646460008201527f7265737300000000000000000000000000000000000000000000000000000000602082015250565b6000614e4b602483613c4f565b9150614e5682614def565b604082019050919050565b60006020820190508181036000830152614e7a81614e3e565b9050919050565b7f4552433732313a20617070726f766520746f2063616c6c657200000000000000600082015250565b6000614eb7601983613c4f565b9150614ec282614e81565b602082019050919050565b60006020820190508181036000830152614ee681614eaa565b9050919050565b7f4552433732313a207472616e7366657220746f206e6f6e20455243373231526560008201527f63656976657220696d706c656d656e7465720000000000000000000000000000602082015250565b6000614f49603283613c4f565b9150614f5482614eed565b604082019050919050565b60006020820190508181036000830152614f7881614f3c565b9050919050565b600081519050919050565b600082825260208201905092915050565b6000614fa682614f7f565b614fb08185614f8a565b9350614fc0818560208601613c60565b614fc981613c93565b840191505092915050565b6000608082019050614fe96000830187613d94565b614ff66020830186613d94565b6150036040830185613e2a565b81810360608301526150158184614f9b565b905095945050505050565b60008151905061502f81613bb5565b92915050565b60006020828403121561504b5761504a613b7f565b5b600061505984828501615020565b91505092915050565b7f455243373231456e756d657261626c653a20636f6e736563757469766520747260008201527f616e7366657273206e6f7420737570706f727465640000000000000000000000602082015250565b60006150be603583613c4f565b91506150c982615062565b604082019050919050565b600060208201905081810360008301526150ed816150b1565b9050919050565b7f4552433732313a206d696e7420746f20746865207a65726f2061646472657373600082015250565b600061512a602083613c4f565b9150615135826150f4565b602082019050919050565b600060208201905081810360008301526151598161511d565b9050919050565b7f4552433732313a20746f6b656e20616c7265616479206d696e74656400000000600082015250565b6000615196601c83613c4f565b91506151a182615160565b602082019050919050565b600060208201905081810360008301526151c581615189565b9050919050565b7f4e487b7100000000000000000000000000000000000000000000000000000000600052603160045260246000fdfea26469706673582212209d6dca43f1cdb0afb9691517fdf9e61edcd94fd58f415d5338f8e9dd0f64152064736f6c63430008090033",
  "linkReferences": {},
  "deployedLinkReferences": {}
}