{
  "address": "0x4cb50F73e6f1C23B0B4dE74D75f8da477E37C47F",
  "abi": [
    {
      "inputs": [],
      "stateMutability": "nonpayable",
      "type": "constructor"
    },
    {
      "anonymous": false,
      "inputs": [
        {
          "indexed": true,
          "internalType": "address",
          "name": "owner",
          "type": "address"
        },
        {
          "indexed": true,
          "internalType": "address",
          "name": "approved",
          "type": "address"
        },
        {
          "indexed": true,
          "internalType": "uint256",
          "name": "tokenId",
          "type": "uint256"
        }
      ],
      "name": "Approval",
      "type": "event"
    },
    {
      "anonymous": false,
      "inputs": [
        {
          "indexed": true,
          "internalType": "address",
          "name": "owner",
          "type": "address"
        },
        {
          "indexed": true,
          "internalType": "address",
          "name": "operator",
          "type": "address"
        },
        {
          "indexed": false,
          "internalType": "bool",
          "name": "approved",
          "type": "bool"
        }
      ],
      "name": "ApprovalForAll",
      "type": "event"
    },
    {
      "anonymous": false,
      "inputs": [
        {
          "indexed": true,
          "internalType": "address",
          "name": "previousOwner",
          "type": "address"
        },
        {
          "indexed": true,
          "internalType": "address",
          "name": "newOwner",
          "type": "address"
        }
      ],
      "name": "OwnershipTransferred",
      "type": "event"
    },
    {
      "anonymous": false,
      "inputs": [
        {
          "indexed": true,
          "internalType": "address",
          "name": "from",
          "type": "address"
        },
        {
          "indexed": true,
          "internalType": "address",
          "name": "to",
          "type": "address"
        },
        {
          "indexed": true,
          "internalType": "uint256",
          "name": "tokenId",
          "type": "uint256"
        }
      ],
      "name": "Transfer",
      "type": "event"
    },
    {
      "inputs": [],
      "name": "admin",
      "outputs": [
        {
          "internalType": "address",
          "name": "",
          "type": "address"
        }
      ],
      "stateMutability": "view",
      "type": "function"
    },
    {
      "inputs": [
        {
          "internalType": "address",
          "name": "to",
          "type": "address"
        },
        {
          "internalType": "uint256",
          "name": "tokenId",
          "type": "uint256"
        }
      ],
      "name": "approve",
      "outputs": [],
      "stateMutability": "nonpayable",
      "type": "function"
    },
    {
      "inputs": [
        {
          "internalType": "address",
          "name": "owner",
          "type": "address"
        }
      ],
      "name": "balanceOf",
      "outputs": [
        {
          "internalType": "uint256",
          "name": "",
          "type": "uint256"
        }
      ],
      "stateMutability": "view",
      "type": "function"
    },
    {
      "inputs": [
        {
          "internalType": "uint256",
          "name": "tokenId",
          "type": "uint256"
        }
      ],
      "name": "getApproved",
      "outputs": [
        {
          "internalType": "address",
          "name": "",
          "type": "address"
        }
      ],
      "stateMutability": "view",
      "type": "function"
    },
    {
      "inputs": [],
      "name": "getContractBalance",
      "outputs": [
        {
          "internalType": "uint256",
          "name": "",
          "type": "uint256"
        }
      ],
      "stateMutability": "view",
      "type": "function"
    },
    {
      "inputs": [],
      "name": "getCurrentID",
      "outputs": [
        {
          "internalType": "uint256",
          "name": "",
          "type": "uint256"
        }
      ],
      "stateMutability": "view",
      "type": "function"
    },
    {
      "inputs": [],
      "name": "getGasCompensation",
      "outputs": [],
      "stateMutability": "nonpayable",
      "type": "function"
    },
    {
      "inputs": [],
      "name": "getOwner",
      "outputs": [
        {
          "internalType": "address",
          "name": "",
          "type": "address"
        }
      ],
      "stateMutability": "view",
      "type": "function"
    },
    {
      "inputs": [
        {
          "internalType": "address",
          "name": "_userAddr",
          "type": "address"
        },
        {
          "internalType": "uint256",
          "name": "_exerciseID",
          "type": "uint256"
        }
      ],
      "name": "getStakingDetails",
      "outputs": [
        {
          "internalType": "uint256",
          "name": "",
          "type": "uint256"
        },
        {
          "internalType": "uint256",
          "name": "",
          "type": "uint256"
        },
        {
          "internalType": "uint256",
          "name": "",
          "type": "uint256"
        },
        {
          "internalType": "bool",
          "name": "",
          "type": "bool"
        },
        {
          "internalType": "uint256",
          "name": "",
          "type": "uint256"
        }
      ],
      "stateMutability": "view",
      "type": "function"
    },
    {
      "inputs": [
        {
          "internalType": "address",
          "name": "_userAddr",
          "type": "address"
        },
        {
          "internalType": "uint256",
          "name": "_exerciseID",
          "type": "uint256"
        }
      ],
      "name": "getTargetDone",
      "outputs": [
        {
          "internalType": "uint256",
          "name": "",
          "type": "uint256"
        }
      ],
      "stateMutability": "view",
      "type": "function"
    },
    {
      "inputs": [
        {
          "internalType": "uint256",
          "name": "_tokenID",
          "type": "uint256"
        }
      ],
      "name": "getTokenURI",
      "outputs": [
        {
          "internalType": "string",
          "name": "",
          "type": "string"
        }
      ],
      "stateMutability": "view",
      "type": "function"
    },
    {
      "inputs": [
        {
          "internalType": "address",
          "name": "owner",
          "type": "address"
        },
        {
          "internalType": "address",
          "name": "operator",
          "type": "address"
        }
      ],
      "name": "isApprovedForAll",
      "outputs": [
        {
          "internalType": "bool",
          "name": "",
          "type": "bool"
        }
      ],
      "stateMutability": "view",
      "type": "function"
    },
    {
      "inputs": [],
      "name": "name",
      "outputs": [
        {
          "internalType": "string",
          "name": "",
          "type": "string"
        }
      ],
      "stateMutability": "view",
      "type": "function"
    },
    {
      "inputs": [],
      "name": "owner",
      "outputs": [
        {
          "internalType": "address",
          "name": "",
          "type": "address"
        }
      ],
      "stateMutability": "view",
      "type": "function"
    },
    {
      "inputs": [
        {
          "internalType": "uint256",
          "name": "tokenId",
          "type": "uint256"
        }
      ],
      "name": "ownerOf",
      "outputs": [
        {
          "internalType": "address",
          "name": "",
          "type": "address"
        }
      ],
      "stateMutability": "view",
      "type": "function"
    },
    {
      "inputs": [],
      "name": "renounceOwnership",
      "outputs": [],
      "stateMutability": "nonpayable",
      "type": "function"
    },
    {
      "inputs": [
        {
          "internalType": "uint256",
          "name": "exerciseID",
          "type": "uint256"
        },
        {
          "internalType": "address",
          "name": "userAddr",
          "type": "address"
        },
        {
          "internalType": "address",
          "name": "_charityAddr",
          "type": "address"
        }
      ],
      "name": "rewardMaticForExercise",
      "outputs": [
        {
          "internalType": "uint256",
          "name": "",
          "type": "uint256"
        }
      ],
      "stateMutability": "nonpayable",
      "type": "function"
    },
    {
      "inputs": [],
      "name": "rewardPool",
      "outputs": [
        {
          "internalType": "uint256",
          "name": "",
          "type": "uint256"
        }
      ],
      "stateMutability": "view",
      "type": "function"
    },
    {
      "inputs": [
        {
          "internalType": "address",
          "name": "to",
          "type": "address"
        }
      ],
      "name": "safeMint",
      "outputs": [],
      "stateMutability": "nonpayable",
      "type": "function"
    },
    {
      "inputs": [
        {
          "internalType": "address",
          "name": "from",
          "type": "address"
        },
        {
          "internalType": "address",
          "name": "to",
          "type": "address"
        },
        {
          "internalType": "uint256",
          "name": "tokenId",
          "type": "uint256"
        }
      ],
      "name": "safeTransferFrom",
      "outputs": [],
      "stateMutability": "nonpayable",
      "type": "function"
    },
    {
      "inputs": [
        {
          "internalType": "address",
          "name": "from",
          "type": "address"
        },
        {
          "internalType": "address",
          "name": "to",
          "type": "address"
        },
        {
          "internalType": "uint256",
          "name": "tokenId",
          "type": "uint256"
        },
        {
          "internalType": "bytes",
          "name": "data",
          "type": "bytes"
        }
      ],
      "name": "safeTransferFrom",
      "outputs": [],
      "stateMutability": "nonpayable",
      "type": "function"
    },
    {
      "inputs": [
        {
          "internalType": "address",
          "name": "operator",
          "type": "address"
        },
        {
          "internalType": "bool",
          "name": "approved",
          "type": "bool"
        }
      ],
      "name": "setApprovalForAll",
      "outputs": [],
      "stateMutability": "nonpayable",
      "type": "function"
    },
    {
      "inputs": [
        {
          "internalType": "uint256",
          "name": "_exerciseID",
          "type": "uint256"
        },
        {
          "internalType": "uint256",
          "name": "_target",
          "type": "uint256"
        }
      ],
      "name": "stakeMaticForExercise",
      "outputs": [],
      "stateMutability": "payable",
      "type": "function"
    },
    {
      "inputs": [
        {
          "internalType": "address",
          "name": "",
          "type": "address"
        },
        {
          "internalType": "uint256",
          "name": "",
          "type": "uint256"
        },
        {
          "internalType": "uint256",
          "name": "",
          "type": "uint256"
        }
      ],
      "name": "stakingDetails",
      "outputs": [
        {
          "internalType": "uint256",
          "name": "amount",
          "type": "uint256"
        },
        {
          "internalType": "uint256",
          "name": "target",
          "type": "uint256"
        },
        {
          "internalType": "uint256",
          "name": "targetDone",
          "type": "uint256"
        },
        {
          "internalType": "bool",
          "name": "isCompleted",
          "type": "bool"
        },
        {
          "internalType": "uint256",
          "name": "stakeDay",
          "type": "uint256"
        }
      ],
      "stateMutability": "view",
      "type": "function"
    },
    {
      "inputs": [
        {
          "internalType": "bytes4",
          "name": "interfaceId",
          "type": "bytes4"
        }
      ],
      "name": "supportsInterface",
      "outputs": [
        {
          "internalType": "bool",
          "name": "",
          "type": "bool"
        }
      ],
      "stateMutability": "view",
      "type": "function"
    },
    {
      "inputs": [],
      "name": "symbol",
      "outputs": [
        {
          "internalType": "string",
          "name": "",
          "type": "string"
        }
      ],
      "stateMutability": "view",
      "type": "function"
    },
    {
      "inputs": [
        {
          "internalType": "uint256",
          "name": "index",
          "type": "uint256"
        }
      ],
      "name": "tokenByIndex",
      "outputs": [
        {
          "internalType": "uint256",
          "name": "",
          "type": "uint256"
        }
      ],
      "stateMutability": "view",
      "type": "function"
    },
    {
      "inputs": [
        {
          "internalType": "address",
          "name": "owner",
          "type": "address"
        },
        {
          "internalType": "uint256",
          "name": "index",
          "type": "uint256"
        }
      ],
      "name": "tokenOfOwnerByIndex",
      "outputs": [
        {
          "internalType": "uint256",
          "name": "",
          "type": "uint256"
        }
      ],
      "stateMutability": "view",
      "type": "function"
    },
    {
      "inputs": [
        {
          "internalType": "uint256",
          "name": "tokenId",
          "type": "uint256"
        }
      ],
      "name": "tokenURI",
      "outputs": [
        {
          "internalType": "string",
          "name": "",
          "type": "string"
        }
      ],
      "stateMutability": "view",
      "type": "function"
    },
    {
      "inputs": [],
      "name": "totalSupply",
      "outputs": [
        {
          "internalType": "uint256",
          "name": "",
          "type": "uint256"
        }
      ],
      "stateMutability": "view",
      "type": "function"
    },
    {
      "inputs": [
        {
          "internalType": "address",
          "name": "from",
          "type": "address"
        },
        {
          "internalType": "address",
          "name": "to",
          "type": "address"
        },
        {
          "internalType": "uint256",
          "name": "tokenId",
          "type": "uint256"
        }
      ],
      "name": "transferFrom",
      "outputs": [],
      "stateMutability": "nonpayable",
      "type": "function"
    },
    {
      "inputs": [
        {
          "internalType": "address",
          "name": "newOwner",
          "type": "address"
        }
      ],
      "name": "transferOwnership",
      "outputs": [],
      "stateMutability": "nonpayable",
      "type": "function"
    },
    {
      "inputs": [
        {
          "internalType": "uint256",
          "name": "_exerciseID",
          "type": "uint256"
        },
        {
          "internalType": "uint256",
          "name": "_targetDone",
          "type": "uint256"
        },
        {
          "internalType": "address",
          "name": "_userAddr",
          "type": "address"
        }
      ],
      "name": "updateTargetDone",
      "outputs": [],
      "stateMutability": "nonpayable",
      "type": "function"
    }
  ],
  "transactionHash": "0x7deb01c3319d0d54ead535698ab65fcd94f6a64bb2578d4a2c9d5cb751f1d0af",
  "args": [],
  "numDeployments": 2,
  "solcInputHash": "eea5caa0c3f2428640686d239134a005",
  "bytecode": "0x60806040523480156200001157600080fd5b506040518060400160405280600581526020017f4d594e46540000000000000000000000000000000000000000000000000000008152506040518060400160405280600481526020017f4d4e46540000000000000000000000000000000000000000000000000000000081525081600090816200008f919062000453565b508060019081620000a1919062000453565b505050620000c4620000b86200010b60201b60201c565b6200011360201b60201c565b33600c60006101000a81548173ffffffffffffffffffffffffffffffffffffffff021916908373ffffffffffffffffffffffffffffffffffffffff1602179055506200053a565b600033905090565b6000600a60009054906101000a900473ffffffffffffffffffffffffffffffffffffffff16905081600a60006101000a81548173ffffffffffffffffffffffffffffffffffffffff021916908373ffffffffffffffffffffffffffffffffffffffff1602179055508173ffffffffffffffffffffffffffffffffffffffff168173ffffffffffffffffffffffffffffffffffffffff167f8be0079c531659141344cd1fd0a4f28419497f9722a3daafe3b4186f6b6457e060405160405180910390a35050565b600081519050919050565b7f4e487b7100000000000000000000000000000000000000000000000000000000600052604160045260246000fd5b7f4e487b7100000000000000000000000000000000000000000000000000000000600052602260045260246000fd5b600060028204905060018216806200025b57607f821691505b60208210810362000271576200027062000213565b5b50919050565b60008190508160005260206000209050919050565b60006020601f8301049050919050565b600082821b905092915050565b600060088302620002db7fffffffffffffffffffffffffffffffffffffffffffffffffffffffffffffffff826200029c565b620002e786836200029c565b95508019841693508086168417925050509392505050565b6000819050919050565b6000819050919050565b6000620003346200032e6200032884620002ff565b62000309565b620002ff565b9050919050565b6000819050919050565b620003508362000313565b620003686200035f826200033b565b848454620002a9565b825550505050565b600090565b6200037f62000370565b6200038c81848462000345565b505050565b5b81811015620003b457620003a860008262000375565b60018101905062000392565b5050565b601f8211156200040357620003cd8162000277565b620003d8846200028c565b81016020851015620003e8578190505b62000400620003f7856200028c565b83018262000391565b50505b505050565b600082821c905092915050565b6000620004286000198460080262000408565b1980831691505092915050565b600062000443838362000415565b9150826002028217905092915050565b6200045e82620001d9565b67ffffffffffffffff8111156200047a5762000479620001e4565b5b62000486825462000242565b62000493828285620003b8565b600060209050601f831160018114620004cb5760008415620004b6578287015190505b620004c2858262000435565b86555062000532565b601f198416620004db8662000277565b60005b828110156200050557848901518255600182019150602085019450602081019050620004de565b8683101562000525578489015162000521601f89168262000415565b8355505b6001600288020188555050505b505050505050565b614e2d806200054a6000396000f3fe6080604052600436106101ee5760003560e01c8063695b2e341161010d578063a22cb465116100a0578063c87b56dd1161006f578063c87b56dd14610730578063e985e9c51461076d578063ef1e7df3146107aa578063f2fde38b146107d5578063f851a440146107fe576101ee565b8063a22cb4651461065c578063a854b12b14610685578063b88d4fde146106c6578063bc485650146106ef576101ee565b80637b147b64116100dc5780637b147b64146105b2578063893d20e8146105db5780638da5cb5b1461060657806395d89b4114610631576101ee565b8063695b2e341461051c5780636f9fb98a1461053357806370a082311461055e578063715018a61461059b576101ee565b806338fbde6d116101855780634f6ccce7116101545780634f6ccce71461043a578063586ee487146104775780636352211e146104b457806366666aa9146104f1576101ee565b806338fbde6d1461036e5780633bb3a24d146103ab57806340d097c3146103e857806342842e0e14610411576101ee565b806318160ddd116101c157806318160ddd146102c157806323b872dd146102ec5780632d7ea600146103155780632f745c5914610331576101ee565b806301ffc9a7146101f357806306fdde0314610230578063081812fc1461025b578063095ea7b314610298575b600080fd5b3480156101ff57600080fd5b5061021a600480360381019061021591906137fb565b610829565b6040516102279190613843565b60405180910390f35b34801561023c57600080fd5b5061024561083b565b60405161025291906138ee565b60405180910390f35b34801561026757600080fd5b50610282600480360381019061027d9190613946565b6108cd565b60405161028f91906139b4565b60405180910390f35b3480156102a457600080fd5b506102bf60048036038101906102ba91906139fb565b610913565b005b3480156102cd57600080fd5b506102d6610a2a565b6040516102e39190613a4a565b60405180910390f35b3480156102f857600080fd5b50610313600480360381019061030e9190613a65565b610a37565b005b61032f600480360381019061032a9190613ab8565b610a97565b005b34801561033d57600080fd5b50610358600480360381019061035391906139fb565b610dd9565b6040516103659190613a4a565b60405180910390f35b34801561037a57600080fd5b50610395600480360381019061039091906139fb565b610e7e565b6040516103a29190613a4a565b60405180910390f35b3480156103b757600080fd5b506103d260048036038101906103cd9190613946565b611044565b6040516103df91906138ee565b60405180910390f35b3480156103f457600080fd5b5061040f600480360381019061040a9190613af8565b611056565b005b34801561041d57600080fd5b5061043860048036038101906104339190613a65565b61107c565b005b34801561044657600080fd5b50610461600480360381019061045c9190613946565b61109c565b60405161046e9190613a4a565b60405180910390f35b34801561048357600080fd5b5061049e60048036038101906104999190613b25565b61110d565b6040516104ab9190613a4a565b60405180910390f35b3480156104c057600080fd5b506104db60048036038101906104d69190613946565b611592565b6040516104e891906139b4565b60405180910390f35b3480156104fd57600080fd5b50610506611618565b6040516105139190613a4a565b60405180910390f35b34801561052857600080fd5b5061053161161e565b005b34801561053f57600080fd5b50610548611768565b6040516105559190613a4a565b60405180910390f35b34801561056a57600080fd5b5061058560048036038101906105809190613af8565b611800565b6040516105929190613a4a565b60405180910390f35b3480156105a757600080fd5b506105b06118b7565b005b3480156105be57600080fd5b506105d960048036038101906105d49190613b78565b6118cb565b005b3480156105e757600080fd5b506105f0611bc8565b6040516105fd91906139b4565b60405180910390f35b34801561061257600080fd5b5061061b611bf2565b60405161062891906139b4565b60405180910390f35b34801561063d57600080fd5b50610646611c1c565b60405161065391906138ee565b60405180910390f35b34801561066857600080fd5b50610683600480360381019061067e9190613bf7565b611cae565b005b34801561069157600080fd5b506106ac60048036038101906106a79190613c37565b611cc4565b6040516106bd959493929190613c8a565b60405180910390f35b3480156106d257600080fd5b506106ed60048036038101906106e89190613e12565b611d31565b005b3480156106fb57600080fd5b50610716600480360381019061071191906139fb565b611d93565b604051610727959493929190613c8a565b60405180910390f35b34801561073c57600080fd5b5061075760048036038101906107529190613946565b611f7f565b60405161076491906138ee565b60405180910390f35b34801561077957600080fd5b50610794600480360381019061078f9190613e95565b611fe7565b6040516107a19190613843565b60405180910390f35b3480156107b657600080fd5b506107bf61207b565b6040516107cc9190613a4a565b60405180910390f35b3480156107e157600080fd5b506107fc60048036038101906107f79190613af8565b612098565b005b34801561080a57600080fd5b5061081361211b565b60405161082091906139b4565b60405180910390f35b600061083482612141565b9050919050565b60606000805461084a90613f04565b80601f016020809104026020016040519081016040528092919081815260200182805461087690613f04565b80156108c35780601f10610898576101008083540402835291602001916108c3565b820191906000526020600020905b8154815290600101906020018083116108a657829003601f168201915b5050505050905090565b60006108d8826121bb565b6004600083815260200190815260200160002060009054906101000a900473ffffffffffffffffffffffffffffffffffffffff169050919050565b600061091e82611592565b90508073ffffffffffffffffffffffffffffffffffffffff168373ffffffffffffffffffffffffffffffffffffffff160361098e576040517f08c379a000000000000000000000000000000000000000000000000000000000815260040161098590613fa7565b60405180910390fd5b8073ffffffffffffffffffffffffffffffffffffffff166109ad612206565b73ffffffffffffffffffffffffffffffffffffffff1614806109dc57506109db816109d6612206565b611fe7565b5b610a1b576040517f08c379a0000000000000000000000000000000000000000000000000000000008152600401610a1290614039565b60405180910390fd5b610a25838361220e565b505050565b6000600880549050905090565b610a48610a42612206565b826122c7565b610a87576040517f08c379a0000000000000000000000000000000000000000000000000000000008152600401610a7e906140cb565b60405180910390fd5b610a9283838361235c565b505050565b60003411610ada576040517f08c379a0000000000000000000000000000000000000000000000000000000008152600401610ad190614137565b60405180910390fd5b60058111610b1d576040517f08c379a0000000000000000000000000000000000000000000000000000000008152600401610b14906141a3565b60405180910390fd5b6000600e60003373ffffffffffffffffffffffffffffffffffffffff1673ffffffffffffffffffffffffffffffffffffffff1681526020019081526020016000206000848152602001908152602001600020805490501115610ca05760011515600e60003373ffffffffffffffffffffffffffffffffffffffff1673ffffffffffffffffffffffffffffffffffffffff16815260200190815260200160002060008481526020019081526020016000206001600e60003373ffffffffffffffffffffffffffffffffffffffff1673ffffffffffffffffffffffffffffffffffffffff168152602001908152602001600020600086815260200190815260200160002080549050610c2d91906141f2565b81548110610c3e57610c3d614226565b5b906000526020600020906005020160030160009054906101000a900460ff16151514610c9f576040517f08c379a0000000000000000000000000000000000000000000000000000000008152600401610c96906142c7565b60405180910390fd5b5b3073ffffffffffffffffffffffffffffffffffffffff166108fc349081150290604051600060405180830381858888f19350505050158015610ce6573d6000803e3d6000fd5b50600e60003373ffffffffffffffffffffffffffffffffffffffff1673ffffffffffffffffffffffffffffffffffffffff16815260200190815260200160002060008381526020019081526020016000206040518060a001604052803481526020018381526020016000815260200160001515815260200142815250908060018154018082558091505060019003906000526020600020906005020160009091909190915060008201518160000155602082015181600101556040820151816002015560608201518160030160006101000a81548160ff0219169083151502179055506080820151816004015550505050565b6000610de483611800565b8210610e25576040517f08c379a0000000000000000000000000000000000000000000000000000000008152600401610e1c90614359565b60405180910390fd5b600660008473ffffffffffffffffffffffffffffffffffffffff1673ffffffffffffffffffffffffffffffffffffffff168152602001908152602001600020600083815260200190815260200160002054905092915050565b600080600e60008573ffffffffffffffffffffffffffffffffffffffff1673ffffffffffffffffffffffffffffffffffffffff16815260200190815260200160002060008481526020019081526020016000208054905011610f15576040517f08c379a0000000000000000000000000000000000000000000000000000000008152600401610f0c906143c5565b60405180910390fd5b6000600e60008573ffffffffffffffffffffffffffffffffffffffff1673ffffffffffffffffffffffffffffffffffffffff16815260200190815260200160002060008481526020019081526020016000206001600e60008773ffffffffffffffffffffffffffffffffffffffff1673ffffffffffffffffffffffffffffffffffffffff168152602001908152602001600020600086815260200190815260200160002080549050610fc791906141f2565b81548110610fd857610fd7614226565b5b90600052602060002090600502016040518060a00160405290816000820154815260200160018201548152602001600282015481526020016003820160009054906101000a900460ff161515151581526020016004820154815250509050806040015191505092915050565b606061104f82611f7f565b9050919050565b6000611062600b612655565b905061106e600b612663565b6110788282612679565b5050565b61109783838360405180602001604052806000815250611d31565b505050565b60006110a6610a2a565b82106110e7576040517f08c379a00000000000000000000000000000000000000000000000000000000081526004016110de90614457565b60405180910390fd5b600882815481106110fb576110fa614226565b5b90600052602060002001549050919050565b600080600e60008573ffffffffffffffffffffffffffffffffffffffff1673ffffffffffffffffffffffffffffffffffffffff16815260200190815260200160002060008681526020019081526020016000208054905011156112915760001515600e60008573ffffffffffffffffffffffffffffffffffffffff1673ffffffffffffffffffffffffffffffffffffffff16815260200190815260200160002060008681526020019081526020016000206001600e60008773ffffffffffffffffffffffffffffffffffffffff1673ffffffffffffffffffffffffffffffffffffffff16815260200190815260200160002060008881526020019081526020016000208054905061121e91906141f2565b8154811061122f5761122e614226565b5b906000526020600020906005020160030160009054906101000a900460ff16151514611290576040517f08c379a0000000000000000000000000000000000000000000000000000000008152600401611287906144c3565b60405180910390fd5b5b6000600e60008573ffffffffffffffffffffffffffffffffffffffff1673ffffffffffffffffffffffffffffffffffffffff16815260200190815260200160002060008681526020019081526020016000206001600e60008773ffffffffffffffffffffffffffffffffffffffff1673ffffffffffffffffffffffffffffffffffffffff16815260200190815260200160002060008881526020019081526020016000208054905061134391906141f2565b8154811061135457611353614226565b5b90600052602060002090600502016040518060a00160405290816000820154815260200160018201548152602001600282015481526020016003820160009054906101000a900460ff161515151581526020016004820154815250509050600081600001519050600082602001519050600083604001519050600184606001901515908115158152505083602001518460400151106114af57600082846113fb9190614512565b9050611428600c60009054906101000a900473ffffffffffffffffffffffffffffffffffffffff16611056565b600061143261207b565b9050611461600c60009054906101000a900473ffffffffffffffffffffffffffffffffffffffff168a83610a37565b8873ffffffffffffffffffffffffffffffffffffffff166108fc869081150290604051600060405180830381858888f193505050501580156114a7573d6000803e3d6000fd5b505050611587565b60006004846114be9190614512565b905080600d546114ce9190614543565b600d819055508773ffffffffffffffffffffffffffffffffffffffff166108fc82866114fa91906141f2565b9081150290604051600060405180830381858888f19350505050158015611525573d6000803e3d6000fd5b508673ffffffffffffffffffffffffffffffffffffffff166108fc600a60098461154f9190614577565b6115599190614512565b9081150290604051600060405180830381858888f19350505050158015611584573d6000803e3d6000fd5b50505b505050509392505050565b60008061159e83612697565b9050600073ffffffffffffffffffffffffffffffffffffffff168173ffffffffffffffffffffffffffffffffffffffff160361160f576040517f08c379a000000000000000000000000000000000000000000000000000000000815260040161160690614605565b60405180910390fd5b80915050919050565b600d5481565b3373ffffffffffffffffffffffffffffffffffffffff16600c60009054906101000a900473ffffffffffffffffffffffffffffffffffffffff1673ffffffffffffffffffffffffffffffffffffffff16146116ae576040517f08c379a00000000000000000000000000000000000000000000000000000000081526004016116a590614671565b60405180910390fd5b6000600d54116116f3576040517f08c379a00000000000000000000000000000000000000000000000000000000081526004016116ea906146dd565b60405180910390fd5b600c60009054906101000a900473ffffffffffffffffffffffffffffffffffffffff1673ffffffffffffffffffffffffffffffffffffffff166108fc600d549081150290604051600060405180830381858888f1935050505015801561175d573d6000803e3d6000fd5b506000600d81905550565b60003373ffffffffffffffffffffffffffffffffffffffff16600c60009054906101000a900473ffffffffffffffffffffffffffffffffffffffff1673ffffffffffffffffffffffffffffffffffffffff16146117fa576040517f08c379a00000000000000000000000000000000000000000000000000000000081526004016117f190614671565b60405180910390fd5b47905090565b60008073ffffffffffffffffffffffffffffffffffffffff168273ffffffffffffffffffffffffffffffffffffffff1603611870576040517f08c379a00000000000000000000000000000000000000000000000000000000081526004016118679061476f565b60405180910390fd5b600360008373ffffffffffffffffffffffffffffffffffffffff1673ffffffffffffffffffffffffffffffffffffffff168152602001908152602001600020549050919050565b6118bf6126d4565b6118c96000612752565b565b3373ffffffffffffffffffffffffffffffffffffffff16600c60009054906101000a900473ffffffffffffffffffffffffffffffffffffffff1673ffffffffffffffffffffffffffffffffffffffff161461195b576040517f08c379a000000000000000000000000000000000000000000000000000000000815260040161195290614671565b60405180910390fd5b6000600e60008373ffffffffffffffffffffffffffffffffffffffff1673ffffffffffffffffffffffffffffffffffffffff1681526020019081526020016000206000858152602001908152602001600020805490501115611ada5762015180600e60008373ffffffffffffffffffffffffffffffffffffffff1673ffffffffffffffffffffffffffffffffffffffff16815260200190815260200160002060008581526020019081526020016000206001600e60008573ffffffffffffffffffffffffffffffffffffffff1673ffffffffffffffffffffffffffffffffffffffff168152602001908152602001600020600087815260200190815260200160002080549050611a6b91906141f2565b81548110611a7c57611a7b614226565b5b90600052602060002090600502016004015442611a9991906141f2565b10611ad9576040517f08c379a0000000000000000000000000000000000000000000000000000000008152600401611ad0906147db565b60405180910390fd5b5b81600e60008373ffffffffffffffffffffffffffffffffffffffff1673ffffffffffffffffffffffffffffffffffffffff16815260200190815260200160002060008581526020019081526020016000206001600e60008573ffffffffffffffffffffffffffffffffffffffff1673ffffffffffffffffffffffffffffffffffffffff168152602001908152602001600020600087815260200190815260200160002080549050611b8b91906141f2565b81548110611b9c57611b9b614226565b5b90600052602060002090600502016002016000828254611bbc9190614543565b92505081905550505050565b6000600c60009054906101000a900473ffffffffffffffffffffffffffffffffffffffff16905090565b6000600a60009054906101000a900473ffffffffffffffffffffffffffffffffffffffff16905090565b606060018054611c2b90613f04565b80601f0160208091040260200160405190810160405280929190818152602001828054611c5790613f04565b8015611ca45780601f10611c7957610100808354040283529160200191611ca4565b820191906000526020600020905b815481529060010190602001808311611c8757829003601f168201915b5050505050905090565b611cc0611cb9612206565b8383612818565b5050565b600e6020528260005260406000206020528160005260406000208181548110611cec57600080fd5b906000526020600020906005020160009250925050508060000154908060010154908060020154908060030160009054906101000a900460ff16908060040154905085565b611d42611d3c612206565b836122c7565b611d81576040517f08c379a0000000000000000000000000000000000000000000000000000000008152600401611d78906140cb565b60405180910390fd5b611d8d84848484612984565b50505050565b600080600080600080600e60008973ffffffffffffffffffffffffffffffffffffffff1673ffffffffffffffffffffffffffffffffffffffff16815260200190815260200160002060008881526020019081526020016000208054905011611e30576040517f08c379a0000000000000000000000000000000000000000000000000000000008152600401611e27906143c5565b60405180910390fd5b6000600e60008973ffffffffffffffffffffffffffffffffffffffff1673ffffffffffffffffffffffffffffffffffffffff16815260200190815260200160002060008881526020019081526020016000206001600e60008b73ffffffffffffffffffffffffffffffffffffffff1673ffffffffffffffffffffffffffffffffffffffff16815260200190815260200160002060008a815260200190815260200160002080549050611ee291906141f2565b81548110611ef357611ef2614226565b5b90600052602060002090600502016040518060a00160405290816000820154815260200160018201548152602001600282015481526020016003820160009054906101000a900460ff1615151515815260200160048201548152505090508060000151816020015182604001518360600151846080015195509550955095509550509295509295909350565b6060611f8a826121bb565b6000611f946129e0565b90506000815111611fb45760405180602001604052806000815250611fdf565b80611fbe84612a1d565b604051602001611fcf929190614837565b6040516020818303038152906040525b915050919050565b6000600560008473ffffffffffffffffffffffffffffffffffffffff1673ffffffffffffffffffffffffffffffffffffffff16815260200190815260200160002060008373ffffffffffffffffffffffffffffffffffffffff1673ffffffffffffffffffffffffffffffffffffffff16815260200190815260200160002060009054906101000a900460ff16905092915050565b60006001612089600b612655565b61209391906141f2565b905090565b6120a06126d4565b600073ffffffffffffffffffffffffffffffffffffffff168173ffffffffffffffffffffffffffffffffffffffff160361210f576040517f08c379a0000000000000000000000000000000000000000000000000000000008152600401612106906148cd565b60405180910390fd5b61211881612752565b50565b600c60009054906101000a900473ffffffffffffffffffffffffffffffffffffffff1681565b60007f780e9d63000000000000000000000000000000000000000000000000000000007bffffffffffffffffffffffffffffffffffffffffffffffffffffffff1916827bffffffffffffffffffffffffffffffffffffffffffffffffffffffff191614806121b457506121b382612aeb565b5b9050919050565b6121c481612bcd565b612203576040517f08c379a00000000000000000000000000000000000000000000000000000000081526004016121fa90614605565b60405180910390fd5b50565b600033905090565b816004600083815260200190815260200160002060006101000a81548173ffffffffffffffffffffffffffffffffffffffff021916908373ffffffffffffffffffffffffffffffffffffffff160217905550808273ffffffffffffffffffffffffffffffffffffffff1661228183611592565b73ffffffffffffffffffffffffffffffffffffffff167f8c5be1e5ebec7d5bd14f71427d1e84f3dd0314c0f7b2291e5b200ac8c7c3b92560405160405180910390a45050565b6000806122d383611592565b90508073ffffffffffffffffffffffffffffffffffffffff168473ffffffffffffffffffffffffffffffffffffffff16148061231557506123148185611fe7565b5b8061235357508373ffffffffffffffffffffffffffffffffffffffff1661233b846108cd565b73ffffffffffffffffffffffffffffffffffffffff16145b91505092915050565b8273ffffffffffffffffffffffffffffffffffffffff1661237c82611592565b73ffffffffffffffffffffffffffffffffffffffff16146123d2576040517f08c379a00000000000000000000000000000000000000000000000000000000081526004016123c99061495f565b60405180910390fd5b600073ffffffffffffffffffffffffffffffffffffffff168273ffffffffffffffffffffffffffffffffffffffff1603612441576040517f08c379a0000000000000000000000000000000000000000000000000000000008152600401612438906149f1565b60405180910390fd5b61244e8383836001612c0e565b8273ffffffffffffffffffffffffffffffffffffffff1661246e82611592565b73ffffffffffffffffffffffffffffffffffffffff16146124c4576040517f08c379a00000000000000000000000000000000000000000000000000000000081526004016124bb9061495f565b60405180910390fd5b6004600082815260200190815260200160002060006101000a81549073ffffffffffffffffffffffffffffffffffffffff02191690556001600360008573ffffffffffffffffffffffffffffffffffffffff1673ffffffffffffffffffffffffffffffffffffffff168152602001908152602001600020600082825403925050819055506001600360008473ffffffffffffffffffffffffffffffffffffffff1673ffffffffffffffffffffffffffffffffffffffff16815260200190815260200160002060008282540192505081905550816002600083815260200190815260200160002060006101000a81548173ffffffffffffffffffffffffffffffffffffffff021916908373ffffffffffffffffffffffffffffffffffffffff160217905550808273ffffffffffffffffffffffffffffffffffffffff168473ffffffffffffffffffffffffffffffffffffffff167fddf252ad1be2c89b69c2b068fc378daa952ba7f163c4a11628f55a4df523b3ef60405160405180910390a46126508383836001612c20565b505050565b600081600001549050919050565b6001816000016000828254019250508190555050565b612693828260405180602001604052806000815250612c26565b5050565b60006002600083815260200190815260200160002060009054906101000a900473ffffffffffffffffffffffffffffffffffffffff169050919050565b6126dc612206565b73ffffffffffffffffffffffffffffffffffffffff166126fa611bf2565b73ffffffffffffffffffffffffffffffffffffffff1614612750576040517f08c379a000000000000000000000000000000000000000000000000000000000815260040161274790614a5d565b60405180910390fd5b565b6000600a60009054906101000a900473ffffffffffffffffffffffffffffffffffffffff16905081600a60006101000a81548173ffffffffffffffffffffffffffffffffffffffff021916908373ffffffffffffffffffffffffffffffffffffffff1602179055508173ffffffffffffffffffffffffffffffffffffffff168173ffffffffffffffffffffffffffffffffffffffff167f8be0079c531659141344cd1fd0a4f28419497f9722a3daafe3b4186f6b6457e060405160405180910390a35050565b8173ffffffffffffffffffffffffffffffffffffffff168373ffffffffffffffffffffffffffffffffffffffff1603612886576040517f08c379a000000000000000000000000000000000000000000000000000000000815260040161287d90614ac9565b60405180910390fd5b80600560008573ffffffffffffffffffffffffffffffffffffffff1673ffffffffffffffffffffffffffffffffffffffff16815260200190815260200160002060008473ffffffffffffffffffffffffffffffffffffffff1673ffffffffffffffffffffffffffffffffffffffff16815260200190815260200160002060006101000a81548160ff0219169083151502179055508173ffffffffffffffffffffffffffffffffffffffff168373ffffffffffffffffffffffffffffffffffffffff167f17307eab39ab6107e8899845ad3d59bd9653f200f220920489ca2b5937696c31836040516129779190613843565b60405180910390a3505050565b61298f84848461235c565b61299b84848484612c81565b6129da576040517f08c379a00000000000000000000000000000000000000000000000000000000081526004016129d190614b5b565b60405180910390fd5b50505050565b60606040518060400160405280601981526020017f68747470733a2f2f70696373756d2e70686f746f732f69642f00000000000000815250905090565b606060006001612a2c84612e08565b01905060008167ffffffffffffffff811115612a4b57612a4a613ce7565b5b6040519080825280601f01601f191660200182016040528015612a7d5781602001600182028036833780820191505090505b509050600082602001820190505b600115612ae0578080600190039150507f3031323334353637383961626364656600000000000000000000000000000000600a86061a8153600a8581612ad457612ad36144e3565b5b04945060008503612a8b575b819350505050919050565b60007f80ac58cd000000000000000000000000000000000000000000000000000000007bffffffffffffffffffffffffffffffffffffffffffffffffffffffff1916827bffffffffffffffffffffffffffffffffffffffffffffffffffffffff19161480612bb657507f5b5e139f000000000000000000000000000000000000000000000000000000007bffffffffffffffffffffffffffffffffffffffffffffffffffffffff1916827bffffffffffffffffffffffffffffffffffffffffffffffffffffffff1916145b80612bc65750612bc582612f5b565b5b9050919050565b60008073ffffffffffffffffffffffffffffffffffffffff16612bef83612697565b73ffffffffffffffffffffffffffffffffffffffff1614159050919050565b612c1a84848484612fc5565b50505050565b50505050565b612c308383613123565b612c3d6000848484612c81565b612c7c576040517f08c379a0000000000000000000000000000000000000000000000000000000008152600401612c7390614b5b565b60405180910390fd5b505050565b6000612ca28473ffffffffffffffffffffffffffffffffffffffff16613340565b15612dfb578373ffffffffffffffffffffffffffffffffffffffff1663150b7a02612ccb612206565b8786866040518563ffffffff1660e01b8152600401612ced9493929190614bd0565b6020604051808303816000875af1925050508015612d2957506040513d601f19601f82011682018060405250810190612d269190614c31565b60015b612dab573d8060008114612d59576040519150601f19603f3d011682016040523d82523d6000602084013e612d5e565b606091505b506000815103612da3576040517f08c379a0000000000000000000000000000000000000000000000000000000008152600401612d9a90614b5b565b60405180910390fd5b805181602001fd5b63150b7a0260e01b7bffffffffffffffffffffffffffffffffffffffffffffffffffffffff1916817bffffffffffffffffffffffffffffffffffffffffffffffffffffffff191614915050612e00565b600190505b949350505050565b600080600090507a184f03e93ff9f4daa797ed6e38ed64bf6a1f0100000000000000008310612e66577a184f03e93ff9f4daa797ed6e38ed64bf6a1f0100000000000000008381612e5c57612e5b6144e3565b5b0492506040810190505b6d04ee2d6d415b85acef81000000008310612ea3576d04ee2d6d415b85acef81000000008381612e9957612e986144e3565b5b0492506020810190505b662386f26fc100008310612ed257662386f26fc100008381612ec857612ec76144e3565b5b0492506010810190505b6305f5e1008310612efb576305f5e1008381612ef157612ef06144e3565b5b0492506008810190505b6127108310612f20576127108381612f1657612f156144e3565b5b0492506004810190505b60648310612f435760648381612f3957612f386144e3565b5b0492506002810190505b600a8310612f52576001810190505b80915050919050565b60007f01ffc9a7000000000000000000000000000000000000000000000000000000007bffffffffffffffffffffffffffffffffffffffffffffffffffffffff1916827bffffffffffffffffffffffffffffffffffffffffffffffffffffffff1916149050919050565b612fd184848484613363565b6001811115613015576040517f08c379a000000000000000000000000000000000000000000000000000000000815260040161300c90614cd0565b60405180910390fd5b6000829050600073ffffffffffffffffffffffffffffffffffffffff168573ffffffffffffffffffffffffffffffffffffffff160361305c5761305781613489565b61309b565b8373ffffffffffffffffffffffffffffffffffffffff168573ffffffffffffffffffffffffffffffffffffffff161461309a5761309985826134d2565b5b5b600073ffffffffffffffffffffffffffffffffffffffff168473ffffffffffffffffffffffffffffffffffffffff16036130dd576130d88161363f565b61311c565b8473ffffffffffffffffffffffffffffffffffffffff168473ffffffffffffffffffffffffffffffffffffffff161461311b5761311a8482613710565b5b5b5050505050565b600073ffffffffffffffffffffffffffffffffffffffff168273ffffffffffffffffffffffffffffffffffffffff1603613192576040517f08c379a000000000000000000000000000000000000000000000000000000000815260040161318990614d3c565b60405180910390fd5b61319b81612bcd565b156131db576040517f08c379a00000000000000000000000000000000000000000000000000000000081526004016131d290614da8565b60405180910390fd5b6131e9600083836001612c0e565b6131f281612bcd565b15613232576040517f08c379a000000000000000000000000000000000000000000000000000000000815260040161322990614da8565b60405180910390fd5b6001600360008473ffffffffffffffffffffffffffffffffffffffff1673ffffffffffffffffffffffffffffffffffffffff16815260200190815260200160002060008282540192505081905550816002600083815260200190815260200160002060006101000a81548173ffffffffffffffffffffffffffffffffffffffff021916908373ffffffffffffffffffffffffffffffffffffffff160217905550808273ffffffffffffffffffffffffffffffffffffffff16600073ffffffffffffffffffffffffffffffffffffffff167fddf252ad1be2c89b69c2b068fc378daa952ba7f163c4a11628f55a4df523b3ef60405160405180910390a461333c600083836001612c20565b5050565b6000808273ffffffffffffffffffffffffffffffffffffffff163b119050919050565b600181111561348357600073ffffffffffffffffffffffffffffffffffffffff168473ffffffffffffffffffffffffffffffffffffffff16146133f75780600360008673ffffffffffffffffffffffffffffffffffffffff1673ffffffffffffffffffffffffffffffffffffffff16815260200190815260200160002060008282546133ef91906141f2565b925050819055505b600073ffffffffffffffffffffffffffffffffffffffff168373ffffffffffffffffffffffffffffffffffffffff16146134825780600360008573ffffffffffffffffffffffffffffffffffffffff1673ffffffffffffffffffffffffffffffffffffffff168152602001908152602001600020600082825461347a9190614543565b925050819055505b5b50505050565b6008805490506009600083815260200190815260200160002081905550600881908060018154018082558091505060019003906000526020600020016000909190919091505550565b600060016134df84611800565b6134e991906141f2565b90506000600760008481526020019081526020016000205490508181146135ce576000600660008673ffffffffffffffffffffffffffffffffffffffff1673ffffffffffffffffffffffffffffffffffffffff168152602001908152602001600020600084815260200190815260200160002054905080600660008773ffffffffffffffffffffffffffffffffffffffff1673ffffffffffffffffffffffffffffffffffffffff168152602001908152602001600020600084815260200190815260200160002081905550816007600083815260200190815260200160002081905550505b6007600084815260200190815260200160002060009055600660008573ffffffffffffffffffffffffffffffffffffffff1673ffffffffffffffffffffffffffffffffffffffff16815260200190815260200160002060008381526020019081526020016000206000905550505050565b6000600160088054905061365391906141f2565b905060006009600084815260200190815260200160002054905060006008838154811061368357613682614226565b5b9060005260206000200154905080600883815481106136a5576136a4614226565b5b9060005260206000200181905550816009600083815260200190815260200160002081905550600960008581526020019081526020016000206000905560088054806136f4576136f3614dc8565b5b6001900381819060005260206000200160009055905550505050565b600061371b83611800565b905081600660008573ffffffffffffffffffffffffffffffffffffffff1673ffffffffffffffffffffffffffffffffffffffff168152602001908152602001600020600083815260200190815260200160002081905550806007600084815260200190815260200160002081905550505050565b6000604051905090565b600080fd5b600080fd5b60007fffffffff0000000000000000000000000000000000000000000000000000000082169050919050565b6137d8816137a3565b81146137e357600080fd5b50565b6000813590506137f5816137cf565b92915050565b60006020828403121561381157613810613799565b5b600061381f848285016137e6565b91505092915050565b60008115159050919050565b61383d81613828565b82525050565b60006020820190506138586000830184613834565b92915050565b600081519050919050565b600082825260208201905092915050565b60005b8381101561389857808201518184015260208101905061387d565b60008484015250505050565b6000601f19601f8301169050919050565b60006138c08261385e565b6138ca8185613869565b93506138da81856020860161387a565b6138e3816138a4565b840191505092915050565b6000602082019050818103600083015261390881846138b5565b905092915050565b6000819050919050565b61392381613910565b811461392e57600080fd5b50565b6000813590506139408161391a565b92915050565b60006020828403121561395c5761395b613799565b5b600061396a84828501613931565b91505092915050565b600073ffffffffffffffffffffffffffffffffffffffff82169050919050565b600061399e82613973565b9050919050565b6139ae81613993565b82525050565b60006020820190506139c960008301846139a5565b92915050565b6139d881613993565b81146139e357600080fd5b50565b6000813590506139f5816139cf565b92915050565b60008060408385031215613a1257613a11613799565b5b6000613a20858286016139e6565b9250506020613a3185828601613931565b9150509250929050565b613a4481613910565b82525050565b6000602082019050613a5f6000830184613a3b565b92915050565b600080600060608486031215613a7e57613a7d613799565b5b6000613a8c868287016139e6565b9350506020613a9d868287016139e6565b9250506040613aae86828701613931565b9150509250925092565b60008060408385031215613acf57613ace613799565b5b6000613add85828601613931565b9250506020613aee85828601613931565b9150509250929050565b600060208284031215613b0e57613b0d613799565b5b6000613b1c848285016139e6565b91505092915050565b600080600060608486031215613b3e57613b3d613799565b5b6000613b4c86828701613931565b9350506020613b5d868287016139e6565b9250506040613b6e868287016139e6565b9150509250925092565b600080600060608486031215613b9157613b90613799565b5b6000613b9f86828701613931565b9350506020613bb086828701613931565b9250506040613bc1868287016139e6565b9150509250925092565b613bd481613828565b8114613bdf57600080fd5b50565b600081359050613bf181613bcb565b92915050565b60008060408385031215613c0e57613c0d613799565b5b6000613c1c858286016139e6565b9250506020613c2d85828601613be2565b9150509250929050565b600080600060608486031215613c5057613c4f613799565b5b6000613c5e868287016139e6565b9350506020613c6f86828701613931565b9250506040613c8086828701613931565b9150509250925092565b600060a082019050613c9f6000830188613a3b565b613cac6020830187613a3b565b613cb96040830186613a3b565b613cc66060830185613834565b613cd36080830184613a3b565b9695505050505050565b600080fd5b600080fd5b7f4e487b7100000000000000000000000000000000000000000000000000000000600052604160045260246000fd5b613d1f826138a4565b810181811067ffffffffffffffff82111715613d3e57613d3d613ce7565b5b80604052505050565b6000613d5161378f565b9050613d5d8282613d16565b919050565b600067ffffffffffffffff821115613d7d57613d7c613ce7565b5b613d86826138a4565b9050602081019050919050565b82818337600083830152505050565b6000613db5613db084613d62565b613d47565b905082815260208101848484011115613dd157613dd0613ce2565b5b613ddc848285613d93565b509392505050565b600082601f830112613df957613df8613cdd565b5b8135613e09848260208601613da2565b91505092915050565b60008060008060808587031215613e2c57613e2b613799565b5b6000613e3a878288016139e6565b9450506020613e4b878288016139e6565b9350506040613e5c87828801613931565b925050606085013567ffffffffffffffff811115613e7d57613e7c61379e565b5b613e8987828801613de4565b91505092959194509250565b60008060408385031215613eac57613eab613799565b5b6000613eba858286016139e6565b9250506020613ecb858286016139e6565b9150509250929050565b7f4e487b7100000000000000000000000000000000000000000000000000000000600052602260045260246000fd5b60006002820490506001821680613f1c57607f821691505b602082108103613f2f57613f2e613ed5565b5b50919050565b7f4552433732313a20617070726f76616c20746f2063757272656e74206f776e6560008201527f7200000000000000000000000000000000000000000000000000000000000000602082015250565b6000613f91602183613869565b9150613f9c82613f35565b604082019050919050565b60006020820190508181036000830152613fc081613f84565b9050919050565b7f4552433732313a20617070726f76652063616c6c6572206973206e6f7420746f60008201527f6b656e206f776e6572206f7220617070726f76656420666f7220616c6c000000602082015250565b6000614023603d83613869565b915061402e82613fc7565b604082019050919050565b6000602082019050818103600083015261405281614016565b9050919050565b7f4552433732313a2063616c6c6572206973206e6f7420746f6b656e206f776e6560008201527f72206f7220617070726f76656400000000000000000000000000000000000000602082015250565b60006140b5602d83613869565b91506140c082614059565b604082019050919050565b600060208201905081810360008301526140e4816140a8565b9050919050565b7f416d6f756e742073686f756c642062652067726561746572207468616e203000600082015250565b6000614121601f83613869565b915061412c826140eb565b602082019050919050565b6000602082019050818103600083015261415081614114565b9050919050565b7f5461726765742073686f756c642062652067726561746572207468616e203500600082015250565b600061418d601f83613869565b915061419882614157565b602082019050919050565b600060208201905081810360008301526141bc81614180565b9050919050565b7f4e487b7100000000000000000000000000000000000000000000000000000000600052601160045260246000fd5b60006141fd82613910565b915061420883613910565b92508282039050818111156142205761421f6141c3565b5b92915050565b7f4e487b7100000000000000000000000000000000000000000000000000000000600052603260045260246000fd5b7f50726576696f7573207374616b696e67206973206e6f7420636f6d706c65746560008201527f6400000000000000000000000000000000000000000000000000000000000000602082015250565b60006142b1602183613869565b91506142bc82614255565b604082019050919050565b600060208201905081810360008301526142e0816142a4565b9050919050565b7f455243373231456e756d657261626c653a206f776e657220696e646578206f7560008201527f74206f6620626f756e6473000000000000000000000000000000000000000000602082015250565b6000614343602b83613869565b915061434e826142e7565b604082019050919050565b6000602082019050818103600083015261437281614336565b9050919050565b7f4e6f207374616b696e672064657461696c7320666f756e640000000000000000600082015250565b60006143af601883613869565b91506143ba82614379565b602082019050919050565b600060208201905081810360008301526143de816143a2565b9050919050565b7f455243373231456e756d657261626c653a20676c6f62616c20696e646578206f60008201527f7574206f6620626f756e64730000000000000000000000000000000000000000602082015250565b6000614441602c83613869565b915061444c826143e5565b604082019050919050565b6000602082019050818103600083015261447081614434565b9050919050565b7f416c726561647920726577617264656400000000000000000000000000000000600082015250565b60006144ad601083613869565b91506144b882614477565b602082019050919050565b600060208201905081810360008301526144dc816144a0565b9050919050565b7f4e487b7100000000000000000000000000000000000000000000000000000000600052601260045260246000fd5b600061451d82613910565b915061452883613910565b925082614538576145376144e3565b5b828204905092915050565b600061454e82613910565b915061455983613910565b9250828201905080821115614571576145706141c3565b5b92915050565b600061458282613910565b915061458d83613910565b925082820261459b81613910565b915082820484148315176145b2576145b16141c3565b5b5092915050565b7f4552433732313a20696e76616c696420746f6b656e2049440000000000000000600082015250565b60006145ef601883613869565b91506145fa826145b9565b602082019050919050565b6000602082019050818103600083015261461e816145e2565b9050919050565b7f4f6e6c79206f776e65722063616e206368616e67652069740000000000000000600082015250565b600061465b601883613869565b915061466682614625565b602082019050919050565b6000602082019050818103600083015261468a8161464e565b9050919050565b7f4e6f2072657761726420706f6f6c20666f756e64000000000000000000000000600082015250565b60006146c7601483613869565b91506146d282614691565b602082019050919050565b600060208201905081810360008301526146f6816146ba565b9050919050565b7f4552433732313a2061646472657373207a65726f206973206e6f74206120766160008201527f6c6964206f776e65720000000000000000000000000000000000000000000000602082015250565b6000614759602983613869565b9150614764826146fd565b604082019050919050565b600060208201905081810360008301526147888161474c565b9050919050565b7f596f752063616e74207570646174652061667465722031206461790000000000600082015250565b60006147c5601b83613869565b91506147d08261478f565b602082019050919050565b600060208201905081810360008301526147f4816147b8565b9050919050565b600081905092915050565b60006148118261385e565b61481b81856147fb565b935061482b81856020860161387a565b80840191505092915050565b60006148438285614806565b915061484f8284614806565b91508190509392505050565b7f4f776e61626c653a206e6577206f776e657220697320746865207a65726f206160008201527f6464726573730000000000000000000000000000000000000000000000000000602082015250565b60006148b7602683613869565b91506148c28261485b565b604082019050919050565b600060208201905081810360008301526148e6816148aa565b9050919050565b7f4552433732313a207472616e736665722066726f6d20696e636f72726563742060008201527f6f776e6572000000000000000000000000000000000000000000000000000000602082015250565b6000614949602583613869565b9150614954826148ed565b604082019050919050565b600060208201905081810360008301526149788161493c565b9050919050565b7f4552433732313a207472616e7366657220746f20746865207a65726f2061646460008201527f7265737300000000000000000000000000000000000000000000000000000000602082015250565b60006149db602483613869565b91506149e68261497f565b604082019050919050565b60006020820190508181036000830152614a0a816149ce565b9050919050565b7f4f776e61626c653a2063616c6c6572206973206e6f7420746865206f776e6572600082015250565b6000614a47602083613869565b9150614a5282614a11565b602082019050919050565b60006020820190508181036000830152614a7681614a3a565b9050919050565b7f4552433732313a20617070726f766520746f2063616c6c657200000000000000600082015250565b6000614ab3601983613869565b9150614abe82614a7d565b602082019050919050565b60006020820190508181036000830152614ae281614aa6565b9050919050565b7f4552433732313a207472616e7366657220746f206e6f6e20455243373231526560008201527f63656976657220696d706c656d656e7465720000000000000000000000000000602082015250565b6000614b45603283613869565b9150614b5082614ae9565b604082019050919050565b60006020820190508181036000830152614b7481614b38565b9050919050565b600081519050919050565b600082825260208201905092915050565b6000614ba282614b7b565b614bac8185614b86565b9350614bbc81856020860161387a565b614bc5816138a4565b840191505092915050565b6000608082019050614be560008301876139a5565b614bf260208301866139a5565b614bff6040830185613a3b565b8181036060830152614c118184614b97565b905095945050505050565b600081519050614c2b816137cf565b92915050565b600060208284031215614c4757614c46613799565b5b6000614c5584828501614c1c565b91505092915050565b7f455243373231456e756d657261626c653a20636f6e736563757469766520747260008201527f616e7366657273206e6f7420737570706f727465640000000000000000000000602082015250565b6000614cba603583613869565b9150614cc582614c5e565b604082019050919050565b60006020820190508181036000830152614ce981614cad565b9050919050565b7f4552433732313a206d696e7420746f20746865207a65726f2061646472657373600082015250565b6000614d26602083613869565b9150614d3182614cf0565b602082019050919050565b60006020820190508181036000830152614d5581614d19565b9050919050565b7f4552433732313a20746f6b656e20616c7265616479206d696e74656400000000600082015250565b6000614d92601c83613869565b9150614d9d82614d5c565b602082019050919050565b60006020820190508181036000830152614dc181614d85565b9050919050565b7f4e487b7100000000000000000000000000000000000000000000000000000000600052603160045260246000fdfea264697066735822122067c2dbda78c0829ab6353228d6bacf5d51b21d9b7de4aa3cda622153aba8ef8b64736f6c63430008110033",
  "devdoc": {
    "kind": "dev",
    "methods": {
      "approve(address,uint256)": {
        "details": "See {IERC721-approve}."
      },
      "balanceOf(address)": {
        "details": "See {IERC721-balanceOf}."
      },
      "getApproved(uint256)": {
        "details": "See {IERC721-getApproved}."
      },
      "isApprovedForAll(address,address)": {
        "details": "See {IERC721-isApprovedForAll}."
      },
      "name()": {
        "details": "See {IERC721Metadata-name}."
      },
      "owner()": {
        "details": "Returns the address of the current owner."
      },
      "ownerOf(uint256)": {
        "details": "See {IERC721-ownerOf}."
      },
      "renounceOwnership()": {
        "details": "Leaves the contract without owner. It will not be possible to call `onlyOwner` functions anymore. Can only be called by the current owner. NOTE: Renouncing ownership will leave the contract without an owner, thereby removing any functionality that is only available to the owner."
      },
      "safeTransferFrom(address,address,uint256)": {
        "details": "See {IERC721-safeTransferFrom}."
      },
      "safeTransferFrom(address,address,uint256,bytes)": {
        "details": "See {IERC721-safeTransferFrom}."
      },
      "setApprovalForAll(address,bool)": {
        "details": "See {IERC721-setApprovalForAll}."
      },
      "symbol()": {
        "details": "See {IERC721Metadata-symbol}."
      },
      "tokenByIndex(uint256)": {
        "details": "See {IERC721Enumerable-tokenByIndex}."
      },
      "tokenOfOwnerByIndex(address,uint256)": {
        "details": "See {IERC721Enumerable-tokenOfOwnerByIndex}."
      },
      "tokenURI(uint256)": {
        "details": "See {IERC721Metadata-tokenURI}."
      },
      "totalSupply()": {
        "details": "See {IERC721Enumerable-totalSupply}."
      },
      "transferFrom(address,address,uint256)": {
        "details": "See {IERC721-transferFrom}."
      },
      "transferOwnership(address)": {
        "details": "Transfers ownership of the contract to a new account (`newOwner`). Can only be called by the current owner."
      }
    },
    "version": 1
  },
  "userdoc": {
    "kind": "user",
    "methods": {},
    "version": 1
  },
  "storageLayout": {
    "storage": [
      {
        "astId": 138,
        "contract": "contracts/Staking.sol:Staking",
        "label": "_name",
        "offset": 0,
        "slot": "0",
        "type": "t_string_storage"
      },
      {
        "astId": 140,
        "contract": "contracts/Staking.sol:Staking",
        "label": "_symbol",
        "offset": 0,
        "slot": "1",
        "type": "t_string_storage"
      },
      {
        "astId": 144,
        "contract": "contracts/Staking.sol:Staking",
        "label": "_owners",
        "offset": 0,
        "slot": "2",
        "type": "t_mapping(t_uint256,t_address)"
      },
      {
        "astId": 148,
        "contract": "contracts/Staking.sol:Staking",
        "label": "_balances",
        "offset": 0,
        "slot": "3",
        "type": "t_mapping(t_address,t_uint256)"
      },
      {
        "astId": 152,
        "contract": "contracts/Staking.sol:Staking",
        "label": "_tokenApprovals",
        "offset": 0,
        "slot": "4",
        "type": "t_mapping(t_uint256,t_address)"
      },
      {
        "astId": 158,
        "contract": "contracts/Staking.sol:Staking",
        "label": "_operatorApprovals",
        "offset": 0,
        "slot": "5",
        "type": "t_mapping(t_address,t_mapping(t_address,t_bool))"
      },
      {
        "astId": 1206,
        "contract": "contracts/Staking.sol:Staking",
        "label": "_ownedTokens",
        "offset": 0,
        "slot": "6",
        "type": "t_mapping(t_address,t_mapping(t_uint256,t_uint256))"
      },
      {
        "astId": 1210,
        "contract": "contracts/Staking.sol:Staking",
        "label": "_ownedTokensIndex",
        "offset": 0,
        "slot": "7",
        "type": "t_mapping(t_uint256,t_uint256)"
      },
      {
        "astId": 1213,
        "contract": "contracts/Staking.sol:Staking",
        "label": "_allTokens",
        "offset": 0,
        "slot": "8",
        "type": "t_array(t_uint256)dyn_storage"
      },
      {
        "astId": 1217,
        "contract": "contracts/Staking.sol:Staking",
        "label": "_allTokensIndex",
        "offset": 0,
        "slot": "9",
        "type": "t_mapping(t_uint256,t_uint256)"
      },
      {
        "astId": 7,
        "contract": "contracts/Staking.sol:Staking",
        "label": "_owner",
        "offset": 0,
        "slot": "10",
        "type": "t_address"
      },
      {
        "astId": 3124,
        "contract": "contracts/Staking.sol:Staking",
        "label": "_tokenIdCounter",
        "offset": 0,
        "slot": "11",
        "type": "t_struct(Counter)1961_storage"
      },
      {
        "astId": 3223,
        "contract": "contracts/Staking.sol:Staking",
        "label": "admin",
        "offset": 0,
        "slot": "12",
        "type": "t_address"
      },
      {
        "astId": 3225,
        "contract": "contracts/Staking.sol:Staking",
        "label": "rewardPool",
        "offset": 0,
        "slot": "13",
        "type": "t_uint256"
      },
      {
        "astId": 3253,
        "contract": "contracts/Staking.sol:Staking",
        "label": "stakingDetails",
        "offset": 0,
        "slot": "14",
        "type": "t_mapping(t_address,t_mapping(t_uint256,t_array(t_struct(StakingDetails)3236_storage)dyn_storage))"
      }
    ],
    "types": {
      "t_address": {
        "encoding": "inplace",
        "label": "address",
        "numberOfBytes": "20"
      },
      "t_array(t_struct(StakingDetails)3236_storage)dyn_storage": {
        "base": "t_struct(StakingDetails)3236_storage",
        "encoding": "dynamic_array",
        "label": "struct Staking.StakingDetails[]",
        "numberOfBytes": "32"
      },
      "t_array(t_uint256)dyn_storage": {
        "base": "t_uint256",
        "encoding": "dynamic_array",
        "label": "uint256[]",
        "numberOfBytes": "32"
      },
      "t_bool": {
        "encoding": "inplace",
        "label": "bool",
        "numberOfBytes": "1"
      },
      "t_mapping(t_address,t_bool)": {
        "encoding": "mapping",
        "key": "t_address",
        "label": "mapping(address => bool)",
        "numberOfBytes": "32",
        "value": "t_bool"
      },
      "t_mapping(t_address,t_mapping(t_address,t_bool))": {
        "encoding": "mapping",
        "key": "t_address",
        "label": "mapping(address => mapping(address => bool))",
        "numberOfBytes": "32",
        "value": "t_mapping(t_address,t_bool)"
      },
      "t_mapping(t_address,t_mapping(t_uint256,t_array(t_struct(StakingDetails)3236_storage)dyn_storage))": {
        "encoding": "mapping",
        "key": "t_address",
        "label": "mapping(address => mapping(uint256 => struct Staking.StakingDetails[]))",
        "numberOfBytes": "32",
        "value": "t_mapping(t_uint256,t_array(t_struct(StakingDetails)3236_storage)dyn_storage)"
      },
      "t_mapping(t_address,t_mapping(t_uint256,t_uint256))": {
        "encoding": "mapping",
        "key": "t_address",
        "label": "mapping(address => mapping(uint256 => uint256))",
        "numberOfBytes": "32",
        "value": "t_mapping(t_uint256,t_uint256)"
      },
      "t_mapping(t_address,t_uint256)": {
        "encoding": "mapping",
        "key": "t_address",
        "label": "mapping(address => uint256)",
        "numberOfBytes": "32",
        "value": "t_uint256"
      },
      "t_mapping(t_uint256,t_address)": {
        "encoding": "mapping",
        "key": "t_uint256",
        "label": "mapping(uint256 => address)",
        "numberOfBytes": "32",
        "value": "t_address"
      },
      "t_mapping(t_uint256,t_array(t_struct(StakingDetails)3236_storage)dyn_storage)": {
        "encoding": "mapping",
        "key": "t_uint256",
        "label": "mapping(uint256 => struct Staking.StakingDetails[])",
        "numberOfBytes": "32",
        "value": "t_array(t_struct(StakingDetails)3236_storage)dyn_storage"
      },
      "t_mapping(t_uint256,t_uint256)": {
        "encoding": "mapping",
        "key": "t_uint256",
        "label": "mapping(uint256 => uint256)",
        "numberOfBytes": "32",
        "value": "t_uint256"
      },
      "t_string_storage": {
        "encoding": "bytes",
        "label": "string",
        "numberOfBytes": "32"
      },
      "t_struct(Counter)1961_storage": {
        "encoding": "inplace",
        "label": "struct Counters.Counter",
        "members": [
          {
            "astId": 1960,
            "contract": "contracts/Staking.sol:Staking",
            "label": "_value",
            "offset": 0,
            "slot": "0",
            "type": "t_uint256"
          }
        ],
        "numberOfBytes": "32"
      },
      "t_struct(StakingDetails)3236_storage": {
        "encoding": "inplace",
        "label": "struct Staking.StakingDetails",
        "members": [
          {
            "astId": 3227,
            "contract": "contracts/Staking.sol:Staking",
            "label": "amount",
            "offset": 0,
            "slot": "0",
            "type": "t_uint256"
          },
          {
            "astId": 3229,
            "contract": "contracts/Staking.sol:Staking",
            "label": "target",
            "offset": 0,
            "slot": "1",
            "type": "t_uint256"
          },
          {
            "astId": 3231,
            "contract": "contracts/Staking.sol:Staking",
            "label": "targetDone",
            "offset": 0,
            "slot": "2",
            "type": "t_uint256"
          },
          {
            "astId": 3233,
            "contract": "contracts/Staking.sol:Staking",
            "label": "isCompleted",
            "offset": 0,
            "slot": "3",
            "type": "t_bool"
          },
          {
            "astId": 3235,
            "contract": "contracts/Staking.sol:Staking",
            "label": "stakeDay",
            "offset": 0,
            "slot": "4",
            "type": "t_uint256"
          }
        ],
        "numberOfBytes": "160"
      },
      "t_uint256": {
        "encoding": "inplace",
        "label": "uint256",
        "numberOfBytes": "32"
      }
    }
  }
}